:020000040800F2
:1000000000040020470100085501000857010008BE
:10001000590100085B0100085D01000800000000B4
:100020000000000000000000000000005F01000868
:10003000610100080000000063010008650100087C
:1000400067010008670100086701000867010008F0
:1000500067010008670100086701000867010008E0
:1000600067010008670100086701000867010008D0
:1000700067010008670100086701000867010008C0
:1000800067010008670100086701000867010008B0
:1000900067010008670100086701000867010008A0
:1000A0006701000867010008670100086701000890
:1000B0006701000867010008670100086701000880
:1000C0006701000867010008670100086701000870
:1000D0006701000867010008670100086701000860
:1000E0006701000867010008670100086701000850
:1000F0006701000867010008670100086701000840
:10010000670100086701000867010008670100082F
:10011000670100086701000867010008670100081F
:10012000670100086701000867010008670100080F
:10013000DFF80CD001F0C6FC00480047F7010008CA
:1001400028020020704708488047084981F3088842
:1001500007480047FEE7FEE7FEE7FEE7FEE7FEE7AB
:10016000FEE7FEE7FEE7FEE7450100082802002063
:100170003101000808B50121082001F08DF90320A4
:10018000ADF8000018208DF8030003208DF8020060
:100190006946384800F0E2FE08BD0EB50121022094
:1001A00001F087F9344800F077F80020ADF800003E
:1001B0004FF41670ADF804000020ADF80600ADF85D
:1001C000020069462C4800F0D2F870202B490880C4
:1001D0002B480088C88001204880002008812648DC
:1001E00000F05FF92549244800F0A3F901212248D5
:1001F00000F043FB0EBD01F0C7FBFFF7BBFF01F0B2
:10020000FDFBFFF7CAFF482001F0AEF931E01D48C1
:10021000008860B91A480088401C194908800846BF
:100220000088B0F5167F02D10120164908801548D4
:10023000008801280AD112480088401E1049088011
:100240000846008810B900200E490880012001F0FE
:10025000A7F90B4801880CA001F046FC084800886B
:100260000649C880044800F01CF90449024800F01F
:1002700060F9CCE7000C01400004004018000020A9
:1002800000000020020000200D0A2061613D2020B6
:1002900025640D0A0000000010B50446F749601AF5
:1002A0008C4245D00CDCB4F1804F1DD0F448204482
:1002B00018B3B0F5806F29D0B0F5006F54D12EE09F
:1002C000B0F5806F3DD0B0F58E3F03D0B0F5923FD2
:1002D0004AD13FE00121C80201F0F8F800214FF4B3
:1002E000006001F0F3F840E00121084601F0FBF85E
:1002F0000021012001F0F7F837E00121022001F090
:10030000F2F80021022001F0EEF82EE00121042095
:1003100001F0E9F80021042001F0E5F825E00121D1
:10032000082001F0E0F80021082001F0DCF81CE0D2
:100330000121102001F0D7F80021102001F0D3F89E
:1003400013E00121202001F0CEF80021202001F04F
:10035000CAF80AE00121480301F0B8F800214FF47F
:10036000005001F0B3F800E000BF00BF10BD0288EC
:1003700002F08F020280CA884B881A4303881A430E
:1003800002808A8882850A88028501228282BD4A8B
:10039000904202D0BC4A904201D10A7A028670474C
:1003A00070B5002400220023058C4FF6FE76354000
:1003B0000584028C8388048B4FF68F752C400D8842
:1003C0002C43751E2A400D892A434D882A43CD8827
:1003D0008586AC4DA84202D0AB4DA84213D14FF652
:1003E000F7752A404D892A434FF6FB752A408D88C0
:1003F0002A4347F6FF652B4047F6FF552B408D8972
:100400002B43CD892B4383800483028470BD70B558
:10041000002400220023058C4FF6EF76354005843A
:10042000028C8388048B48F6FF752C400D884FF6AC
:10043000FF7606EA05252C434FF6DF752A400D8925
:1004400006EA05152A434D8806EA05152A43CD8894
:1004500005878C4DA84202D08B4DA8421DD14FF686
:100460007F752A404D894FF6FF7606EA05152A4327
:100470004FF6BF752A408D8806EA05152A4347F6D0
:10048000FF352B4047F2FF752B408D8906EA850525
:100490002B43CD8906EA85052B43838004830284A0
:1004A00070BD70B5002400220023058C4FF6FF6656
:1004B00035400584028C8388848B4FF68F752C40E1
:1004C0000D882C434FF6FF552A400D894FF6FF76D5
:1004D00006EA05252A434D8806EA05252A43CD88E4
:1004E0008587684DA84202D0674DA8421DD14FF2C2
:1004F000FF752A404D894FF6FF7606EA05252A4307
:100500004FF6FF352A408D8806EA05252A4346F630
:10051000FF752B4045F6FF752B408D8906EA0515C2
:100520002B43CD8906EA05152B43838084830284FF
:1005300070BD70B5002400220023058C4EF6FF76B6
:1005400035400584028C8388848B48F6FF752C40E7
:100550000D884FF6FF7606EA05252C434DF6FF750C
:100560002A400D8906EA05352A434D8806EA0535F5
:100570002A43CD88A0F84050424DA84202D0424DB7
:10058000A84207D1C3F30D038D894FF6FF7606EA23
:1005900085152B4383808483028470BD828B4FF248
:1005A000FF331A408283828B4FF6FF7303EA0123E5
:1005B0001A4382837047F0B50C461546002100228D
:1005C0000026078C4EF6FF7C07EA0C070784818B18
:1005D000028C4FF6FF7707EA043640F6FF473940B2
:1005E0004FF6FF7707EA05274FF6FF7C0CEA033C3E
:1005F00047EA0C0739434DF6FF773A4046F48057F7
:100600003A4381830284F0BD828B4FF6F3731A4024
:100610008283828B0A4382837047F0B50C4615466D
:10062000002100220026078C4FF6FF6C07EA0C071A
:100630000784818B028C4FF6FF7707EA04264FF67A
:100640000C7739404FF6FF7707EA03172F433943FA
:100650004FF6FF573A4046F480773A43818302844D
:10066000F0BD028B4FF2FF331A400283028B4FF62C
:10067000FF7303EA01231A4302837047001000400E
:1006800000FCFFBF002C014000340140F0B50C46D7
:100690001546002100220026078C4FF6EF7C07EA62
:1006A0000C070784018B028C4FF6FF7707EA0416CC
:1006B00040F6FF4739404FF6FF7707EA03373943E3
:1006C0004FF6FF7707EA052739434FF6DF773A40C1
:1006D00046F010073A4301830284F0BD028B4FF6C7
:1006E000F3731A400283028B0A4302837047F0B50A
:1006F0000C46154600210022068C4FF6FE773E4040
:100700000684018B028C4FF60C7631407E1C06EA83
:1007100003162E4331437E1E324044F0010632431D
:1007200001830284F0BD70B505460C46208850B99F
:100730002389A28861882846FFF7D9FFE1882846E7
:10074000FFF7CCFF25E0208804280AD12389A2885E
:1007500061882846FFF79AFFE1882846FFF781FF66
:1007600017E0208808280AD12389A28861882846B2
:10077000FFF753FFE1882846FFF746FF09E023898A
:10078000A28861882846FFF716FFE1882846FFF710
:1007900005FF70BD2DE9F04105460C4600260127F6
:1007A000608808B9022600E00026A088012801D14F
:1007B000022700E001272088A0B92389A288618848
:1007C0002846FFF794FFE1882846FFF787FF238933
:1007D0003A4631462846FFF759FFE1882846FFF799
:1007E00040FF13E02389A28861882846FFF74EFF67
:1007F000E1882846FFF735FF23893A4631462846E7
:10080000FFF775FFE1882846FFF768FFBDE8F08134
:100810000A884B881A438B881A43CB881A430B8962
:100820001A434B891A438B891A43A0F84420704716
:100830004FF6FF71818000210180C18041800172EB
:1008400070470021018041808180C1800181418108
:100850008181C18170470021018041800121818017
:100860000021C18001817047002101804180818089
:10087000C180018141818181704721B1028842F0AC
:100880000102028004E0028840F2FE331A40028036
:10089000704731B1B0F8442042F40042A0F844203F
:1008A00005E0B0F84420C2F30E02A0F844207047DF
:1008B0001AB183890B43838102E083898B4383814F
:1008C00070478182704741EA0203A0F848307047C0
:1008D0001AB183890B43838102E083898B4383812F
:1008E000704701894FF6F8721140018170470A463E
:1008F000002101894FF68F73194011430181704720
:1009000030B504460D4629462046FFF7F0FF208902
:1009100040F00700208130BD2DE9F04104460D462E
:1009200016461F46602D06D13B4601223146204621
:10093000FFF7ACFE05E03B46012231462046FFF7BB
:10094000D6FE29462046FFF7D2FF208940F0070057
:100950002081BDE8F08170B50C4600210189C9B243
:1009600044EA02054FF6FF7606EA0326354329439B
:10097000018170BD2DE9F04105460E4617469846A7
:10098000002443463A4631462846FFF7E4FF2C89C7
:100990004FF6F870044044F007044FF68F7004409F
:1009A00044F070042C81BDE8F081F0B504460D469A
:1009B00016461F463B46324629462046FFF7CBFFE8
:1009C000208940F480402081F0BD018582827047FB
:1009D0000A460021018840F28F33194011430180FB
:1009E0007047F0B50C4615461E4600210022002334
:1009F0000189028B038C4FF6F877394021434FF67B
:100A0000FC473A4040F201173A434FF6DD773B404E
:100A10004FF6FF7707EA06172F433B430181028316
:100A20000384F0BD0A460021018B4FF68F731940F5
:100A30001143018370470A460021018B48F6FF737A
:100A400019404FF6FF7303EA0223194301837047ED
:100A50000A460021818B4FF68F7319401143818321
:100A600070470A460021818B48F6FF7319404FF604
:100A7000FF7303EA022319438183704721B102887F
:100A800042F08002028004E0028840F27F331A4084
:100A90000280704721B1828842F00402828004E023
:100AA00082884FF6FB731A408280704721B182889A
:100AB00042F00802828004E082884FF6F7731A4001
:100AC0008280704721B1828842F00102828004E076
:100AD00082884FF6FE731A40828070470A460021D2
:100AE000018B4FF6F77319401143018370470A4693
:100AF0000021018B4FF2FF7319404FF6FF7303EA99
:100B000002231943018370470A460021818B4FF667
:100B1000F77319401143818370470A460021818B86
:100B20004FF2FF7319404FF6FF7303EA0223194394
:100B3000818370470A460021018B4FF6FB731940F1
:100B40001143018370470A460021018B4FF6FF33A2
:100B500019404FF6FF7303EA0223194301837047DC
:100B60000A460021818B4FF6FB73194011438183A4
:100B700070470A460021818B4FF6FF3319404FF62C
:100B8000FF7303EA02231943818370470A46002159
:100B9000018B4FF67F7319401143018370470A465A
:100BA0000021018BC1F30E014FF6FF7303EA02230C
:100BB0001943018370470A460021818B4FF67F73EA
:100BC00019401143818370470A460021818BC1F38C
:100BD0000E014FF6FF7303EA022319438183704726
:100BE0000A460021018C4FF6FD7319401143018420
:100BF00070470A460021018C4FF6F77319401143E4
:100C0000018470470A460021018C4FF6DF731940BA
:100C10004FF6FF7303EA02131943018470470A4633
:100C20000021018C4FF67F7319404FF6FF7303EAE2
:100C300002131943018470470A460021018C4FF6C4
:100C4000FF5319404FF6FF7303EA0223194301844F
:100C500070470A460021018C4FF2FF7319404FF68E
:100C6000FF7303EA02231943018470470A460021F7
:100C7000018C4DF6FF7319404FF6FF7303EA023300
:100C800019430184704710B5038C01248C40A343A1
:100C90000384038C02FA01F4A4B22343038410BD3D
:100CA00010B5038C04248C40A3430384038C02FA04
:100CB00001F4A4B22343038410BD30B5038C012496
:100CC0008C40A343038409B1082912D100F1180311
:100CD00003EB61031B684FF68F74234000F1180487
:100CE00004EB6104236000F1180303EB61031A6055
:100CF00018E00B1FC3F34E0400F118031B5948F60C
:100D0000FF7423400C1FC4F34E0500F11804635117
:100D10004FF6FF7303EA02240B1FC3F34E0500F1E5
:100D200018035C5130BD21B1028842F002020280FA
:100D300004E0028840F2FD331A400280704721B17E
:100D4000028842F00402028004E0028840F2FB3391
:100D50001A400280704721B1828842F0800282806E
:100D600004E082884FF67F731A40828070470288C1
:100D700040F2F7331A40028002880A43028070472B
:100D800082884FF68F731A40828082880A4382805D
:100D9000704702894FF6F8731A40028102890A43AC
:100DA0000281704702894FF67F731A4002810289DF
:100DB0000A4302817047818470478185704781862C
:100DC00070470187704781877047A0F840107047CF
:100DD0000288D2B2028002880A430280704701462C
:100DE000888E70470146088F70470146888F70478C
:100DF0000146B1F8400070470146888C70470146B3
:100E0000088D704702460020138A0B400BB1012069
:100E100000E000207047CA430282704730B50246A6
:100E2000002000230024158A05EA0103958905EABC
:100E3000010413B10CB1012000E0002030BDCA4311
:100E4000028270471049096801F038010E4A1160AA
:100E5000114609680143116070470B49096821F088
:100E60000801094A11601146096801431160704781
:100E70000549096821F01001034A1160114609680B
:100E800001431160704700000020024010B5044685
:100E9000C549601A8C422FD009DCC448204480B177
:100EA000B0F5806F16D0B0F5006F4AD11BE0B0F5F9
:100EB000806F2AD0B0F5006F30D0B0F5406F40D1D0
:100EC00035E00121042000F001FB0021042000F0A6
:100ED000FDFA37E00121082000F0F8FA002108208F
:100EE00000F0F4FA2EE00121102000F0EFFA0021CA
:100EF000102000F0EBFA25E00121202000F0E6FAB6
:100F00000021202000F0E2FA1CE00121402000F046
:100F1000DDFA0021402000F0D9FA13E00121802001
:100F200000F0D4FA0021802000F0D0FA0AE001217C
:100F3000080200F0CBFA00214FF4807000F0C6FAEE
:100F400000E000BF00BF10BD10B50121084600F051
:100F5000BDFA0021012000F0B9FA10BD2DE9F041E1
:100F6000024600250026002000230024002791F8D7
:100F700003C00CF00F0591F803C00CF0100CBCF18D
:100F8000000F03D091F802C04CEA050591F800C0AB
:100F9000BCF1000F30D0146800202AE04FF0010CA3
:100FA0000CFA00F3B1F800C00CEA03069E421FD110
:100FB00083004FF00F0C0CFA03F7BC4305FA03FC57
:100FC0004CEA040491F803C0BCF1280F05D14FF09E
:100FD000010C0CFA00FCC2F814C091F803C0BCF17B
:100FE000480F05D14FF0010C0CFA00FCC2F810C0FC
:100FF000401C0828D2D31460B1F800C0BCF1FF0F28
:1010000034DD546800202EE000F1080C4FF0010898
:1010100008FA0CF3B1F800C00CEA03069E4221D195
:1010200083004FF00F0C0CFA03F7BC4305FA03FCE6
:101030004CEA040491F803C0BCF1280F05D100F17B
:10104000080C08FA0CF8C2F8148091F803C0BCF13F
:10105000480F07D100F1080C4FF0010808FA0CF80E
:10106000C2F81080401C0828CED35460BDE8F0813F
:101070004FF6FF710180022181700421C170704719
:101080000246002093680B400BB1012000E00020D5
:1010900070470146886880B2704702460020D368D6
:1010A0000B400BB1012000E0002070470146C868EA
:1010B00080B2704701617047416170470AB10161B8
:1010C00000E041617047C16070474FF480320A43CD
:1010D0008261816182618269826970470246002073
:1010E000334B18684FF68073184040EA02100843EB
:1010F0002F4B186070472F49C8617047F0B50A46FA
:101100000023002400210025294E7168C0F3034507
:1011100083B200F44016B6F5401F08D121F070618B
:10112000234E766826F07066214F7E6012E000F450
:101130008016B6F5801F06D1032606FA05F4A143F2
:1011400041F0706106E0460D360103FA06F6B14340
:1011500041F0706122B1460D360103FA06F63143C3
:10116000134E7160F0BD30B500228B071C0F0F23AA
:1011700003FA04F20E4B08338C1053F824309343D7
:101180000B4C08348D1044F8253023468C1053F84E
:1011900024308C07240F00FA04F42343044C083451
:1011A0008D1044F8253030BD0014014000F8FEBF1A
:1011B0000000014000002042E048006840F00100CB
:1011C000DE49086008464068DD490840DB49486060
:1011D00008460068DB490840D849086008460068AE
:1011E00020F4802008600846406820F4FE00486033
:1011F000002088607047D149096821F48031CF4AC6
:1012000011601146096821F480211160B0F5803F1A
:1012100003D0B0F5802F0ED106E0C849096841F42B
:101220008031C64A116007E0C449096841F4A02131
:10123000C24A116000E000BF00BF704710B5014610
:101240000022002300204A11012A02D1BB4C23684E
:1012500006E0022A02D1B94C236A01E0B74C636A66
:1012600001F01F02012494401C400CB1012000E059
:10127000002010BD10B5002400BF3120FFF7DEFFB5
:10128000B1490870B1480068401CB0490860AE48D8
:10129000007828B90846006840F2FF118842ECD176
:1012A0003120FFF7CBFF08B1012400E000242046E5
:1012B00010BD01460020A14A106820F0F80040EA65
:1012C000C10010607047A2490860704702460020C4
:1012D0009A4B586820F47C1042EA01031843974B5C
:1012E000586070479A490866704701460020934A43
:1012F000506820F003000843506070478F484068F2
:1013000000F00C007047014600208C4A506820F025
:10131000F00008435060704701460020874A50683B
:1013200020F4E06008435060704701460020834A83
:10133000506820F4605040EAC1005060704729B105
:101340007E4A527A02437D4B5A7204E07B4A527ABB
:1013500082437A4B5A7270477D49D8310860704792
:1013600001460020754A506820F440400843506010
:1013700070470021714A20321170704A82F82010A3
:10138000012802D004280AD104E001216B4A20324E
:10139000117005E00521694A2032117000E000BF9C
:1013A00000BF70476B49086070476449096A014390
:1013B000624A11627047674944390860704730B526
:1013C00000210022002400235C4D6D6805F00C0113
:1013D00021B1042905D0082923D105E05E4D05601F
:1013E00022E05D4D05601FE0544D6D6805F47012FC
:1013F000022505EB9242514D6D6805F480341CB90D
:10140000564D554305600BE04C4D6D6805F40035B5
:101410001DB1524D5543056002E04F4D55430560E7
:1014200002E04D4D056000BF00BF444D6D6805F002
:10143000F00109094A4D6B5C0568DD4045603F4D90
:101440006D6805F4E061090A454D6B5C4568DD4057
:1014500085603A4D6D6805F46051C90A404D6B5C7A
:101460004568DD40C560354D6D6805F44041890B28
:101470003C4D6B5CC568B5FBF3F5056130BD29B12A
:101480002E4A526902432D4B5A6104E02B4A52699D
:1014900082432A4B5A61704729B1284A9269024314
:1014A000264B9A6104E0254A92698243234B9A6154
:1014B000704729B1214AD2690243204BDA6104E026
:1014C0001E4AD26982431D4BDA61704729B11B4A1B
:1014D000D2680243194BDA6004E0184AD2688243AA
:1014E000164BDA60704729B1144A12690243134B54
:1014F0001A6104E0114A12698243104B1A61704765
:1015000014494039086070471149C86470470B4955
:10151000C87170470948406A40F0807007494862C6
:10152000704701460020054A92680A400AB101202E
:1015300000E00020704701498872704700100240A7
:101540000000FFF8FFFFF6FE040000200800002066
:10155000000042428004424200127A0000093D002D
:101560007C1C00088C1C00084FF0E021096921F068
:1015700004014FF0E0221161C21700EB5272C2F376
:10158000C702234B1A701946097801EB4102C2EBDE
:10159000C1114FF6FF7202EAC1011E4A1180704765
:1015A00001461C4A12884A434FF0E0235A61002248
:1015B0009A6101221A6100BF4FF0E022106900F029
:1015C00001021AB100F48032002AF5D000224FF057
:1015D000E0231A619A61704701460D4A12784A4326
:1015E0004FF0E0235A6100229A6101221A6100BF84
:1015F0004FF0E022106900F001021AB100F48032CD
:10160000002AF5D000224FF0E0231A619A6170475A
:101610000C0000200E00002010B50446D749601AC7
:101620008C422BD006DCD648204498B1B0F5806FB0
:1016300038D119E0B0F5806F2AD0B0F56C4F31D1B8
:1016400001218803FFF742FF00214FF48040FFF79C
:101650003DFF28E001214804FFF745FF00214FF43A
:101660000030FFF740FF1EE001218804FFF73BFF39
:1016700000214FF48020FFF736FF14E00121C80459
:10168000FFF731FF00214FF40020FFF72CFF0AE0A5
:1016900001210805FFF727FF00214FF48010FFF715
:1016A00022FF00E000BF00BF10BD2DE9F04786B06B
:1016B00005460E460024A24600BF00BF00272F4665
:1016C0002C8A4CF6FF700440F08804432C82AC89CD
:1016D0004EF6F3100440B0883189084371890843FD
:1016E0000443AC81AC8A4FF6FF400440B089044308
:1016F000AC8201A8FFF763FEA248874202D1DDF861
:1017000010A001E0DDF80CA00AEBCA0000EB0A1003
:1017100031688900B0FBF1F86420B8FBF0F00401F7
:101720002009642101FB1089322000EB0910B0FB75
:10173000F1F000F00F0004432C8106B0BDE8F08703
:101740004FF41651016000218180C18001810C217C
:10175000418100218181704710B502460020108A26
:101760004FF2FF0318400B884C8823438C88234397
:10177000CC8823431843108210BD00210180418092
:101780008180C180704721B1828942F400528281F8
:1017900004E082894DF6FF731A4082817047F0B5EC
:1017A000034600240026002500201846C1F34214F9
:1017B00001F01F06012707FA06F5012C01D10C30B4
:1017C00004E0022C01D1103000E014301AB1076897
:1017D0002F43076002E00768AF430760F0BD1AB10E
:1017E000838A0B43838202E0838A8B438382704720
:1017F000028A4FF6F0731A400282028A0A4302827A
:10180000704782894FF2FF731A40828182890A43AE
:101810008281704721B1828942F00202828104E014
:1018200082894FF6FD731A4082817047028A4FF613
:10183000DF731A400282028A0A430282704721B192
:10184000028A42F48042028204E0028A4BF6FF736D
:101850001A4002827047C1F3080282807047014635
:101860008888C0F308007047818941F001018181B7
:101870007047028BD2B20283028B42EA01220283BA
:101880007047028B02F47F420283028B0A43028379
:10189000704721B1828A42F02002828204E0828A6B
:1018A0004FF6DF731A408282704721B1828A42F07C
:1018B0001002828204E0828A4FF6EF731A4082821D
:1018C000704721B1828A42F00802828204E0828A53
:1018D0004FF6F7731A4082827047828A4FF6FB7385
:1018E0001A408282828A0A438282704721B1828AA8
:1018F00042F00202828204E0828A4FF6FD731A40AF
:10190000828270470246002013880B400BB10120F1
:1019100000E000207047CA430280704770B502465D
:101920000B460024002100250020C3F3421503F0DC
:101930001F01012606FA01F1012D02D196893140DD
:1019400006E0022D02D1168A314001E0968A31402C
:101950001C12012606FA04F41688344011B10CB1A9
:10196000012000E0002070BD10B5002200230A1203
:1019700001249440A3B2DC43048010BD004C00401D
:1019800000BCFFBF0038014010B5FFF715FC4FF455
:101990008030FFF730FCFFF76DFC174908700846F0
:1019A0000078012826D11020FFF762FA0220FFF705
:1019B00049FA0020FFF7A7FC0020FFF7B6FC4FF420
:1019C0008060FFF7A9FC4FF4E0114FF48030FFF77F
:1019D0007DFC0120FFF786FC00BF3920FFF72EFCBD
:1019E0000028FAD00220FFF780FC00BFFFF786FC3A
:1019F0000828FBD110BD00001000002000B585B004
:101A0000012144F20400FFF747FD4FF40070ADF8E8
:101A1000100018208DF8130003208DF8120004A97F
:101A20001B48FFF79BFA4FF48060ADF810000420CC
:101A30008DF8130004A91648FFF790FA4FF4E1302F
:101A400000900020ADF80400ADF80600ADF80800E5
:101A5000ADF80C000C20ADF80A0069460D48FFF700
:101A600024FE01210B48FFF78EFE05B000BD70B5C6
:101A700004460D46E1B20748FFF7EDFE00BF4021E6
:101A80000448FFF73FFF0028F9D0204670BD000052
:101A9000000801400038014030B50B4601460020E7
:101AA0002022012409E021FA02F59D4205D303FA20
:101AB00002F5491B04FA02F52844151EA2F10102A1
:101AC000F1DC30BD064C074D06E0E06840F0010354
:101AD00094E8070098471034AC42F6D3FEF72CFB8D
:101AE000901C0008B01C00080FB4054B10B503A9EA
:101AF000044A029800F018F810BC5DF814FB0000CE
:101B00006F1A00081400002002E008C8121F08C164
:101B1000002AFAD170477047002001E001C1121F6E
:101B2000002AFBD1704700002DE9FF4F89B09B468A
:101B30000446002506E025280BD05A460B9990470D
:101B4000641C6D1C20780028F5D10DB02846BDE836
:101B5000F08F0027B8460122474900E0074314F8F8
:101B6000013F203B02FA03F00842F7D120782E28EB
:101B700019D114F8010F47F004072A280ED06FF08E
:101B80002F022078A0F1300109290CD808EB880138
:101B900002EB410100EB0108641CF2E70A98641CA7
:101BA00050F8048B0A9020780028CED0642808D002
:101BB000692806D075281ED05A460B9990476D1C8F
:101BC00058E00A994FF00A0901C90A91002802DA7F
:101BD00040422D2102E0390504D52B218DF820103B
:101BE000012103E0F90704D02021F7E78A4608AE77
:101BF0000DE00021FAE70A994FF00A0901C90A919C
:101C0000F7E74946FFF748FF303106F8011D002885
:101C1000F7D1ADEB060000F12009780701D44FF0B1
:101C20000108C84502DDA8EB090000E0002080465D
:101C3000002706E008A85A46C05D0B9990476D1C26
:101C40007F1C5745F6DB04E030205A460B9990473D
:101C50006D1CB8F10001A8F10108F5DC05E016F8EB
:101C6000010B5A460B9990476D1CB9F10001A9F17F
:101C70000109F4DC641C65E709280100000000008C
:101C8000010203040102030406070809020406080E
:101C9000B01C00080000002018000000081B00080D
:101CA000C81C00081800002010020000181B0008C3
:101CB0000000000000000000000000000000000024
:081CC00000000000000000001C
:0400000508000131BD
:00000001FF
