:020000040800F2
:10000000680C002001010008C31B000897190008B4
:10001000C11B000827030008092200080000000097
:10002000000000000000000000000000F91C0008B3
:100030005B03000800000000C51B0008FB1C000853
:100040001B0100081B0100081B0100081B01000820
:100050001B0100081B0100081B0100081B01000810
:100060001B0100081B0100081B0100081B01000800
:100070001B010008290300081B0100081B010008E0
:100080001B0100081B0100081B0100081B010008E0
:100090001B0100081B0100081B0100081B010008D0
:1000A0001B0100081B0100081B0100081B010008C0
:1000B000A11D00081B0100081B0100081B0100080E
:1000C0001B0100081B0100081B0100081B010008A0
:1000D0001B0100082D21000895210008A12100081E
:1000E0006D0400081B0100081B010008DFF80CD09C
:1000F00000F0A6F800480047AD2D0008680C00206D
:100100000648804706480047FEE7FEE7FEE7FEE7B1
:10011000FEE7FEE7FEE7FEE7FEE7FEE7551D000807
:10012000ED0000080649074A0868504343F23902C7
:10013000104408604008704701490860704700009B
:10014000000000206D4EC641D2B201E000F8012B44
:10015000491EFBD270470022F6E710B513460A4647
:1001600004461946FFF7F0FF204610BD10B548437E
:10017000044604F00FFB002805D00021002C02D01B
:10018000641E0155FAE710BD70B5064604F01CFA6E
:10019000046805460A220021304600F018F82C6059
:1001A00070BD30B50B46014600202022012409E035
:1001B00021FA02F59D4205D303FA02F5491B04FA20
:1001C00002F52844151EA2F10102F1DC30BD2DE933
:1001D000F04791460F4680460446002614F8015B1E
:1001E0002DB100F03FF80068405DC007F6D12B2D1F
:1001F00002D02D2D18D0641E4A463946204600F004
:1002000035F827B13968A14201D1C7F800807105DE
:100210004FF002040BD54042002803DD04F0D4F96E
:100220000460A007BDE8F08746F48066E4E7002894
:10023000F8DA04F0C9F904606FF00040F2E700005A
:10024000064C074D06E0E06840F0010394E8070023
:1002500098471034AC42F6D3FFF74CFFA84900088A
:10026000C849000800487047844800082DE9F05F3D
:1002700082460078002715468B460AF10104B946EC
:10028000302801D09DB113E014F8010B0127782824
:1002900003D0582801D045B10AE00DB1102D07D187
:1002A0000027102514F8010B02E0082500E00A25BC
:1002B0000026B0460EE005FB080005FB06F101270D
:1002C00001EB10461FFA80F8B6F5803F00D3B9461F
:1002D00014F8010B294600F018F80028EBDABBF1FE
:1002E000000F05D00FB1641E00E05446CBF800406B
:1002F000B9F1000F06D004F067F902210160C81EB1
:10030000BDE8F09F48EA0640FAE73A2800D23038C4
:1003100020F02002412A01D3A2F13700884201D304
:100320004FF0FF307047FEE7014800F007B900BF0B
:100330002C040020F0B5D0E90045D0E90F6001277A
:1003400007FA00F0102D70600846636008BF104681
:10035000A06008BF0A46E260F0BD70472DE9F04199
:10036000404C4FF40051204600F0D2FA10B13E4804
:100370000021017020464FF4005100F0C9FA3A4FB5
:100380003978084301D0002521E02046042100F0FF
:10039000BFFA804620464FF4005100F0B9FA00251C
:1003A000A8B97D804EF65F25012620464FF4005106
:1003B00000F0AEFA30B97888A84203D801303E7018
:1003C0007880F2E70225B8F1000F08BF012520462A
:1003D0004FF4805100F09CFA3978084320D18220F4
:1003E00000F0ACF920464FF4805100F091FAB8B912
:1003F000002620464FF4805100F08AFA632E05D87B
:1004000020B90A2000F09AF90136F2E7632E0AD9E2
:1004100020464FF4805100F07BFA0028F8D00525E3
:100420002846BDE8F08100260027132E13D814209B
:1004300000F084F920464FF4805100F069FA40B989
:1004400020464FF4805100F063FA0028F8D00425CC
:1004500001270136E9E7002F08BF0325E8B2BDE810
:10046000F08100BF000C0140840100204FF4805057
:1004700000F076B9704710B590F82110022911D11B
:100480000168D0E90F230C6824F00E040C600C689E
:1004900024F001040C60012180F821109940516082
:1004A000002102E0042181630121002280F8202044
:1004B000084610BD10B590F8211002291BD1026822
:1004C000664B11689A4221F00E011160116821F00B
:1004D00001011160604912D0614B9A4211D0614B09
:1004E0009A4210D0604B9A4210D0604B9A4210D181
:1004F0004FF4803315E004218163012010BD0123F6
:100500000FE010230DE04FF480730AE04FF48053A6
:1005100007E001F168044FF08073A24208BF4FF476
:1005200080130B604FF480710184416B01B18847E7
:10053000002010BD90F821007047000070B50168E0
:10054000D0E90F2314680D686E071DD504269E4060
:10055000264019D00A68920603D40A6822F00402E1
:100560000A603E4B3C4A994256D03D4B994242D09C
:100570003C4B994241D03C4B994241D03B4B994234
:1005800041D14FF4802348E0AE0720D502269E409B
:1005900026401CD00A68920606D4012280F8212049
:1005A0000A6822F00A020A602C4B2B4A994237D083
:1005B0002B4B994236D02B4B994235D02A4B99423E
:1005C00035D02A4B994235D14FF400333AE02D070C
:1005D00041D508259D402C403DD00C6824F00E04E8
:1005E0000C60012101FA03F353604FF4807202841E
:1005F0008163016B2BE040230FE04FF480630CE03C
:100600004FF4804309E002F168044FF08063A14297
:1006100008BF4FF4800300E004231360C16A16E0B2
:1006200002230FE020230DE04FF400730AE04FF4A3
:10063000005307E002F168044FF00073A14208BFC5
:100640004FF40013002180F820101360816A11B16B
:10065000BDE87040084770BD040002400800024039
:100660001C0002403000024044000240580002409A
:1006700048B32DE9F041D0E9001E00F1100CD0E99B
:10068000028443F6F0739CE8E0100A689A434FF442
:10069000807342EA0E0242EA080222432A433243AE
:1006A0003A4342EA0C020A600384094B074A1944A0
:1006B0001423B1FBF3F18900C0E90F21002181630C
:1006C000BDE8F04100E0012108467047000002400B
:1006D000F8FFFDBFB0B5044690F8200001281DD0FA
:1006E000012084F8200094F82100012813D1002073
:1006F000A063022084F821002068056825F0010528
:1007000005602046FFF716FE2068E26A01683AB1EC
:1007100041F00E010AE0002084F820000220B0BD64
:1007200021F004010160016841F00A0101600168E3
:1007300041F0010101600020B0BD0000B0B50446E9
:1007400000F0F0F805469448611C007818BF044496
:1007500000F0E8F8401BA042FAD3B0BD704700009B
:1007600003490A68024208BF70470860FFF7F6BFF6
:10077000140401402DE9FC4F594A04234FF0000BAB
:100780004FF001084FF00F0E4FF000090025904286
:1007900008BF032300930B6833FA05F208BFBDE8D6
:1007A000FC8F08FA05F2134200F095804F68032F82
:1007B00016D9112F24D0122F26D04C4B9F4213D084
:1007C0004B4B9F4210D04B4B9F420DD04A4B9F4208
:1007D0000AD04A4B9F4207D0494B9F4204D020E0A9
:1007E000DFE807F00216191D8B6833B1012B14BF27
:1007F000426102614FF0080913E04FF0040910E074
:10080000CB6803F104090CE0CB6803F10C0908E0A4
:10081000D1F80C9005E0CB6803F1080901E04FF036
:1008200000095B460646082D28BF203B28BF04363A
:1008300037680EFA03F409FA03F327EA04042343A2
:100840003360CB79DB0646D5624C264E0BF00C0CA0
:100850002368A6F57E7643F001032360236803F046
:10086000010301930EFA0CF3019CAC0856F82470B6
:1008700027EA030A234B984208D0234B984207D01B
:10088000224B9842009B08BF022302E0002300E0B5
:10089000012303FA0CF343EA0A0346F82430114C0F
:1008A0004F68FB03236854BF934313432360BB0388
:1008B000636854BF934313436360FB02A36854BF50
:1008C00093431343A360084CBB02236854BF23EA3D
:1008D00002021A4322600BF1040B01355BE700BFF3
:1008E00000140140000401400C04014000001110FC
:1008F0000000121000002110000022100000311032
:100900000000321000080140000C014000100140BE
:100910008068084018BF01207047002A08BF0904FA
:100920000161704705480068704700BF1A480349D5
:1009300000780A6810440860704700BFC8050020AE
:1009400080B58E48016841F010010160032000F07D
:100950006FF8002000F004F800F020F8002080BDBF
:1009600070B50D4E04464FF47A713078B1FBF0F05B
:100970008F490968B1FBF0F000F0A2FC01250F2CB3
:1009800008D838B94FF0FF3021460022002500F08A
:1009900033F87460284670BD3000002082B00D48E6
:1009A0000222016841F001010160016801F00101CA
:1009B00001910199416841F080514160406800F027
:1009C0008050009000980448016862F31A61016049
:1009D00002B070471810024004000140002808D4FB
:1009E00000F01F010122400902FA01F1014A42F818
:1009F0002010704700E100E070B5134B4FF0FF3559
:100A00001B68C3F30223DC1E83F0070338BF0024F6
:100A1000042B28BF042305FA04F605FA03F3B243B6
:100A20009943A1401143BDE8704001F021BF00BFD0
:100A300005494FF6FF030A681A4060F30A2203488B
:100A400010430860704700BF0CED00E00000FA059D
:100A50002DE9F84300286AD08846484904460868CA
:100A600000F0070040450AD2086820F0070040EA7D
:100A700008000860086800F00700404557D120686A
:100A80005A4B8946810711D5410703D5196841F4AE
:100A9000E0611960010703D5196841F460511960DC
:100AA000A1681A6822F0F00211431960C00737D11B
:100AB000D9F8000000F0070040450DD9D9F8000032
:100AC00020F0070040EA0800C9F80000D9F800004B
:100AD00000F0070040452AD12068410705D5E168AC
:100AE0001A6822F4E06211431960000706D52069F4
:100AF000196821F4605141EAC00018601C4600F0FA
:100B00005BF821681E4AC1F30311515CC8402849B3
:100B100008601C480068FFF723FF0020BDE8F88349
:100B20006068012806D153F8041C89030BD4012006
:100B3000BDE8F88353F8041C022802D18901F6D5D8
:100B400001E08907F3D519681D4621F00301084328
:100B50001860FFF7E7FE064641F2883760682968AB
:100B60002B4601F00C01B1EB800FA1D0FFF7DAFEAC
:100B7000801BB842F2D90320BDE8F8830020024070
:100B80008848000834000020EB481849094A0068EA
:100B90000968C1F30221515CC8407047E648134917
:100BA000044A00680968C1F3C221515CC84070471B
:100BB000380000209848000810B50C490C480A6815
:100BC00002F00C03082B07D1C2F3834309A4D2031C
:100BD000E35C02D40C48584310BD096809A258438D
:100BE000C1F34041515CB0FBF1F010BD0410024074
:100BF00000127A0002030405060708090A0B0C0D0F
:100C00000E0F10100102000000093D002DE9FC410B
:100C1000002800F0A68004460078C54EC00725D005
:100C2000706800F00C0004281AD0706800F00C0006
:100C3000082802D17068C00312D46068002800F050
:100C40000C81B0F5803F07D03168B0F5A02F40F09F
:100C5000388141F480203060306840F4803036E1E3
:100C60003068800302D5606800287AD02078800739
:100C700018D5706810F00C0F07D0706800F00C00E9
:100C8000082824D17068C00321D43068800702D5B9
:100C90002069012865D16069316821F0F80141EAD5
:100CA000C00030602078000741D5A06910B3A1488A
:100CB0000121C0F88014FFF735FE0546706A8007F1
:100CC00028D4FFF72FFE401B0228F7D90CE1216939
:100CD0009848002900F09A8001210160FFF722FE68
:100CE000054630688007D6D4FFF71CFE401B02285B
:100CF000F7D9F9E08F480021C0F88014FFF712FE01
:100D00000546706A800712D5FFF70CFE401B0228CB
:100D1000F7D9E9E088484FF4FA510068B0FBF1F0E8
:100D2000019000BF0198411E00280191F9D120785F
:100D3000400719D4E7698FB1706800F00C000828EB
:100D400045D1012F0DD0216A706800F480328A42AB
:100D500007D1616A00F47010884202D10020BDE81A
:100D6000FC810120BDE8FC81F069C0000BD4F06972
:100D70004FF0010840F08050F061F06900F08050C1
:100D80000090009801E04FF000086C4F3868C005F3
:100D90000FD4386840F480703860FFF7C3FD054613
:100DA0003868C00505D4FFF7BDFD401B6428F7D99E
:100DB0009AE0E068D0B3012805D0316A052862D1F5
:100DC00041F004003062306A40F0010061E05949AE
:100DD000002088460866FFF7A5FD0546022F0BD1C7
:100DE00047463068800140F18280FFF79BFD411B40
:100DF00003200229F5D9B2E730688001AED5FFF7AC
:100E000091FD411B03200229F6D9A8E700210160CA
:100E1000FFF788FD0546306880077FF543AFFFF791
:100E200081FD411B03200229F5D998E7306A20F0A3
:100E300001003062306A20F004003062FFF772FD7A
:100E4000054641F28837306A800731D5FFF76AFDE1
:100E5000411B0320B942F6D981E7306820F4803085
:100E60003060306820F480203060FFF75BFD05467D
:100E7000306880037FF5FAAEFFF754FD411B032075
:100E80006429F5D96BE721F001003062306A20F067
:100E900004003062FFF746FD054641F28837306AAC
:100EA000800705D4FFF73EFD401BB842F7D91BE091
:100EB000B8F1000F3FF43EAFF06920F08050F061D0
:100EC00038E721F480303060306820F480203060D2
:100ED000FFF728FD0546306880033FF5C7AEFFF7F2
:100EE00021FD401B6428F6D90320BDE8FC81206A5F
:100EF000B0F5803F05D1A168726822F40032114339
:100F00007160616A0843716821F47411084370606C
:100F100001203866FFF706FD0446306880013FF582
:100F20001DAFFFF7FFFC011B03200229F5D916E7CF
:100F300000100240000042423800002000700040D3
:100F4000B0B50446806C40B1FFF795FA28B1606DEA
:100F5000012540F01000606500E00025E06C38B12C
:100F6000FFF789FA20B1606D012540F0100060653F
:100F70002068416821F003014160012084F851009C
:100F80002846B0BD7047F8B5A0B30024054684627A
:100F900090F8510000284FF0000005D1284685F850
:100FA000504000F02BF8A86A022185F8511095E80E
:100FB0004E001A430F68324327F040070F602B6939
:100FC0001A436B691A43AB6903F400763243EE6946
:100FD00032432E6A324310430860042000EA134073
:100FE0004860C86920F40060C86101206C6585F81C
:100FF000510000E001242046F8BD0000F0B585B0A6
:10100000002604461F48CDE90366CDE90166226843
:1010100000F520518A4232D11B490A6842F48052BD
:101020000A600A6802F480520092009A0A6842F04C
:1010300004020A60096801F004010091032104918F
:1010400002210291A0210191009901A9FFF792FBD1
:101050000E4D0F4F10234FF4405020218022C5E940
:101060000073C5E90262C5E90466C5E906102846B1
:10107000FFF7FEFA08B1FFF7FDF96C62A56405B051
:10108000F0BD00BF00080140181002402C040020F1
:1010900030000240F8B5044690F85000012804BF23
:1010A0000220F8BD012084F8500094F85100012876
:1010B0002DD1012061B35AB30320002384F85100DD
:1010C0006365E286A2862163A363C4E91033A38724
:1010D000E387A0682268B0F5004F03D1106840F4A0
:1010E00080401060A06C154D164F154E0C32C0E9B3
:1010F0000A75C0E90C63E38EFFF7ECFA60B1606D2E
:1011000040F010006065012084F8510000E00220EA
:10111000002184F85010F8BD20680168490603D406
:10112000016841F040010160416841F020014160E7
:10113000416841F0020141600020E9E7E51B000839
:10114000C71B0008EB1B0008F0B55A494A688242E9
:1011500000D0F0BD4A88322A03D9BDE8F040FFF73D
:10116000EFBEDFF854C102EB4203072600270CEB69
:10117000030E9EF80150082F0ED0F0B2CC190137A3
:10118000013E25FA00F0C0076FF0070008BF6FF0BE
:101190003F0084F82000EEE71CF803300724002508
:1011A000082D0ED0E6B248190135013C23FA06F6A7
:1011B000F6076FF0070608BF6FF03F0680F828605B
:1011C000EEE79EF8020001F13003072465B2B5F1A5
:1011D000FF3F0CDDE5B2013C20FA05F5ED076FF0AD
:1011E000070508BF6FF03F0503F8015BEEE7501CF1
:1011F0004880F0BDF0B52F494A68824200D0F0BD6A
:101200000A7832B14A88322A0DD9BDE8F040FFF79A
:1012100097BE08200022202802D00A540130FAE7A5
:1012200001200870F0BDDFF890C002EB42030726F2
:1012300000270CEB030E9EF80150082F0DD0F0B2E2
:10124000CC19013E013725FA00F0C0076FF0070006
:1012500008BF6FF03F002072EFE71CF8033007244F
:101260000025082D0DD0E6B248190135013C23FABE
:1012700006F6F6076FF0070608BF6FF03F06067424
:10128000EFE79EF8020001F11803072465B2B5F1FB
:10129000FF3F0CDDE5B2013C20FA05F5ED076FF0EC
:1012A000070508BF6FF03F0503F8015BEEE7501C30
:1012B0004880F0BD28010020CC05002001F074BA60
:1012C000411E0020B0EB116F1CBF01207047044A83
:1012D000F023516003490B70072190601160704743
:1012E00010E000E023ED00E07047704710B590F883
:1012F0003C300222012B14D080F83D200368D1E954
:1013000000215C6824F0700422439C685A6024F039
:101310008002114300229960012180F83C2080F86E
:101320003D10104610BDB0B110B5044690F83D0018
:1013300028B9002084F83C00204600F00FF8022075
:10134000211D84F83D00206800F030FD012084F864
:101350003D00002010BD012070470000E0B500688E
:10136000B0F1804F18BF8CBD09480022016841F0E0
:10137000010101600221006800F001000190019864
:101380001C20FFF739FB1C20BDE88C40FFF726BB73
:101390001C100240B0B590F83C2004460220012AFF
:1013A00021D084F83D0001204FF6777584F83C0089
:1013B0002068024652F8083FAB4313600B682BB11C
:1013C000102B03D0202B18BF302B0DD1106820F02C
:1013D0007000184340F0070010600020012184F8DD
:1013E0003C0084F83D10B0BD402B17D0502B22D0CC
:1013F000602B2DD0B3F5005F37D0702BEDD1D1E944
:101400000103C968184340EA0120116821F47F41B3
:1014100008431060106840F07700DDE74B68CA6849
:10142000194600F0FBFC226852F8080F40F0470014
:1014300020F03000D0E74B68CA68194600F0EEFC97
:10144000226852F8080F40F0570020F02000C3E750
:101450004B68CA68194600F0F2FC226852F8080F7F
:1014600040F0670020F01000B6E7D1E90103C96839
:10147000184340EA0120116821F47F4108431060BD
:10148000106840F48040A7E7704710B50446006834
:101490000169890744BFC1685FEA817139D4016974
:1014A000490744BFC1685FEA41713ED40169090739
:1014B00044BFC1685FEA017144D40169C90644BFF1
:1014C000C1685FEAC16149D40169C9071CBFC1682D
:1014D0005FEAC1714FD10169090644BFC1685FEA83
:1014E000016150D40169490644BFC1685FEA4161A6
:1014F00051D40169890644BFC1685FEA816100D4A3
:1015000010BD6FF0200101612046BDE81040FFF7DB
:10151000ECBE6FF002010161012121778069800733
:1015200041D02046FFF7B0FF43E06FF004010161B6
:1015300002212177806910F4407F3ED02046FFF7DA
:10154000A3FF40E06FF00801016104212177C06929
:1015500080073CD02046FFF797FF3EE06FF0100178
:10156000016108212177C06910F4407F39D02046FD
:10157000FFF78AFF3BE06FF001010161204600F0B8
:101580003CF82068A7E76FF0800101612046FFF773
:10159000ABFE2068A6E76FF040010161204600F035
:1015A0002DF82068A5E7204600F025F8204600F039
:1015B00023F800202077206871E7204600F01BF810
:1015C000204600F019F80020207720686EE72046BA
:1015D00000F011F8204600F00FF800202077206876
:1015E0006BE7204600F007F8204600F005F80020E1
:1015F0002077206868E770477047704770477047EA
:1016000070B5044600680168C268456901F02F039F
:10161000202B07D112F0200304D02046BDE87040F3
:1016200000F009BD0B071EBF02F4907605F001051E
:1016300016EB050624D111400A060DD449066ED5D5
:10164000C16821F04001C160202084F839002046A3
:10165000BDE8704000F09EB994F8391021295ED1A0
:10166000A268216AB2F5805F50D10A886FF35F22C9
:1016700042602269002A14BF01310231216249E02F
:10168000CE0718BF12F4807603D0E66B46F0010651
:10169000E6634E0704D51DB1E66B46F00206E6632D
:1016A0008E0704D51DB1E66B46F00406E663002BF9
:1016B00004D51DB1E36B43F00803E363E36B73B33D
:1016C0001140890603D5204600F0B5FC206840692A
:1016D000E16B00F0400001F0080140182ED02046D8
:1016E00000F09CFC20684169490619D5416921F048
:1016F00040014161606B98B113494163FEF7DAFE26
:1017000068B1606B416BBDE8704008474A1C2262BB
:1017100009784160E18C0139E184090405D070BD8C
:101720002046BDE87040FFF76ABFC16821F0800124
:10173000C160C16841F04001C16070BD2046FFF743
:101740005EFF0020E06370BD1120000850B310B5AB
:10175000044690F8390028B9002084F83800204663
:1017600000F022F8242084F839002068C16821F4B0
:101770000051C160204600F099FC2068016921F405
:1017800090410161416921F02A014161C16841F440
:101790000051C16000202021E06384F8391084F8F2
:1017A0003A1010BD0120704770B586B00026F5498B
:1017B000CDE90466CDE902660068884234D04B4921
:1017C00088425BD0E149884240F08D80A448484C73
:1017D00002AD016841F480410160016801F480417B
:1017E00001910199016841F00401016029460068F6
:1017F00000F00400019003200590022003904FF4B4
:101800000070029001982046FEF7B4FF00202946A0
:10181000CDE903004FF4806002902046FEF7AAFF56
:1018200025242520002158E08D48314C02AD416827
:1018300041F400314160416801F4003101910199A6
:10184000016841F0040101602946006800F00400CD
:10185000019003200590022003900420029001983B
:101860002046FEF787FF0820CDE90366294602904F
:101870002046FEF77FFF262426202DE0784802AD83
:10188000416841F480214160416801F48021019167
:101890000199016841F0080101602946006800F0E3
:1018A0000800019003200590022003904FF480600F
:1018B000029001980E4800F580642046FEF75AFF1A
:1018C00000202946CDE903004FF400600290204635
:1018D000FEF750FF2724272003210022FFF78CF872
:1018E0002046FFF77BF806B070BD00BF00480040FF
:1018F00000080140B0B5034690F83A00202806D110
:101900000120E9B1E2B193F83800012801D10220A9
:10191000B0BD00202224DA85D86383F83A401C68E1
:10192000E56845F48075E560656945F00105656128
:101930009A85996283F83800E16841F02001E160FE
:10194000B0BD000010B500688049884200D010BDCD
:101950000E4841880A04FAD402784B0404D40D2AB4
:1019600009D141F4804104E00A2A14BF002141F466
:101970000041418010BD064C4B1C6FF39F316254F7
:1019800099B2C72988BF0023438010BD8801002079
:101990000E0300207047FEE7E0B50A480022016808
:1019A00041F0010101600121006800F00100019097
:1019B00001980D20FFF720F80D20BDE88C40FFF7BF
:1019C0000DB800BF141002402DE9FF412448254CFA
:1019D000002201264FF00008016841F0200101605B
:1019E000016801F0200100910099016841F00401B3
:1019F0000160016801F0040100910099016841F063
:101A0000080101600121006800F0080000900098C2
:101A10002046FEF782FF02206D46134FCDE902807B
:101A200020462946CDE90066B84742F20400CDE9D8
:101A30000186294600902046B8470C482946029660
:101A400001904FF4805000902046B8472820002194
:101A50000022FEF7D1FF2820FEF7C0FFBDE8FF817E
:101A600018100240000C014075070008000021100A
:101A7000B0B50E4800210E4B0A244FF482724FF489
:101A80000075C0E90811C0E90A141024C0E9003249
:101A9000C0E90211C0E90411C0E90654FFF773FA66
:101AA00018B1BDE8B040FEF7E5BCB0BD7004002041
:101AB0000030014010B586B0BB4880214FF4FA7267
:101AC00041F2BF234FF0804481610021C0E900430F
:101AD000C0E90212CDE904110161CDE90211CDE99D
:101AE0000011FFF720FC08B1FEF7C4FC4FF4805052
:101AF00002A90290AC48FFF74DFC08B1FEF7BAFC12
:101B000000206946CDE90000A748FFF7EFFB08B1C8
:101B1000FEF7B0FC06B010BD10B50B480B4C4FF4EF
:101B2000E13300210C22C0E90043C0E90211C0E901
:101B30000412C0E90611FFF709FE18B1BDE8104014
:101B4000FEF798BC10BD00BF08050020003801401A
:101B500010B50B480B4C4FF4E13300210C22C0E9C7
:101B60000043C0E90211C0E90412C0E90611FFF701
:101B7000EDFD18B1BDE81040FEF77CBC10BD00BF04
:101B8000480500200044004010B50B480B4C4FF4B2
:101B9000165300210C22C0E90043C0E90211C0E93C
:101BA0000412C0E90611FFF7D1FD18B1BDE81040DD
:101BB000FEF760BC10BD00BF880500200048004053
:101BC000FEE770477047406A01684A6822F00302E6
:101BD0004A60416D41F010014165012180F85110CA
:101BE000FFF7D0B9406AFFF705BBBCB5446A0546AC
:101BF000FEF798FE024628680068800627D4206811
:101C0000416821F020014160416821F002014160FA
:101C10002046642100F020F818B1606D40F02000EB
:101C20006065A06838B9002001902068C168019102
:101C30008068019001980020E086012084F851001E
:101C4000606D20B12046BDE8BC40FFF79BB920463F
:101C5000BDE8BC40FFF778BA10B513460A468021AC
:101C6000044600F009F828B1606D40F0200060657E
:101C7000032010BD002010BD2DE9F0419846164606
:101C80000F460446551C206880683840B84230D161
:101C9000002DF8D0FEF746FEA0EB0800B042F2D3CC
:101CA000D4E900014268B1F5827F22F0E00242608F
:101CB0000AD1A168B1F5004F02D0B1F5806F03D110
:101CC000016821F040010160A16AB1F5005F07D110
:101CD000016821F400510160016841F40051016084
:101CE000002084F85000012084F851000320BDE852
:101CF000F0810020BDE8F081704780B5FEF716FE48
:101D0000BDE88040FFF7DABAB0B590B000244FF4D8
:101D100080100225CDE90B44CDE909440F904FF422
:101D200080300D950E90CDE90704012006900A90B1
:101D300006A8FEF76BFF4FF4806005940121049024
:101D40000F20CDE90254019001A8FEF781FE10B0EA
:101D5000B0BD00000E480F4A016841F0010101606A
:101D6000416811400C4A41600168114001600168FE
:101D700021F480210160416821F4FE0141604FF4AB
:101D80001F01816005484FF000610160704700BF8E
:101D9000001002400000FFF8FFFFF6FE08ED00E033
:101DA0000148FFF772BB00BFC804002070B503688C
:101DB000174AB0F1804F07D0164CA04204D0904291
:101DC00002D0154CA04203D14C6823F0700323438A
:101DD000B0F1804F07D00F4CA04204D0904202D007
:101DE0000D4CA04203D1CC6823F4407323434E69C9
:101DF00023F080030C688D68904243EA0603036079
:101E0000C562846201D1096911630121416170BD1C
:101E1000002C0140000400400008004010B5036A97
:101E2000046A24F001040462846924F0F00444EAA2
:101E30000212826123F00A021143016210BD036A9B
:101E400023F010030362836923F4704343EA0232F0
:101E5000036A826123F0A00242EA01110162704725
:101E600010B50D2800F2B680DFE800F00717402714
:101E7000464D515A2D25632F38755C4802F094FB6E
:101E80000020002100F036FC002000210022002369
:101E900000F000FC002000F06FFC0020002100F0AA
:101EA00029FC50489623027C8189002000F0F2FB37
:101EB000002000F061FC4C4826E0494C0529A16057
:101EC0005FDA002060E049481EE0464C6069A0F1FE
:101ED0000A011528B8BF0A21616131E0404CA068B1
:101EE000BE28A8BFBE200A30A0603CE03D4C0A29B5
:101EF00061615ADA0A205BE00020B1F1FF3F6BDD3F
:101F000000F0D6FA39E03A4802F04EFB62E00020D9
:101F1000002100F0EFFB002000210022002317E049
:101F20000020002100F0E6FB2E489623027C8189E8
:101F30000DE02C4C6069AA28A8BFAA200A30606175
:101F40000020002100F0D6FB227C237DA189002007
:101F500000F0A0FB11E0224CA068A0F10A011528B6
:101F6000B8BF0021A1600020002100F0C3FB217850
:101F70002279237A002000F0ADFB002000F0FCFB6A
:101F800028E0C92901DBC820A0600020002100F062
:101F9000B1FB21782279237A002000F09BFB0020FE
:101FA00000F0EAFBA16813A012E0AB2901DBAA2034
:101FB00060610020002100F09DFB227C237DA1892F
:101FC000002000F067FB002000F0D6FB61690EA046
:101FD00002F0EAFA002010BD00F092FACDE700BF4F
:101FE000100000208C010020A4490008A14900082D
:101FF000A0490008312C3235352C3235352C25647A
:102000002C31303000000000342C25642C000000FE
:10201000406A0021C185C184FFF7F1BA0168CA682E
:1020200022F49072CA604A6922F001024A612021BA
:1020300080F83A10704790F83A10222923D181682D
:10204000B1F5805F0ED102680369816A5268002B86
:1020500019BFD2B221F8012B6FF35F2221F8022BB6
:1020600081620BE0026901684968002A826A02F114
:102070000103836218BF01F07F011170C18D013926
:10208000C185090400D070470168CA6822F02002A7
:10209000CA60CA6822F48072CA604A6922F00102EA
:1020A0004A61202180F83A10FFF74CBCB0B50446D5
:1020B000006804F108030ECB056925F44055194367
:1020C0002A4341F20C650261C2686369AA4319435D
:1020D0001143C1604169A26921F44071114341611A
:1020E0001149884202D0FEF74FFD01E0FEF756FD90
:1020F00019214843D4E900126FF063049200B0FB49
:10210000F2F06422B0FBF2F303FB0400322404EB90
:102110000010B0FBF2F000F0F00200F00F0002EB54
:10212000031210448860B0BD0038014010B5144857
:102130000068006880061ED51248026812480188AF
:102140000B0418D4D3B24C0404D40D2B09D141F4A0
:10215000804104E00A2B0CBF41F4004100210180C2
:1021600009E00A4C4B1C6FF39F31625499B2C729A6
:1021700088BF002303800648BDE81040FFF740BA3F
:10218000C4010020043801408A0100200E03002011
:10219000080500200148FFF733BA00BF48050020BA
:1021A00010B514480068006880061ED51248026801
:1021B000124801880B0418D4D3B24C0404D40D2B5C
:1021C00009D141F4804104E00A2B0CBF41F40041E5
:1021D0000021018009E00A4C4B1C6FF39F316254CF
:1021E00099B2C72988BF002303800648BDE8104084
:1021F000FFF706BA04020020044800400C03002048
:102200004402002088050020FEE70000F8B5D04C0D
:102210006078A17808431ED0002501260027A088F9
:10222000874212D2A068415961B92844017AC9078E
:1022300008D0E770406B8047A0682844C16801312E
:10224000C160267038350137E9E7207818B100F011
:10225000CDFA00202070F8BDF0B5DDE905EC0029CD
:1022600035D03C24B0F5B37F88BF40F26710B0FB97
:10227000F4F6C6EB0615042EA0EB850505FB01F070
:1022800080B2B0FBF4F0C0F1FF0002FB00F000EB05
:1022900010604FEA202781F0FF0002FB00F04FEAB8
:1022A000102018D8C5F13B05694389B2B1FBF4F1A0
:1022B000C1F1FF01514301EB11610912DFE806F0A2
:1022C000030E13181C001A708EF8001009E01A7023
:1022D0008EF8002013E01A703A460EE01F708EF858
:1022E000002002460BE018708EF800200A4606E037
:1022F00018708EF8007002E019708EF800008CF8EB
:102300000020F0BD2DE9FE4F8246013880B2312811
:1023100000F2858050463821FDF728FF0028029002
:102320007DD0DFF8209FD9F80800002800F09C80BD
:102330003321029D4FF0000806464FF0000BB1FB21
:10234000FAF10191B9F804305446534538BF1C46A0
:10235000A04567D2C8EBC80450F83430029900EBAE
:10236000C40E41F8343001EBC4030199A3F804B062
:102370008B44ABF10107DF80BFB2322F22BF00EBED
:10238000C4073121F9809EF80840197A93F80AC0F1
:1023900004F0010401F0FE01214419729EF80910B5
:1023A00059720CF0FE019EF80A4004F00104214429
:1023B0009972DEE90314C3E903140024BEF8141073
:1023C0009982032C11D006EB840205EB84019269FB
:1023D0008A6104EB440101346A18314491F8267093
:1023E00082F82670898C9184EBE79EF82D103835A1
:1023F000383608F1010883F82D10BEF82E10D98563
:1024000093F830109EF8304001F0FE0104F0010412
:10241000214483F83010DEF83410596392E701202C
:10242000BDE8FE8F534515D2029ACAEBCA0102EBF2
:10243000C101002201F82F2C1C4A21F834BC21F8DC
:10244000242C312221F8322C11F8302C02F0FE021B
:1024500001F8302CA9F804A002F074F90298C9F828
:1024600008000020BDE8FE8F02993324002248F6C0
:10247000B803A9F804A0B4FBFAF51431BAF1000FBF
:10248000EAD011F80C4C21F8102C2A440B80AAF148
:10249000010A04F0FE0401F80C4C541EA6B2312EC1
:1024A00028BF312421F80E4C3831E7E7B888FFFF08
:1024B00010B5C4498A8882429CBF012010BD8A6839
:1024C000C0EBC000002302EBC000C0E90333447A34
:1024D00001344472E4B23A2C05D3CC78C4EBC40482
:1024E00002EBC4046372C978C1EBC10102EBC10104
:1024F000974A497A52F821104163002010BD00BF6D
:1025000010B5B0498A8882429CBF012010BD8A68FC
:10251000C0EBC000002302EBC000C0E90333437AE4
:10252000013B43721B0606D1CB783A24C3EBC303AD
:1025300002EBC3035C72C978C1EBC10102EBC101BC
:10254000834A497A52F821104163002010BD00BF30
:1025500060010020F0B50D46069C8842059E88BFAC
:1025600005469542D8BF154625700C46884238BFAF
:1025700004469442A8BF14462C1BA4B2A4B1012D5A
:1025800012DB4FF0640C854204FB0CF7B7FBF5F748
:10259000C7EB0727B7FBFCF7377008D1881A00FB99
:1025A0000CF090FBF4F013E0002030701CE08D4242
:1025B00007D1101A6421484390FBF4F000F5347001
:1025C00006E0401A6421484390FBF4F000F5B46043
:1025D000C0EB001064228104081411F5C60F90FBB3
:1025E000F2F0B8BF00F5B4701880F0BD2DE9F843E3
:1025F000DFF8888FB8F8042082429CBF0120BDE834
:10260000F8830A0A0B0C0027C0EBC004CEB25FFAB5
:1026100083F9D5B2D8F80800BAB200EBC4018888B3
:10262000C988091A914208DB384449462A4633468C
:1026300000B200F00FF90137ECE70020BDE8F883A5
:102640002DE9F843E64F0E46B98881429CBF012030
:10265000BDE8F883984691460024C0EBC005F978A0
:10266000B868C1EBC10100EBC1018A88C988891A29
:10267000A2B291420BDB00EBC50031464A4643460D
:102680008088204400B200F0E5F80134E7E700203C
:10269000BDE8F883FEB5D24E044600EB40001D466F
:1026A000371807F10E0007F10D03CDE90030084699
:1026B000114607F10C032A46FFF7CEFD797B387BE4
:1026C000BA7B090241EA004006EB840110448861AC
:1026D000FEBD00BFB0B5C24D00EB40042C4405EB7D
:1026E0008000627312022173A37342EA014119440C
:1026F0008161B0BDB0B5BA4A938883429CBF0120C6
:10270000B0BD134BC0EBC004906853F8213000EB10
:10271000C40500206B63C5E903006972916801EB91
:10272000C401032812D002EB800401EB8003A469EA
:102730009C6100EB40030130CC1813441D7B84F8EE
:102740002450B3F80D30A4F82530EAE70020B0BDDE
:102750003C000020EB4A938883429CBF01207047D5
:102760000A2998BF0A219268C0EBC00002EBC000A2
:1027700081820020704700BF10B5E24A0146012067
:1027800093888B420FD99368C1EBC101002443F8B1
:10279000314003EBC101C1E903440B7A43F001036B
:1027A0000B725070002010BDD6498888896838B1F6
:1027B0000A6812B10A68013A0A6038310138F6E74E
:1027C000704700BF60010020284900EB40000A5C10
:1027D000084441788078090241EA02410844704780
:1027E000224870470D494860704700BF10B50B4C38
:1027F0000020082120706080382902D06054013107
:10280000FAE7606804F108013022FEF743FC6068D3
:10281000806CFDF78FFE0128F9D110BD2801002042
:1028200082B2312A08D8114B00EB40000A0C1A542E
:1028300018448170090A4170704700BF80B2312886
:1028400006D80A4A00EB400011521044090C81706E
:10285000704700BF10B584B2312C06D8034C00EB92
:102860004000215420448370427010BDCC050020EC
:1028700010B5074C00F00F03044AB0F1FF3F2344AA
:10288000C8BF83180801187010BD00BF00E400E045
:1028900014ED00E070B5EE4D1446EA78AB68C2EB7B
:1028A000C20603EBC603DB68DB0708BF0146104620
:1028B000FFF79CFEE978A868C1EBC10100EBC102FB
:1028C000137BDB0705D1002C12BF1422928A520819
:1028D00006E0938A002C4FEA530218BFA3F11402BA
:1028E00040F8312070BD00BF2DE9F047D84E90462A
:1028F00084468946F278B068C2EBC20200EBC2059A
:10290000A888EA88131A5C1C2B8A5F1C97FBF4F1D9
:1029100001FB147A0AF1010191FBF4F707FB14148F
:10292000A97AC90719D11844614600B2FFF778FFA8
:10293000F178B068C1EBC10100EBC1004946808865
:10294000504400B2FFF76CFFF178B068C1EBC101F1
:1029500000EBC1008088204419E0D01A614600B223
:10296000FFF75EFFF178B068C1EBC10100EBC10079
:102970004946C088A0EB0A0000B2FFF751FFF1788A
:10298000B068C1EBC10100EBC100C088001B00B200
:102990004146FFF745FFF178B068BAF1000FC1EB8F
:1029A000C10100EBC10090F8301001F0FE0208BF39
:1029B00041F0010280F83020F178B068C1EBC1012C
:1029C00000EBC102938A40F83130322110690130A6
:1029D000B0FBF1F303FB11001061BDE8F08700BF0D
:1029E0006001002062B3FF2A04BF0846704770B53B
:1029F000CBB2C4B282F0FF05534305FB0433C1F3ED
:102A00000724C0F30726544305FB064424F0FF04C3
:102A100044EA1323C1F30744090EC0F30746000E2E
:102A20005443514305FB0644064E05FB001006EADD
:102A3000042420F0FF00234343EA0040BDE8704037
:102A4000704700BF0000FF01AB2809D380F0FF00F2
:102A50004FF47F0200EB4001A0EB8000000417E080
:102A600056280AD36FF05501FF22081AC1B2A1EB14
:102A7000810001EB410109020AE0C0F155004FF469
:102A80007F42C1B2A1EB810001EB410100020904C8
:102A90001044084370470000F8B5B34C0346E5788E
:102AA000A068C5EBC50500EBC506B088F58836699A
:102AB0002F1A0137BE4202D22AB1A81B04E0F31B31
:102AC0002AB1E81A04E0304400B2194601E0184483
:102AD00000B2FFF7A5FEE178A068C1EBC10100EBF1
:102AE000C102938A40F831309088D188081A0221B7
:102AF00001EB400011690131B1FBF0F303FB101051
:102B00001061F8BD600100202DE9F84FDFF8788FE3
:102B100098F80310D8F80800C1EBC10200EBC2021C
:102B20009688D269C2F3072A5FFA82F9C2F3074B8B
:102B3000C9B2C1EBC10100EBC100B1B2C088814292
:102B400088BFBDE8F88F34B22046FFF73DFEC0F3E2
:102B50000741BBEB01010B464FEA510248BF4B4214
:102B6000032BA8BF02EBD101C0F30722BAEB02028C
:102B700001EB104115464FEA5203C9B248BF554216
:102B8000032DA8BF03EBD202C3B2B9EB030302EBE0
:102B900010221F464FEA5305D2B248BF5F42032FAF
:102BA000A8BF05EBD3031844C3B22046FFF752FE7B
:102BB00098F80310D8F808000136B9E72DE9F04776
:102BC000DFF8B08F98F80320D8F80810C2EBC203E2
:102BD00001EBC3039C69C4F3072A5FFA84F95546E5
:102BE000CA4538BF4D46C4F30747AF42A8BF3D466C
:102BF00095FBF0F09D88C4B2D0B2AEB2C0EBC0007D
:102C000001EBC002D3889E421CD8FDF78BFA90FBE3
:102C1000F4F101FB1400391AAAEB0002A9EB000041
:102C200021EAE17122EAE27220EAE070C3B2C9B29D
:102C3000D2B228B2FFF70EFE98F80320D8F8081099
:102C40000135D9E7928A41F83020BDE8F08700BF0E
:102C5000600100202DE9F0410446FFF755FFFFF722
:102C6000BFFDF64DEA78A968C2EBC20201EBC202D1
:102C7000D188928802EB420201EB4101033289B212
:102C800092B28A420ED28618835C16F8037CF678DC
:102C900003EB970303EB9603FF2B28BFFF2383541B
:102CA0000132EEE7A87800264FF00A0800284ED03F
:102CB000E978A868C1EBC10200EBC2029788D2880C
:102CC000D31BB2B2132BA6BF013393FBF8F301233E
:102CD000934240DDFDF726FAEA78A968C2EBC2020A
:102CE00001EBC2018A88C988891A013190FBF1F28F
:102CF00002FB11002146384400B2FFF791FD013676
:102D0000D6E7FDF70FFA90FBF8F101EB8101A0EB9C
:102D10004100D8B9E978A868C1EBC10100EBC10056
:102D20008788FDF7FFF9EA78A968C2EBC20201EBD8
:102D3000C2018A88C988891A013190FBF1F202FB2D
:102D400011002146384400B2FFF76AFD0136012E1A
:102D5000D7D9E978A868C1EBC10100EBC102928A1A
:102D600040F83120BDE8F0816001002003490A6885
:102D70005206FCD5C2B24A60704700BF0044004012
:102D800010B504460020002202F0FE0129290BD8CC
:102D9000FDF7C8F9C1B2611A48BF494281F0FF028C
:102DA000914238BF0A46EFE7C0B210BD8B4F642096
:102DB00000244FF0FF08C7E9038478613860FDF70D
:102DC000BFFDFEF7A1FFFEF7FFFDFEF7E5FDFEF7F5
:102DD0004FFEFEF7A1FEFEF76DFEFEF7B9FEFEF711
:102DE000D3FE7F4807F118010A22FEF783FD7D48D4
:102DF000FFF7F8FC0120FFF785FA00204CF2503174
:102E0000FFF7A8FC0020FF21FF22FF23FFF762FC51
:102E10003A7C3B7DB9890020FFF73CFC0020002173
:102E2000FFF768FC4FF4FA60FDF788FC0020FFF71D
:102E3000A3FC6D4801F0B8FBDFF8B091DFF8C0A14A
:102E40006B4D4FF0050BB9F80000800468D02846A0
:102E5000FDF79AF906462846C821FDF77CF9092EA8
:102E6000A9F800405CD8DFE806F00507090D0F114E
:102E7000182A40585F4851E0062000E00720CAF8B1
:102E80000C004DE0584849E05C4847E07869AA28C2
:102E9000A8BFAA200A30786106E07869A0F10A018B
:102EA0001528B8BF0A21796100200021FFF722FC14
:102EB0003A7C3B7DB9890020FFF7ECFB11E0002054
:102EC0000021FFF717FCB8F1BE0FA8BF4FF0BE08F6
:102ED0000020FF21FF2208F10A085FFA88F3FFF7BC
:102EE000F9FB0020FFF748FC1AE000200021FFF763
:102EF00001FCA8F10A06B8F1150F4FF000004FF0E1
:102F0000FF014FF0FF02B8BF0026F3B2FFF7E2FB6C
:102F10000020FFF731FCB04602E037A001F044FB8F
:102F2000FDF71CFA0138042828D8DFE800F0030A6E
:102F3000121B1E003868C11CF928C8BFFF21396068
:102F40001CE038680228DCBF002038600338386095
:102F500014E0DAF80C00411C0328C8BF0021CAF8AD
:102F60000C100BE0CAF80CB008E0DAF81000411CB5
:102F70000128CAF8101027DBCAF81040DAF8100050
:102F8000DAF81C1088420ED1DAF81800796881420C
:102F900009D1B868DAF80C10814204D1DAF81400CB
:102FA000396881420DD03968DAF80C00FEF758FF15
:102FB000DAE90301D7E90023CAE90523B860CAF8B2
:102FC0001C10FFF723F93EE729B10028D6D10120D4
:102FD000CAF80C00D2E7CAF80C40CFE78C010020F9
:102FE0008805002070040020A44900080C0300207C
:102FF00044020020A0490008352C0000A149000827
:1030000010000020F5488168C078C0EBC00001EBDB
:10301000C002183207CAFFF767BC00BF002001F0EA
:1030200061B90000ED4800228168C078C0EBC000A3
:1030300001EBC001D1E90601FFF72CBC60010020C3
:1030400010B5E6488168C078C0EBC00001EBC00451
:10305000207BFFF7F9FCE1690022BDE81040FFF793
:1030600019BC00BFF8B5F34CE078A168C0EBC00212
:1030700001EBC20140F2FF120B69FF2B88BFD31A8C
:103080000F2B02D140F2CA3517E01A2B01D22625A8
:1030900013E0332B01D224250FE04C2B01D21C2549
:1030A0000BE0652B01D2142507E07E2B01D20E2503
:1030B00003E00A25972B38BF0B2591F8242091F8BF
:1030C000256091F8267003FB02F103FB06F27B43B7
:1030D000C1F30721C2F30722C3F30723FFF7B0FAB6
:1030E000E178A068C1EBC10140F8315000EBC100AC
:1030F000016902314A08F82A88BF0F210161F8BD31
:10310000F54800228168C078C0EBC00001EBC00028
:1031100000218069FFF7E8BB80B5F6488168C07878
:10312000C0EBC00001EBC0008188C288511A4FF487
:103130008072013192FBF1F1D0E9032000FB012004
:10314000C0B2FFF781FC00210022BDE88040FFF7FC
:10315000CBBB00BFE7486FF07F428168C078C0EB0F
:10316000C00001EBC0006FF07F418069FFF7BCBB7E
:10317000F8B5E04CE178A068C1EBC10200EBC202F7
:103180009688D568C9B2B2B2C1EBC10100EBC100EB
:10319000C1888A4207D8816930B2FFF741FBE178E4
:1031A000A0680136EEE70922B5FBF2F202EBC2029B
:1031B000AA1A082A1DD2D20727D183880269807AE9
:1031C000CE1A551CC00706F10106B5FBF6F707FB42
:1031D00016551CD198186FF07F4100B2FFF720FB05
:1031E000E178A068C1EBC10100EBC10080882844F0
:1031F0001BE083880269C91A01320131B2FBF1F385
:1032000003FB11210161808A15E01E2013E0881A5A
:103210006FF07F4100B2FFF703FBE178A068C1EBDC
:10322000C10100EBC100C088401B00B26FF07F41BC
:10323000FFF7F6FA1420E278A168C2EBC20241F867
:103240003200F8BD600100202DE9F041E84C002675
:10325000E178A068C1EBC10200EBC202D2F80C8099
:10326000C9B2B3B2C1EBC10100EBC100014651F8D4
:10327000102F9A420DD9818890F82D008D19FFF7F3
:10328000E3FB014628B2FFF7CBFAE178A0680136EC
:10329000E6E78388C688571CF61A0136B7FBF6F5B1
:1032A00005FB16760925B8FBF5F505EBC505A8EB7A
:1032B0000507082F16D29D18F90723D128B26FF001
:1032C0007F41FFF7ADFAE178A068C1EBC10100EBE7
:1032D000C1006FF07F418088304400B2FFF7A0FA50
:1032E000142524E0858A0E600EBB90F82D00FFF7B0
:1032F00047FDE278A168C2EBC20201EBC20181F88E
:103300002D0014E090F82D00FFF79EFB014628B237
:10331000FFF786FAE178A068C1EBC10100EBC100BC
:1033200000218088304400B2FFF77AFA1E25E17848
:10333000A068C1EBC10140F83150BDE8F08100BF89
:1033400080B5F3488168C078C0EBC00001EBC000D5
:103350008188C288511A4FF48072013192FBF1F1D9
:10336000D0E9032000FB0120C0B2FFF76DFB6FF036
:103370007F416FF07F42BDE88040FFF7B5BA00BFE4
:10338000B0B5EE4832248168C078C0EBC00001EBD4
:10339000C0008188C288511AD0E903200131431C42
:1033A000B3FBF4F505FB14331B0293FBF1F39D18FB
:1033B0000B4B03EA002090FBF1F01044C0B2FFF782
:1033C00043FB0446E8B2FFF73FFB02466FF07F4045
:1033D0002146BDE8B040FFF787BA00BF600100207A
:1033E00000FFFF0010B5D54CE078A168C0EBC0022B
:1033F00001EBC202136963B992F82D00FFF7C0FC1C
:10340000E278A168C2EBC20201EBC20282F82D0091
:10341000E078C0EBC00001EBC00090F82D00FFF792
:1034200013FB6FF07F416FF07F42BDE81040FFF764
:103430005BBA00BF60010020F3488168C078C0EB30
:10344000C00001EBC00081696FF07F400A46FFF7C2
:103450004BBA00BF4FF47F006FF07F41002200F0B5
:10346000CBBF000070B5E84CE078A168C0EBC002AB
:1034700001EBC2029388D588EB1A15690133B5FBBD
:10348000F3F606FB135363B992F82D00FFF778FCAF
:10349000E278A168C2EBC20201EBC20282F82D0001
:1034A000E078C0EBC00001EBC00090F82D00FFF702
:1034B000CBFA01460122BDE87040FFF7EDBA00BF2C
:1034C000D14800228168C078C0EBC00001EBC00188
:1034D000D1E90601FFF7E0BA60010020CA480022E6
:1034E0008168C078C0EBC00001EBC000D0E90610D5
:1034F000FFF7D2BA6001002070B5F94CE078A168FE
:10350000C0EBC00201EBC2029388D588EB1A1569A3
:103510000133B5FBF3F606FB135363B992F82D00A4
:10352000FFF72EFCE278A168C2EBC20201EBC202F7
:1035300082F82D00E078C0EBC00001EBC00090F8ED
:103540002D00FFF781FA01460022FFF7A5FAE17886
:10355000A068C1EBC10100EBC102928A40F83120A2
:1035600070BD00BFDE4801228168C078C0EBC0009A
:1035700001EBC001D1E90601FFF78EBA600100201E
:10358000D74801228168C078C0EBC00001EBC000C1
:10359000D0E90610FFF780BA10B5FFF7B5FAD04CA6
:1035A000E178A068C1EBC10100EBC100817AC907D5
:1035B000018A07BF82880A44C288521A816910B200
:1035C000FFF72EF9E178A068C1EBC10100EBC10261
:1035D000938A40F831309088D188081A11690130F7
:1035E0000131B1FBF0F303FB1010106110BD00BFFF
:1035F00060010020F8B5BA4C4FF0FF36E178A068C2
:10360000C1EBC10200EBC20353F810CF33F80C5CDE
:1036100033F80A2C571B06EB4706B44584BF002637
:103620001E60CBB291B2AAB28A4210D2C3EBC301E0
:1036300000EBC100C16928B2FFF7F2F8E178A06899
:103640000135C1EBC10200EBC202D288E9E7C3EB4E
:10365000C30200EBC20290881569431A9169ED1804
:1036600048BF6D42284400B2FFF7DAF8E178A0685D
:10367000C1EBC10100EBC101C8888969401B00B2E0
:10368000FFF7CEF8E178A068C1EBC10100EBC10201
:10369000938A40F83130106901301061F8BD00BFE5
:1036A0002DE9F041DFF8FC8E98F80370D8F8086037
:1036B000C7EBC70006EBC0052A69D5E90601FF2A5A
:1036C000C8BFC2F1FF02D2B2FFF78CF9AD88044641
:1036D000F8B2ABB2C0EBC00106EBC100C2889342A6
:1036E00009D828B22146FFF79BF898F80370D8F85C
:1036F00008600135ECE7828A46F831200022016932
:103700000431B2EB512F18BF00210161BDE8F081F7
:10371000600100200320FFF751BA0120FFF74EBAE5
:103720000620FFF74BBA0000FC488168C078C0EB68
:10373000C00001EBC0008069FFF78CBA6001002077
:1037400080B5FCF7EFFCC0B2FFF77EF9BDE8804022
:10375000FFF780BA70B5F14CE178A068C1EBC10207
:1037600000EBC202D368B3B1C1EBC10100EBC101F0
:103770008888CA8D8969104400B2FFF751F8FCF7B8
:10378000D1FC052190FBF1F101EB8101401A14D02D
:10379000E178A0682FE09588C9B2AEB2C1EBC10252
:1037A00000EBC202D3889E42DED8916928B2FFF7AF
:1037B00037F8E178A0680135EEE7FCF7B3FCE27872
:1037C000A168C2EBC20201EBC2018A88CB889B1AB6
:1037D000013390FBF3F505FB1300C88510446FF02F
:1037E0007F4100B2FFF71CF8E178A0681423C1EB19
:1037F000C10240F83230C1EBC10100EBC102928A34
:1038000040F8312070BD00BF60010020014802492E
:1038100000F0D8BC800040000030FF002DE9F041EE
:10382000D44CE178A068C1EBC10200EBC2029588DC
:10383000C9B2AAB2C1EBC10100EBC100C1888A4282
:1038400007D8816928B2FEF7EBFFE178A06801355F
:10385000EEE7FCF767FC052190FBF1F101EB81013C
:10386000401A01282CDC00254FF00308E178A068FD
:10387000C1EBC10200EBC2039F88DB88DE1BABB249
:10388000052EA6BF013696FBF8F601269E421ADDEC
:10389000FCF748FCE278A168C2EBC20201EBC2016E
:1038A0008A88C988891A013190FBF1F202FB110064
:1038B0006FF07F41384400B2FEF7B2FF0135D5E723
:1038C000E178A06802E0142340F83230C1EBC10176
:1038D00000EBC102928A40F83120BDE8F08100BFC0
:1038E0006001002070B5ED4CE178A068C1EBC1012A
:1038F00000EBC100056981698088284400B2FEF7A9
:103900008FFFE178A068C1EBC10100EBC10188889D
:1039100089692844193000B2FEF782FFE178A06877
:10392000AAB2C1EBC10300EBC303DB8D934253D1B9
:10393000FCF7F8FB062190FBF1F101EB4101A0EB54
:10394000410028BBE178A068C1EBC10100EBC100D8
:1039500000218088284400B2FEF762FFE178A06869
:103960000222C1EBC10100EBC1008188C088401A6E
:103970002944013090FBF2F00844002100B2FEF728
:103980004FFFE178A068C822C1EBC10140F83120A7
:10399000FCF7C8FBE278A168C2EBC20201EBC201EE
:1039A0008A88CB889A1A0223013292FBF3F290FBA9
:1039B000F2F303FB1200C885FCF7B4FB4FF4FA6185
:1039C00090FBF1F202FB1100E17800F57A72A06839
:1039D000C1EBC10340F83320C1EBC10100EBC100D2
:1039E00000218088284400B2FEF71AFFE178A06821
:1039F0000222C1EBC10100EBC1008188C088401ADE
:103A00002944013090FBF2F00844002100B2FEF797
:103A100007FFE178A068C1EBC10100EBC1000146DE
:103A200051F8102FCB8B9A4202D20126012305E0D8
:103A30009A4206D94FF6FF734FF0FF3632441D44C9
:103A40000A6081698088284400B2FEF7E9FEE178C7
:103A5000A0680223C1EBC10100EBC1018888CA88BC
:103A60008969121A2844013292FBF3F2104400B221
:103A7000FEF7D6FEE178A068C1EBC10100EBC10200
:103A8000928A40F8312070BD6001002070B5FFF7C8
:103A90003BF8DD4CE178A068C1EBC10100EBC1004F
:103AA0008188C288867A531A06F001065D1C036974
:103AB000AB4204D2002E0CBFCA18D21A08E06D0027
:103AC0001EB1591B11448A1C02E0EA1A11448A1ED5
:103AD000816910B2FEF7A4FEE178A068C1EBC101D4
:103AE00000EBC10090F8301041F0010180F8301077
:103AF000E178A068C1EBC10100EBC102938A40F8F4
:103B000031309088D188081A116940000131B1FB29
:103B1000F0F303FB1010106170BD00BF60010020C6
:103B20004FF47F004FF47F4100F04CBB70B5E34C85
:103B3000E178A068C1EBC10200EBC2029588C9B26E
:103B4000AEB2C1EBC10100EBC102D3889E420CD8DA
:103B5000FCF7E8FAC0B2FEF777FF014628B2FEF79D
:103B60005FFEE178A0680135E9E7928A40F83120EC
:103B700070BD00BF600100202DE9F041FA4CE178F2
:103B8000A068C1EBC10200EBC2029588CAB2C2EBC9
:103B9000C20300EBC307ABB2FE88B34207D828B21A
:103BA0000021FEF73DFEE178A0680135EEE7BD8A11
:103BB0004FF0640C0223B5FBFCFE03EB4E083B699F
:103BC000434518D2DD0722D1BF88CAB2B1B2BBB219
:103BD0008B421ED8C2EBC20100EBC100816938B232
:103BE000FEF71EFEE178A0680137C1EBC10200EBD1
:103BF000C202D688E9E70A21B5FBF1F101EB8101A8
:103C0000C5EB410101FB0CF101F24C4107E032210F
:103C100005E0C2EBC20100EBC1010B691421C2EB4C
:103C2000C20289B2013340F8321048F0010100EBC2
:103C3000C200B3FBF1F404FB11310161BDE8F08176
:103C40002DE9F041DFF85C8998F80350D8F8086056
:103C5000C5EBC50006EBC007387CFEF7F5FEBF8854
:103C60000446E8B2BBB2C0EBC00106EBC100C2889B
:103C7000934209D838B22146FEF7D2FD98F8035096
:103C8000D8F808600137ECE7828A46F831200169EC
:103C90000131C9B20161BDE8F08100BF60010020BF
:103CA000F8B5F14D0024E878A968A7B2C0EBC002CE
:103CB00001EBC2008688C3889B1BBB420FDB591CEB
:103CC0003A02006992FBF1F10844C0B2FEF7BCFE73
:103CD0000146301900B2FEF7A3FD0134E3E7838A01
:103CE00041F8323001690131C9B20161F8BD00BF4C
:103CF000B0B5F74DE978A868C1EBC10100EBC10090
:103D000090F82D00FFF73CF8EA78A968C2EBC202F0
:103D100001EBC20282F82D00EC78C4EBC40001EB89
:103D2000C00090F82D00FEF78FFE01462046FEF7FA
:103D30005DFCE978A868C1EBC10100EBC102928A81
:103D400040F83120B0BD00BFF1488168C078C0EBB9
:103D5000C00001EBC0006FF07F41806900F032BA13
:103D60002DE9F84FDFF83CB800259BF80310DBF88D
:103D70000800C1EBC10200EBC2029269C2F307293D
:103D80005FFA82F8C2F3074AC9B2C1EBC10200EB85
:103D9000C206314651F8103F31F80C7C31F80A4C1C
:103DA000E41BAFB2BC4226DBD81900EB8000C0B2E6
:103DB00000F048FA9BF80320DBF80810C2EBC202BF
:103DC00001EBC2018A7AD20707BFC9884E1B8988D6
:103DD0004E190AFB00F109FB00F208FB00F0030A90
:103DE000090A120A30B2FEF735FD9BF80310DBF822
:103DF00008000135C8E7B48A40F83240581CC0B208
:103E00000860BDE8F88F00BF6001002070B5EA4D82
:103E1000E978A868C1EBC10200EBC2029388D2889E
:103E2000D41AC9B22204C1EBC10100EBC10014D005
:103E3000817AC90703D180880619701E02E0C08804
:103E4000061B701C00B2FEF7BFFC014630B2FEF745
:103E5000E7FCE978A868013CE3E70169F9B990F863
:103E60002D00FEF78DFFEA78A968C2EBC20201EBD4
:103E7000C20282F82D00E878C0EBC00001EBC00060
:103E8000827A811DD20708BF011D90F82D00B1F97B
:103E90000040FEF7D9FD01462046FEF7C1FCE97857
:103EA000A868C1EBC10100EBC102938A40F8313030
:103EB0001069B0FA80F04009106170BD6001002007
:103EC0004FF47F00FF2100F07DB90000F8B5DC4C15
:103ED0004FF0FF36E278A168C2EBC20001EBC003ED
:103EE00053F810CF33F80C5C33F80A0C471B06EB81
:103EF0004706B44584BF00261E6083B2AEB2D2B27C
:103F00009E4210D8C2EBC20001EBC000C16928B2CA
:103F1000FEF786FCE278A1680135C2EBC20001EB36
:103F2000C000C088E9E7C2EBC20201EBC2018A8887
:103F30000D69D31A5B1948BF5B428D7AC01AED0731
:103F400008BFD018896900B2FEF76AFCE178A06862
:103F5000C1EBC10100EBC102938A40F83130106916
:103F600001301061F8BD00BF60010020B0B5DC4D2C
:103F7000E978A868C1EBC10200EBC202D368C3B9FB
:103F8000D288144692B2A3B2934211D8FCF7CAF871
:103F9000C0B2FEF759FD014620B2FEF741FCE978B8
:103FA000A8680134C1EBC10200EBC202D288E9E784
:103FB000C9B2C1EBC10100EBC1008488FCF7B2F8C3
:103FC000EA78A968C2EBC20201EBC2018A88C988FB
:103FD000891A013190FBF1F202FB1100204404B276
:103FE000FCF7A0F8C0B2FEF72FFD01462046FEF711
:103FF00017FCE978A868C1EBC10100EBC102928A05
:1040000040F83120B0BD00BFB0B5B54CE178A06834
:10401000C1EBC10100EBC1018888CA8DC969104498
:1040200000B2FEF7FDFBFCF77DF8E278A168C2EB79
:10403000C20201EBC2018A88CB889B1A013390FB34
:10404000F3F505FB1300C8851044896900B2FEF73B
:10405000E7FBE178A068C1EBC10100EBC102928AE5
:1040600040F83120B0BD00BF60010020F8B5E14D3F
:10407000E978A868C1EBC10200EBC2029688C9B218
:10408000B7B2C1EBC10200EBC201CB889F420FD88F
:1040900091F82600898C41EA004004F07F410C1819
:1040A00030B22146FEF7CAFBE978A8680136E6E798
:1040B000898A40F83210F8BDF24801228168C07840
:1040C000C0EBC00001EBC001D1E90601FEF7E2BB85
:1040D0006001002010B5EB488168C078C0EBC000DB
:1040E00001EBC004207BFEF7AFFCE1690122BDE8D3
:1040F0001040FEF7CFBB00BFE2488168C078C0EB3C
:10410000C00001EBC001D1E9060100F0A1B800BF79
:104110006001002080B5DB488168C078C0EBC0003A
:1041200001EBC00108690130C0B20861FEF78CFCE8
:104130000021BDE8804000F08BB800BFD148816805
:10414000C078C0EBC00001EBC002183207CA00F013
:1041500053B900BFF7488168C078C0EBC00001EBDD
:10416000C001D1E9060100F08FB900BFF1488168B4
:10417000C078C0EBC00001EBC000806900F0DCB982
:1041800080B5FBF7CFFFC0B2FEF75EFCBDE8804014
:1041900000F0D2B980B5FBF7C5FFC0B2FEF754FC02
:1041A000E4498A68C978C1EBC10102EBC101C96960
:1041B000BDE8804000F068B960010020012000F0F7
:1041C00091B800002DE9F84FDFF8D8A38846814662
:1041D0004FF0000B9AF80300DAF808201FFA8BF66C
:1041E000C0EBC00502EBC5073C4654F8103F34F85D
:1041F0000C0C34F80A1CA1EB000CB44517DBBA7A9E
:1042000033449B0702F0010203D41AB9A1EB0B005F
:1042100001E01AB1584400B2494603E0A1EB0B009B
:10422000414600B2FEF7FCFA0BF1010BD2E7B88A67
:1042300042F83500581C00F003002060BDE8F88FFC
:10424000600100200149085C704700BFA0480008D9
:104250002DE9F84FDFF84CB3884681464FF0030A4A
:104260009BF80310DBF80800C1EBC10200EBC202AF
:10427000D368B3FBFAF404EB44041B1B0024D360A3
:10428000C9B2A7B2C1EBC10500EBC5039988DA88B2
:10429000561ABE421FDBB7FBFAF000EB40003D1A96
:1042A000987ADB6800F00100AB4202D120B1101B0C
:1042B00003E028B1101B04E0081900B2494602E0EF
:1042C000081900B24146FEF7ABFA9BF80310DBF881
:1042D00008000134D4E7998A40F83510BDE8F88F1A
:1042E000600100202DE9FF41AE4F054603AB0DF103
:1042F0000D04F978B868C1EBC10100EBC10292F876
:10430000240092F8251092F82620CDE900430DF103
:104310000E03FEF71FF9FA78B968BDF80E000DF12B
:104320000A039DF80D40002D9DF80C80C2EBC202DF
:1043300001EBC2010DF10902097CCDE9003201BF98
:10434000A8EB0101CAB20DF10B0321461FBF611A90
:10435000C9B20DF10B034246FDF77EFFF8789DF8D8
:1043600009309DF80A209DF80B10FEF769F9F978DD
:10437000B868C1EBC10100EBC10010F8302F014655
:10438000D60751F8203D0FD195B1A34227BF42F087
:1043900001010170581C0860F978B868C1EBC101CF
:1043A00000EBC100818A1EE08BB1581E086011E04D
:1043B000434527BF42F001010170581C0860F9789D
:1043C000B868C1EBC10100EBC100818A0AE002F0CC
:1043D000FE010170F978B868C1EBC10100EBC100C2
:1043E000818A05B94446B1FBF4F149080160BDE892
:1043F000FF8100BF600100202DE9F84FDFF8A4B174
:10440000894690460623824600259BF80310DBF878
:1044100008C0C1EBC1020CEBC2021269B2FBF3F39C
:1044200003EB4303A2EB4304C9B2A8B2C1EBC10240
:104430000CEBC2018E88CB889F1B87421ADB897ADE
:104440007019C90708BF581BA1B200B2052988BF5F
:104450000024A2B24146042A38BF4946022A38BF86
:104460005146FEF7DDF99BF80310DBF808C0013474
:104470000135D9E7888A4CF83200086901300861B3
:10448000BDE8F88F60010020F8B5464E0D460446A1
:10449000F278B168C2EBC20001EBC00003690BBB4C
:1044A0008788D0B2C0EBC00001EBC000B9B2C088B1
:1044B000814207D838B22946FEF7B2F9F278B168DE
:1044C0000137EEE7FBF72EFEC517F278B16800EB77
:1044D000157525F00F05C2EBC203401B01EBC303AA
:1044E0000A301861C2EBC20001EBC0008588FBF7FF
:1044F00019FEF278B168C2EBC20201EBC2018A88F0
:10450000C988891A013190FBF1F202FB11002146A2
:10451000284400B2FEF784F9F178B068C1EBC1011C
:1045200000EBC102938A40F8313010690138106104
:10453000F8BD00BF6001002070B50446FEF7E4FA44
:10454000FBF7F0FD032190FBF1F101EB4101401A73
:104550001CD1144DE978A868C1EBC10100EBC10082
:104560008688FBF7DFFDEA78A968C2EBC20201EB9F
:10457000C2018A88C988891A013190FBF1F202FBD5
:1045800011002146304400B2FEF74AF9054881681F
:10459000C078C0EBC00001EBC002928A41F8302025
:1045A00070BD00BF600100200FB4054B10B503A91A
:1045B000044A029800F01CF810BC5DF814FB0000DF
:1045C0006D2D0008D8030020004870470C00002023
:1045D00002E008C8121F08C1002AFAD170477047CC
:1045E000002001E001C1121F002AFBD1704700002A
:1045F0002DE9FF4F89B09B460446002506E025289B
:104600000BD05A460B999047641C6D1C20780028EB
:10461000F5D10DB02846BDE8F08F0027B84601223D
:10462000474900E0074314F8013F203B02FA03F03A
:104630000842F7D120782E2819D114F8010F47F03D
:1046400004072A280ED06FF02F022078A0F1300145
:1046500009290CD808EB880102EB410100EB0108A5
:10466000641CF2E70A98641C50F8048B0A902078C6
:104670000028CED0642808D0692806D075281ED01E
:104680005A460B9990476D1C58E00A994FF00A0959
:1046900001C90A91002802DA40422D2102E03905C1
:1046A00004D52B218DF82010012103E0F90704D057
:1046B0002021F7E78A4608AE0DE00021FAE70A99C3
:1046C0004FF00A0901C90A91F7E74946FBF769FD6E
:1046D000303106F8011D0028F7D1ADEB060000F1DE
:1046E0002009780701D44FF00108C84502DDA8EB86
:1046F000090000E000208046002706E008A85A468E
:10470000C05D0B9990476D1C7F1C5745F6DB04E09C
:1047100030205A460B9990476D1CB8F10001A8F162
:104720000108F5DC05E016F8010B5A460B99904795
:104730006D1CB9F10001A9F10109F4DC641C65E705
:104740000928010010B5002821D0114B0022001FBC
:10475000196803E0814203D80A4649680029F9D163
:1047600052B11368841A9C4204D100681844106046
:10477000104602E0506000E0186039B102680B1A80
:10478000934203D10B681A4402604968416010BD2E
:1047900004000020F0B50B30154D20F00701002477
:1047A000144A0FE003688B420BD38B4205D95E1A83
:1047B00043184768C3E9006700E04368136002C01C
:1047C00004E0021D10680028ECD12046002802D128
:1047D000286808B10020F0BD064A07481060074A63
:1047E000121A22F00702C0E9002401202860D7E74E
:1047F00008000020040000206C060020680800204B
:1048000000404040404040404040414141414140E3
:104810004040404040404040404040404040404098
:104820004005020202020202020202020202020227
:10483000022020202020202020202002020202022C
:104840000202909090909090101010101010101084
:104850001010101010101010101010100202020290
:1048600002028888888888880808080808080808D4
:1048700008080808080808080808080802020202D0
:104880004000000001480008000000000000000097
:1048900001020304060708090000000001020304E6
:1048A000808386898C8F9295989B9EA2A5A7AAAD9E
:1048B000B0B3B6B9BCBEC1C4C6C9CBCED0D3D5D7B0
:1048C000DADCDEE0E2E4E6E8EAEBEDEEF0F1F3F468
:1048D000F5F6F8F9FAFAFBFCFDFDFEFEFEFFFFFF20
:1048E000FFFFFFFFFEFEFEFDFDFCFBFAFAF9F8F606
:1048F000F5F4F3F1F0EEEDEBEAE8E6E4E2E0DEDC1D
:10490000DAD7D5D3D0CECBC9C6C4C1BEBCB9B6B335
:10491000B0ADAAA7A5A29E9B9895928F8C898683FD
:10492000807C797673706D6A6764615D5A58555200
:104930004F4C494643413E3B393634312F2C2A28CF
:104940002523211F1D1B1917151412110F0E0C0BF7
:104950000A0907060505040302020101010000001F
:104960000000000001010102020304050506070919
:104970000A0B0C0E0F1112141517191B1D1F2123E2
:1049800025282A2C2F313436393B3E414346494CA9
:104990004F5255585A5D6164676A6D707376797CC1
:1049A00031302C00322C0000C849000800000020E3
:1049B00028010000D0450008F04A00082801002026
:1049C000400B0000E045000800000000000000006F
:1049D0000000000000000000FF000000FF000000D9
:1049E000FF000000020000000100000002000000C3
:1049F00001000000010000000100000010000000A4
:104A00000024F4006D400008BD4100081D3000087E
:104A10002530000841300008B9400008D5400008A2
:104A200065300008C1340008DD3400086535000831
:104A300081350008F934000865340008F13C0008AD
:104A40006D3F00082D3B0008413C0008A13C0008D8
:104A5000A1360008CD3E0008F5350008F9400008F1
:104A600015410008613D00085541000895410008C6
:104A70006D410008814100080940000855370008D1
:104A80001D380008793B000839340008553100080A
:104A9000E53300084133000871310008493200084D
:104AA000813300080131000819310008493D000830
:104AB000C13E00080D3E00088D3A000899350008F7
:104AC0002937000841370008213B00081537000846
:104AD000213700081B370008553400080D3800083E
:104AE000053000083D410008E538000800000000DE
:04000005080000ED02
:00000001FF
