:020000040800F2
:10000000A80F002035020008E12A0008E32A0008B2
:10001000E72A0008EB2A0008EF2A00080000000089
:10002000000000000000000000000000F32A0008AB
:10003000F52A000800000000F72A0008F92A000845
:100040004F0200084F0200084F0200084F0200084C
:100050004F0200084F0200084F0200084F0200083C
:100060004F0200084F0200084F0200084F0200082C
:100070004F0200084F0200084F0200084F0200081C
:100080004F0200084F0200084F0200084F0200080C
:100090004F0200084F0200084F0200084F020008FC
:1000A0004F0200084F0200084F0200084F020008EC
:1000B0004F0200084F0200084F0200084F020008DC
:1000C0004F0200084F0200084F0200084F020008CC
:1000D0004F020008D32C00084F0200084B2E0008E6
:1000E0004F0200084F0200084F02000800F002F81B
:1000F00000F090F80AA090E8000C82448344AAF132
:100100000107DA4501D100F085F8AFF2090EBAE82F
:100110000F0013F0010F18BFFB1A43F0010318473B
:10012000184D0000384D0000103A24BF78C878C13F
:10013000FAD8520724BF30C830C144BF04680C60ED
:10014000704700000023002400250026103A28BF35
:1001500078C1FBD8520728BF30C148BF0B60704739
:100160006E2903F0BD82702903F02F84662904F004
:10017000DF85652904F0DC85672904F0D9856129CC
:1001800004F0D88503681B0A28BF41F08001692963
:1001900003F06A82642903F06782752903F06482A0
:1001A0006F2903F0BC83782903F0FB83E92903F06E
:1001B0005783E42903F05483F52903F05183EF2991
:1001C00003F0B983F82903F0FA830368DB0928BF39
:1001D00041F08001632903F0C682732903F0CB82CA
:1001E000E32904F03380F32904F0388000207047BD
:1001F0001FB504F089F804000020002104F082FDFE
:10020000401C60600020002104F066FDE0601FBD1E
:1002100010B510BD04F04AF81146FFF7E9FF02F0EF
:1002200056FC04F027F903B4FFF7F2FF03BC02F019
:10023000CDFC00000948804709480047FEE7FEE77B
:10024000FEE7FEE7FEE7FEE7FEE7FEE7FEE7FEE786
:1002500004480549054A064B70470000530300084F
:10026000ED000008A8090020A80F0020A80B00201E
:10027000A80B00200CB50020019000906C4800688D
:1002800040F480306A49086000BF6948006800F4A3
:10029000003000900198401C0190009818B9019816
:1002A000B0F5A06FF1D16248006800F4003010B1E1
:1002B0000120009001E0002000900098012843D127
:1002C0005C48006840F010005A4908600846006821
:1002D00020F0030008600846006840F00200086053
:1002E000534840685249486008464068486008469C
:1002F000406840F4806048600846406820F47C1004
:1003000048600846406840F4E810486008460068C5
:1003100040F08070086000BF4548006800F0007041
:100320000028F9D04248406820F003004049486066
:100330000846406840F00200486000BF3C48406802
:1003400000F00C000828F9D10CBD10B5FFF792FFA2
:1003500010BD10B53648006840F00100344908600F
:1003600008464068344908403149486008460068FA
:10037000324908402E4908600846006820F4802071
:1003800008600846406820F4FE0048604FF41F00F3
:100390008860FFF7DAFF4FF000602949086010BD60
:1003A00010B5002100200022214B5B6803F00C01F6
:1003B00021B1042906D0082928D107E0214B224C7D
:1003C000236027E01F4B204C236023E0184B5B6821
:1003D00003F47010164B5B6803F48032022303EBC6
:1003E000904022B9194B4343174C23600DE0104B4A
:1003F0005B6803F4003323B1144B4343124C236076
:1004000003E0104B4343104C236003E00D4B0E4CB4
:10041000236000BF00BF064B5B68C3F303130C4CA3
:10042000E15C094B1B68CB40074C236010BD00000A
:1004300000100240002002400000FFF8FFFFF6FE1F
:1004400008ED00E000127A000000002000093D00E5
:100450000400002031490143314A1160704770B5F2
:10046000002100230F22C47804B32D4C246804F427
:10047000E064C4F5E064210AC1F10403CA40447891
:1004800004FA03F18478144021430901254C0678CD
:10049000A155047804F01F050124AC4005786D11C6
:1004A000AD0005F1E025C5F8004109E0047804F04D
:1004B0001F050124AC401C4D0678761145F82640F6
:1004C00070BD1A4A0A400243154B1B1F1A60704741
:1004D00039B1134A121D12680243114B1B1D1A60D9
:1004E00006E00F4A121D126882430D4B1B1D1A6055
:1004F0007047042808D14FF0E021096941F0040158
:100500004FF0E022116107E04FF0E021096921F08E
:1005100004014FF0E0221161704700000000FA056D
:100520000CED00E000E400E080E100E080FFFF1F50
:1005300010B50446CC48844208D10121042000F0C3
:100540002DFB0021042000F029FB46E0C74884422F
:1005500008D10121082000F021FB0021082000F033
:100560001DFB3AE0C248844208D10121102000F06E
:1005700015FB0021102000F011FB2EE0BD48844245
:1005800008D10121202000F009FB0021202000F0EB
:1005900005FB22E0B848844208D10121402000F048
:1005A000FDFA0021402000F0F9FA16E0B348844239
:1005B00008D10121802000F0F1FA0021802000F014
:1005C000EDFA0AE0AE48844207D10121801500F01F
:1005D000E5FA0021A01500F0E1FA10BD10B50121E7
:1005E000084600F0DBFA0021012000F0D7FA10BD28
:1005F0002DE9F041024600250026002000230024BA
:10060000002791F803C00CF00F0591F803C00CF01F
:10061000100CBCF1000F03D091F802C04CEA0505A4
:1006200091F800C0BCF1000F31D0146800202BE01D
:100630004FF0010C0CFA00F3B1F800C00CEA03060D
:100640009E4220D183004FF00F0C0CFA03F7BC43FD
:1006500005FA03FC4CEA040491F803C0BCF1280F2E
:1006600006D14FF0010C0CFA00FCC2F814C00AE0ED
:1006700091F803C0BCF1480F05D14FF0010C0CFA02
:1006800000FCC2F810C0401C0828D1D31460B1F897
:1006900000C0BCF1FF0F34DD546800202EE000F1F3
:1006A000080C4FF0010808FA0CF3B1F800C00CEA8E
:1006B00003069E4221D183004FF00F0C0CFA03F782
:1006C000BC4305FA03FC4CEA040491F803C0BCF1F6
:1006D000280F05D100F1080C08FA0CF8C2F81480B4
:1006E00091F803C0BCF1480F07D100F1080C4FF09E
:1006F000010808FA0CF8C2F81080401C0828CED374
:100700005460BDE8F0814FF6FF71018002218170D5
:100710000421C17070470246002093680B400BB162
:10072000012000E0002070470146886880B27047D1
:1007300002460020D3680B400BB1012000E00020EE
:1007400070470146C86880B27047016170474161D7
:1007500070470AB1016100E041617047C1607047B4
:100760004FF480320A4382618161826182698269C9
:10077000704702460020434B18684FF680731840BC
:1007800040EA021008433F4B186070473E49C86179
:100790007047F0B50A46002300240021002500F030
:1007A0000046B6F1004F02D1364EF16901E0354EF8
:1007B0007168C0F3034583B200F44016B6F5401FDC
:1007C00008D121F070612F4E766826F070662D4FAB
:1007D0007E6012E000F48016B6F5801F06D1032675
:1007E00006FA05F4A14341F0706106E0460D3601BA
:1007F00003FA06F6B14341F0706122B1460D3601AD
:1008000003FA06F6314300F00046B6F1004F02D17C
:100810001C4EF16101E01B4E7160F0BD30B500224D
:100820008B071C0F0F2303FA04F2164B08338C10AE
:1008300053F824309343134C08348D1044F825307A
:1008400023468C1053F824308C07240F00FA04F44C
:1008500023430C4C08348D1044F8253030BD0A4930
:10086000DC3108607047000000080140000C0140C6
:10087000001001400014014000180140001C01401C
:10088000002001400000014000002042DF480068D5
:1008900040F00100DD49086008464068DC49084036
:1008A000DA49486008460068DA490840D7490860D4
:1008B0000846006820F4802008600846406820F45C
:1008C000FE0048604FF41F0088607047CF490968F8
:1008D00021F48031CD4A11601146096821F480214C
:1008E0001160B0F5803F03D0B0F5802F0ED106E047
:1008F000C649096841F48031C44A116007E0C34920
:10090000096841F4A021C14A116000E000BF00BFA6
:10091000704710B501460022002300204A11012A29
:1009200002D1BA4C236806E0022A02D1B74C236AEE
:1009300001E0B64C636A01F01F02012494401C40A0
:100940000CB1012000E0002010BD38B5002000905F
:100950000024002500BF3120FFF7DBFF054600988B
:10096000401C00900098B0F5A06F01D0002DF2D08F
:100970003120FFF7CEFF08B1012400E0002420461B
:1009800038BD01460020A14A106820F0F80040EA76
:10099000C10010607047A0490860704702460020FF
:1009A0009A4B586820F47C1042EA01031843974B95
:1009B0005860704798490866704701460020934A7E
:1009C000506820F003000843506070478F4840682B
:1009D00000F00C007047014600208C4A506820F05F
:1009E000F00008435060704701460020874A506875
:1009F00020F4E06008435060704701460020834ABD
:100A0000506820F4605040EAC1005060704729B13E
:100A10007E4A527A02437D4B5A7204E07B4A527AF4
:100A200082437A4B5A7270477B49D83108607047CD
:100A300001460020754A506820F440400843506049
:100A400070470021714A20321170704A82F82010DC
:100A5000012802D004280AD104E001216B4A203287
:100A6000117005E00521694A2032117000E000BFD5
:100A700000BF70476949086070476449096A0143CB
:100A8000624A11627047654944390860704730B561
:100A900000210022002400235C4D6D6805F00C014C
:100AA00021B1042905D0082923D105E05C4D05605A
:100AB00022E05B4D05601FE0544D6D6805F4701237
:100AC000524D6D6805F48034022505EB92421CB945
:100AD000544D554305600BE04C4D6D6805F40035F1
:100AE0001DB1504D5543056002E04D4D5543056025
:100AF00002E04B4D056000BF00BF444D6D6805F03E
:100B0000F0010909484D6B5C0568DD4045603F4DCB
:100B10006D6805F4E061090A434D6B5C4568DD4092
:100B200085603A4D6D6805F46051C90A3E4D6B5CB5
:100B30004568DD40C560354D6D6805F44041890B61
:100B40003A4D6B5CC568B5FBF3F5056130BD29B165
:100B50002E4A526902432D4B5A6104E02B4A5269D6
:100B600082432A4B5A61704729B1284A926902434D
:100B7000264B9A6104E0254A92698243234B9A618D
:100B8000704729B1214AD2690243204BDA6104E05F
:100B90001E4AD26982431D4BDA61704729B11B4A54
:100BA000D2680243194BDA6004E0184AD2688243E3
:100BB000164BDA60704729B1144A12690243134B8D
:100BC0001A6104E0114A12698243104B1A6170479E
:100BD00012494039086070470F49C86470470B4993
:100BE000C87170470948406A40F080700749486200
:100BF000704701460020054A92680A400AB1012068
:100C000000E00020704701498872704700100240E0
:100C10000000FFF8FFFFF6FE00004242800442425F
:100C200000127A0000093D0014000020240000207A
:100C300010B50446FB48844209D101218803FFF71F
:100C4000ADFF00214FF48040FFF7A8FF32E0F648E7
:100C5000844209D101214804FFF7ADFF00214FF480
:100C60000030FFF7A8FF25E0F048844209D10121B8
:100C70008804FFF7A0FF00214FF48020FFF79BFFBF
:100C800018E0EB48844209D10121C804FFF793FF23
:100C900000214FF40020FFF78EFF0BE0E54884426F
:100CA00008D101210805FFF786FF00214FF48010CD
:100CB000FFF781FF10BD2DE9F04786B005460E46CF
:100CC0000024A24600BFA1460027B08900B100BFA2
:100CD0002F462C8A4CF6FF700440F08804432C8287
:100CE000AC894EF6F3100440B0883189084371890D
:100CF00008430443AC81AC8A4FF6FF400440B089FE
:100D00000443AC8201A8FFF7C2FEC648874202D165
:100D1000DDF810A001E0DDF80CA0A88900F4004087
:100D200040B10AEBCA0000EB0A1031684900B0FB81
:100D3000F1F807E00AEBCA0000EB0A1031688900FD
:100D4000B0FBF1F86420B8FBF0F004012009642145
:100D500001FB1089A88900F4004040B1322000EB6B
:100D6000C900B0FBF1F000F00700044308E03220B6
:100D700000EB09106421B0FBF1F000F00F00044318
:100D80002C8106B0BDE8F0874FF4165101600021B8
:100D90008180C18001810C214181002181817047C6
:100DA00010B502460020108A4FF2FF0318400B884E
:100DB0004C8823438C882343CC88234318431082D8
:100DC00010BD0021018041808180C180704721B128
:100DD000828942F40052828104E082894DF6FF73D9
:100DE0001A4082817047F0B5034600240026002592
:100DF000002040F66A17B94200D100BF1846C1F37F
:100E0000421401F01F06012707FA06F5012C01D153
:100E10000C3004E0022C01D1103000E014301AB183
:100E200007682F43076002E00768AF430760F0BD23
:100E30001AB1838A0B43838202E0838A8B438382C5
:100E40007047028A4FF6F0731A400282028A0A4300
:100E50000282704782894FF2FF731A408281828931
:100E60000A438281704721B1828942F00202828165
:100E700004E082894FF6FD731A4082817047028A2E
:100E80004FF6DF731A400282028A0A4302827047D9
:100E900021B1028A42F48042028204E0028A4BF6C7
:100EA000FF731A4002827047C1F3080282807047C4
:100EB00001468888C0F308007047818941F001012C
:100EC00081817047028BD2B20283028B42EA0122F7
:100ED00002837047028B02F47F420283028B0A4333
:100EE0000283704721B1828A42F02002828204E0AC
:100EF000828A4FF6DF731A408282704721B1828A5C
:100F000042F01002828204E0828A4FF6EF731A40A8
:100F10008282704721B1828A42F00802828204E014
:100F2000828A4FF6F7731A408282704721B1828914
:100F300042F40042828103E08289C2F30E02828180
:100F4000704721B1828A42F40062828204E0828A80
:100F50004FF2FF731A4082827047828A4FF6FB730A
:100F60001A408282828A0A438282704721B1828A31
:100F700042F00202828204E0828A4FF6FD731A4038
:100F80008282704702460020B1F5007F00D100BF89
:100F900013880B400BB1012000E00020704701F4E2
:100FA0000072B2F5007F00D100BFCA4302807047D3
:100FB00070B50246002400230025002040F66A1682
:100FC000B14200D100BFC1F3421501F01F03012659
:100FD00006FA03F3012D02D19689334006E0022D73
:100FE00002D1168A334001E0968A33400C12012662
:100FF00006FA04F41688344013B10CB1012000E065
:10100000002070BD10B50022002340F66A14A142F2
:1010100000D100BF0A1201249440A3B2DC43048033
:1010200010BD00000038014000440040004800406E
:10103000004C00400050004001460020FE4A10686D
:1010400000F03800084310607047FB49096821F040
:101050000801F94A1160114609680143116070479F
:10106000F549096821F01001F34A11601146096839
:10107000014311607047F148EF494860F04848600B
:101080007047EE48EC494860ED4848607047EA48D0
:10109000006940F08000E84908617047E64800694F
:1010A00040F08000E449086170470420E249C968C3
:1010B00001F0010109B101200EE0DF49C96801F02A
:1010C000040109B1022007E0DB49C96801F0100101
:1010D00009B1032000E00420704700B50246042354
:1010E000FFF7E3FF034603E0FFF7DFFF0346521E6F
:1010F000012B01D1002AF7D102B90523184600BD02
:1011000030B5044604254FF43020FFF7E6FF0546CE
:10111000042D17D1C848006940F00200C649086193
:1011200008464461006940F0400008614FF43020F7
:10113000FFF7D3FF0546C048006941F6FD7108403E
:10114000BD490861284630BD10B504244FF4302055
:10115000FFF7C3FF0446042C16D1B748006940F0DE
:101160000400B54908610846006940F04000086184
:101170004FF43020FFF7B1FF0446AF48006941F655
:10118000FB710840AC490861204610BD00B502461D
:101190000423FFF78AFF034603E0FFF786FF0346B9
:1011A000521E012B01D1002AF7D102B9052318469E
:1011B00000BD10B504244FF43020FFF7E7FF0446CC
:1011C000042C16D19C48006940F004009A4908613B
:1011D0000846006940F0400008614FF43020FFF7F6
:1011E000D5FF04469448006941F6FB7108409249D6
:1011F0000861204610BD00208F49C96901F0020135
:1012000009B1012000E00020704730B5A525042475
:10121000FFF7F1FF00B100254FF43020FFF75DFF2D
:101220000446042C3AD18548834988608448886004
:101230000846006940F0200008610846006940F057
:10124000400008614FF43020FFF747FF0446042CAC
:101250001BD17948006941F6DF7108407649086181
:101260000846006940F01000086176480580E002F9
:10127000FFF733FF0446052C10D06F48006941F694
:10128000EF7108406C49086108E0052C06D06A48F7
:10129000006941F6EF71084067490861204630BD9A
:1012A00078B506460C46042500200090E802FFF7BA
:1012B00014FF0546042D24D15F48006940F0010069
:1012C0005D4908613480E802FFF707FF0546042DF9
:1012D00010D1B01C0090200C00990880E802FFF7A4
:1012E000FCFE05465448006941F6FE71084052492B
:1012F000086106E05048006941F6FE7108404E4919
:101300000861284678BD70B504460D460426F002F3
:10131000FFF7E3FE0646042E11D14748006940F06E
:101320000100454908612580F002FFF7D6FE064618
:101330004148006941F6FE7108403F490861304666
:1013400070BD70B505460E460424E002FFF7C5FEE9
:101350000446042C17D139483749886038488860DA
:101360000846006940F0100008612E80E002FFF797
:10137000B4FE0446052C06D02F48006941F6EF71F3
:1013800008402D490861204670BD2DE9F043044610
:101390004FF6FF763746B046B1460425E443E6B241
:1013A000C4F30727C4F307484FEA1469E802FFF7BC
:1013B00094FE0546042D49D120481F4988602048E5
:1013C00088600846006940F010000861FF2E06D0D2
:1013D0001C4808300680E802FFF77FFE0546042D12
:1013E00008D1FF2F06D017480A300780E802FFF720
:1013F00074FE0546042D0AD1B8F1FF0F07D011483D
:101400000C30A0F80080E802FFF767FE0546042DC7
:101410000AD1B9F1FF0F07D00A480E30A0F80090AA
:10142000E802FFF75AFE0546052D0FD00248006975
:1014300041F6EF71084007E00020024023016745B4
:10144000AB89EFCD00F8FF1F664908612846BDE86B
:10145000F08330B5054604244FF43020FFF73DFEFD
:101460000446042C41D160485E4988605F4888602A
:101470000846006940F0200008610846006940F015
:10148000400008614FF43020FFF727FE0446042C8B
:1014900022D15448006941F6DF7108405149086182
:1014A0000846006940F0100008611DB10020504955
:1014B000088002E0A5204E4908804FF43020FFF755
:1014C0000CFE0446052C10D04648006941F6EF7129
:1014D00008404449086108E0052C06D041480069ED
:1014E00041F6DF7108403F490861204630BDF0B544
:1014F00005460E46174604243B483A4988603B4857
:101500008860E002FFF7E9FD0446042C19D1354854
:10151000006940F010003349086147F0F80030439B
:1015200028433349891C0880E002FFF7D6FD0446B2
:10153000052C06D02B48006941F6EF710840294977
:1015400008612046F0BD2748C069800870472548DB
:10155000006A704700202349096801F0200109B1A1
:10156000012000E00020704729B11E4A12690243A1
:101570001C4B1A6104E01B4A12698243194B1A6121
:10158000704701460020012908D1164AD26902F0AD
:1015900001020AB1012008E0002006E0114AD268E9
:1015A0000A400AB1012000E0002070470D49C860E0
:1015B000704704200B49C96801F0010109B10120FD
:1015C0000EE00849C96801F0040109B1022007E0F2
:1015D0000449C96801F0100109B1032000E00420AA
:1015E000704700000020024023016745AB89EFCD22
:1015F00000F8FF1F10B50446FA48844208D10121C3
:101600004015FFF7CBFA00216015FFF7C7FA17E086
:10161000F548844208D101210015FFF7BFFA0021E7
:101620002015FFF7BBFA0BE0F048844208D10121F6
:10163000C803FFF7B3FA00214FF40040FFF7AEFAFA
:1016400010BD30B50246002000235068E84C204011
:101650000D790C6844EA0524204350609068E54CFD
:101660002040D1E902542C434D7944EA45042043FB
:101670009060D06A20F470000C7C641EE4B22343B6
:1016800040EA0350D06230BD002101600171417118
:101690008160C16001210174704721B1826842F00C
:1016A0000102826003E0826822F0010282607047DA
:1016B00021B1826842F48072826003E0826822F481
:1016C00080728260704710B50023CBB21AB14468B3
:1016D0001C43446002E044689C43446010BD816840
:1016E00041F0080181607047014600208A6802F0DD
:1016F00008020AB1012000E000207047816841F033
:10170000040181607047014600208A6802F00402EB
:101710000AB1012000E00020704721B1826842F444
:10172000A002826003E0826822F4A0028260704717
:10173000014600208A6802F480020AB1012000E01C
:101740000020704710B50A4600210023416821F4AB
:101750006041531E41EA4331416010BD21B14268EE
:1017600042F40062426003E0426822F40062426098
:101770007047F0B504460D4600200021092D11DD0B
:10178000E068A5F10A0606EB4607072606FA07F108
:101790008843A5F10A0606EB460603FA06F108435C
:1017A000E0600CE0206905EB4507072606FA07F123
:1017B000884305EB450603FA06F108432061072A32
:1017C0000FDA606B561E06EB86071F2606FA07F136
:1017D0008843561E06EB860605FA06F10843606349
:1017E00022E00D2A0FDA206BD61F06EB86071F2694
:1017F00006FA07F18843D61F06EB860605FA06F1BE
:101800000843206310E0E06AA2F10D0606EB8607AC
:101810001F2606FA07F18843A2F10D0606EB86069D
:1018200005FA06F10843E062F0BD21B1826842F496
:101830008012826003E0826822F480128260704726
:101840000146C86C80B2704766484C3000687047EB
:1018500021B1426842F48062426003E0426822F4AF
:1018600080624260704721B1426842F48052426017
:1018700003E0426822F48052426070470A46002129
:10188000816821F4E04111438160704721B1826891
:1018900042F40042826003E0826822F400428260E7
:1018A000704721B1826842F40212826003E08268CC
:1018B00022F4021282607047014600208A6802F416
:1018C00000120AB1012000E000207047F0B5044684
:1018D0001546002000220026092911DDE068A1F14B
:1018E0000A0707EB470C072707FA0CF29043A1F110
:1018F0000A0707EB470703FA07F21043E0600CE022
:10190000206901EB410C072707FA0CF2904301EB29
:10191000410703FA07F210432061A06BC0F30156A0
:10192000EF1C06F1010CA7EB0C0707EB870C1F2738
:1019300007FA0CF29043EF1C06F1010CA7EB0C0721
:1019400007EB870701FA07F21043A063F0BD10B55B
:101950000A4600210023816B21F44011531E41EA05
:101960000351816310BD08B5002300930090009BD4
:101970000B440093009B1A6008BD08B50246002086
:101980000090009201F12800009B184400900098FC
:10199000006880B208BD0A4600214168164B194014
:1019A0001143416070474162826270470A460021DC
:1019B000416821F01F0111434160704740B109495E
:1019C0000831096841F40001064A0832116007E055
:1019D00004490831096821F40001024A0832116003
:1019E000704700000024014000280140003C0140F5
:1019F000FFFEF0FFFDF7F1FFFFFD3FFF0246002075
:101A000013680B400BB1012000E000207047CA436F
:101A10000260704770B502460020002300240B12BC
:101A20005568CEB205EA060415681D4015B10CB123
:101A3000012000E0002070BD00220A12D3430360A1
:101A40007047000001684FF6FE72114001600021EE
:101A5000016041608160C1608D49884208D18C4934
:101A60000839496841F00F01894A083A51608AE013
:101A700087491431884208D185490839496841F0BD
:101A8000F001834A083A51607DE08149283188425B
:101A900008D17F490839496841F470617C4A083AA5
:101AA000516070E07A493C31884208D17849083960
:101AB000496841F47041764A083A516063E07449DC
:101AC0005031884208D172490839496841F470217F
:101AD0006F4A083A516056E06D496431884208D136
:101AE0006B490839496841F47001694A083A516004
:101AF00049E067497831884208D165490839496821
:101B000041F07061624A083A51603CE061498842A4
:101B100006D1011F096841F00F01021F116032E078
:101B20005C491431884208D15A49091F096841F0BB
:101B3000F001584A121F116025E0564928318842A9
:101B400008D15449091F096841F47061514A121FB4
:101B5000116018E04F493C31884208D14D49091FB6
:101B6000096841F470414B4A121F11600BE049496A
:101B70005031884207D14749091F096841F4702153
:101B8000444A121F1160704710B50022026847F6E0
:101B9000F0739A430C6A8B6823430C6923434C69A6
:101BA00023438C692343CC6923434C6A23438C6AC7
:101BB00023431A430260CB6843600B6883604B6821
:101BC000C36010BD0021016041608160C16001619E
:101BD00041618161C161016241628162704721B1ED
:101BE000026842F00102026004E002684FF6FE73F0
:101BF0001A40026070471AB103680B43036002E0A9
:101C000003688B4303607047416070470146486832
:101C100080B2704701460020002201F080531BB1C2
:101C20001C4B083B1A6802E0194B083B1A6802EA91
:101C300001030BB1012000E00020704700F080514B
:101C400019B11449091F086002E0114908394860B8
:101C5000704701460020002201F080531BB10D4B5C
:101C6000083B1A6802E00A4B083B1A6802EA0103C3
:101C70000BB1012000E00020704700F0805119B145
:101C80000449091F086002E00149083948607047AB
:101C9000080002400804024010B50446FE48844291
:101CA00008D10121C014FEF779FF0021E014FEF7EE
:101CB00075FFC4E0B4F1804F08D101210846FEF75A
:101CC0007AFF00210120FEF776FFB8E0F348844256
:101CD00008D101210220FEF76EFF00210220FEF74D
:101CE0006AFFACE0EE48844208D101210420FEF7EF
:101CF00062FF00210420FEF75EFFA0E0E948844275
:101D000008D101210820FEF756FF00210820FEF728
:101D100052FF94E0E448844208D101211020FEF7EC
:101D20004AFF00211020FEF746FF88E0DF4884428A
:101D300008D101212020FEF73EFF00212020FEF7E0
:101D40003AFF7CE0DA48844208D101214014FEF7D2
:101D500025FF00216014FEF721FF70E0D548844282
:101D600009D10121C804FEF719FF00214FF400201A
:101D7000FEF714FF63E0D048844209D10121080531
:101D8000FEF70CFF00214FF48010FEF707FF56E02E
:101D9000CA48844209D101214805FEF7FFFE00210F
:101DA0004FF40010FEF7FAFE49E0C548844208D11E
:101DB00001214020FEF7FFFE00214020FEF7FBFE40
:101DC0003DE0C048844208D101218020FEF7F3FEA7
:101DD00000218020FEF7EFFE31E0BB48844208D1AD
:101DE00001218015FEF7E7FE0021A015FEF7E3FEB6
:101DF00025E0B648844209D101210804FEF7CEFE51
:101E000000214FF48030FEF7C9FE18E0B04884424C
:101E100009D101214804FEF7C1FE00214FF4003032
:101E2000FEF7BCFE0BE0AB48844208D101218804D8
:101E3000FEF7B4FE00214FF48020FEF7AFFE10BD88
:101E400000220288944B98420ED0994B98420BD0B6
:101E5000B0F1804F08D0914B984205D0904B9842FA
:101E600002D0904B984204D14FF68F731A404B88A2
:101E70001A438D4B984207D08C4B984204D04FF6B2
:101E8000FF431A40CB881A4302808B8883850B88D6
:101E90000385814B98420BD0854B984208D08B4BE1
:101EA000984205D08A4B984202D08A4B984201D181
:101EB0000B7A038601238382704770B500240022C9
:101EC0000023058C4FF6FE7635400584028C83880E
:101ED000048B4FF68F752C40B51E2C400D882C437B
:101EE000751E2A400D892A434D882A436A4DA8420F
:101EF0000BD06F4DA84208D0744DA84205D0744D48
:101F0000A84202D0734DA84213D14FF6F7752A406C
:101F10004D892A434FF6FB752A408D882A434FF698
:101F2000FF652B404FF6FF552B408D892B43CD8904
:101F30002B4383800483CD888586028470BD70B571
:101F4000002400220023058C4FF6EF7635400584EF
:101F5000028C8388048B48F6FF752C404FF6FF45B2
:101F60002C400D884FF6FF7606EA05252C434FF6E8
:101F7000DF752A400D8906EA05152A434D8806EAD1
:101F800005152A43444DA84202D0494DA8421DD10F
:101F90004FF67F752A404D894FF6FF7606EA051504
:101FA0002A434FF6BF752A408D8806EA05152A4355
:101FB0004FF6FF352B404FF2FF752B408D8906EA17
:101FC00085052B43CD8906EA85052B438380048351
:101FD000CD880587028470BD70B5002400220023DF
:101FE000058C4FF6FF6635400584028C8388848B10
:101FF0004FF68F752C404FF6FC752C400D882C4306
:102000004FF6FF552A400D894FF6FF7606EA052563
:102010002A434D8806EA05252A431F4DA84202D0CF
:10202000234DA8421DD14FF2FF752A404D894FF62E
:10203000FF7606EA05252A434FF6FF352A408D88AC
:1020400006EA05252A434EF6FF752B404DF6FF752F
:102050002B408D8906EA05152B43CD8906EA051527
:102060002B4383808483CD888587028470BD70B5BF
:10207000002200230024058C4EF6FF7635400584AF
:10208000038C8488828B48F6FF752A404FF6FF4503
:102090002A400D8820E00000002C01400004004090
:1020A00000080040000C00400010004000140040F8
:1020B00000340140004C01400050014000540140F8
:1020C00000180040001C004000200040004001407B
:1020D00000440140004801404FF6FF7606EA05251E
:1020E0002A434DF6FF752B400D8906EA05352B4333
:1020F0004D8806EA05352B43FA4DA84202D0FA4D29
:10210000A84208D14BF6FF752C408D894FF6FF761B
:1021100006EA85152C4384808283CD88A0F8405040
:10212000038470BD828B4FF2FF331A408283828B0F
:102130004FF6FF7303EA01231A4382837047F0B519
:102140000C461546002200210026078C4EF6FF7C27
:1021500007EA0C070784828B018C4FF6FF7707EAAA
:10216000043640F6FF473A404FF6FF7707EA052767
:102170003A434FF6FF7707EA03373A43D94FB8425D
:102180000ED0D94FB8420BD0B0F1804F08D0D74F06
:10219000B84205D0D64FB84202D0D64FB84206D189
:1021A0004DF6FF77394046F48057394305E047F64E
:1021B000FF57394044F48057394382830184F0BD8E
:1021C000828B4FF6F3731A408283828B0A43828399
:1021D0007047F0B50C461546002200210026078CFA
:1021E0004FF6FF6C07EA0C070784828B018C4FF6D1
:1021F000FF7707EA04264FF60C773A404FF6FF7751
:1022000007EA03172F433A43B64FB8420ED0B64FF2
:10221000B8420BD0B0F1804F08D0B44FB84205D0CF
:10222000B34FB84202D0B34FB84206D14FF6FF5772
:10223000394046F48077394305E04FF2FF57394083
:1022400044F48077394382830184F0BD028B4FF2DE
:10225000FF331A400283028B4FF6FF7303EA012318
:102260001A4302837047F0B50C4615460022002140
:102270000026078C4FF6EF7C07EA0C070784028BD9
:10228000018C4FF6FF7707EA041640F6FF473A4005
:102290004FF6FF7707EA03373A434FF6FF7707EA2F
:1022A00005273A438F4FB8420ED08F4FB8420BD01C
:1022B000B0F1804F08D08D4FB84205D08C4FB84256
:1022C00002D08C4FB84206D14FF6DF77394046F046
:1022D0001007394305E04FF65F77394044F01007A7
:1022E000394302830184F0BD028B4FF6F3731A4029
:1022F0000283028B0A4302837047F0B50C461546F1
:1023000000220021068C4FF6FE773E400684028BA9
:10231000018C4FF60C7632407E1C06EA03162E43E3
:102320003243704EB0420ED06F4EB0420BD0B0F17F
:10233000804F08D06D4EB04205D06D4EB04202D0F5
:102340006C4EB04206D14FF6FD76314044F00106A6
:10235000314305E04FF6F576314044F00106314354
:1023600002830184F0BD70B505460C465D48854288
:102370000ED05D4885420BD0B5F1804F08D05B4848
:10238000854205D05A48854202D05A48854200D13C
:1023900000E000BF208850B92389A28861882846C0
:1023A000FFF7ABFFE1882846FFF79EFF25E0208876
:1023B00004280AD12389A28861882846FFF753FFA1
:1023C000E1882846FFF742FF17E0208808280AD155
:1023D0002389A28861882846FFF7FBFEE18828460A
:1023E000FFF7EEFE09E02389A28861882846FFF7FF
:1023F000A6FEE1882846FFF795FE70BD2DE9F04165
:1024000005460C4600260127608808B9022600E030
:102410000026A088012801D1022700E0012720889A
:10242000A0B92389A28861882846FFF766FFE18862
:102430002846FFF759FF23893A4631462846FFF7D9
:1024400012FFE1882846FFF701FF13E02389A288E5
:1024500061882846FFF707FFE1882846FFF7F6FE68
:1024600023893A4631462846FFF747FFE188284648
:10247000FFF73AFFBDE8F0810A884B881A438B8842
:102480001A43CB881A430B891A434B891A438B8909
:102490001A43A0F8442070474FF6FF718180002155
:1024A0000180C1804180017270470021018041801C
:1024B0008180C180018141818181C181704700217A
:1024C00001804180012181800021C180018170470C
:1024D0000021018041808180C18001814181818111
:1024E00070470000002C014000340140000400400F
:1024F00000080040000C004021B1028842F00102B7
:10250000028004E002884FF6FE731A400280704792
:1025100031B1B0F8442042F40042A0F8442005E074
:10252000B0F84420C2F30E02A0F8442070471AB15C
:1025300083890B43838102E083898B4383817047C6
:102540008182704741EA0203A0F8483070471AB10F
:1025500083890B43838102E083898B4383817047A6
:1025600001894FF6F8721140018170470A46002137
:1025700001894FF68F73194011430181704730B5BF
:1025800004460D4629462046FFF7F0FF208940F01B
:102590000700208130BD2DE9F04104460D46164666
:1025A0001F46602D06D13B46012231462046FFF7EB
:1025B0005AFE05E03B46012231462046FFF79DFECC
:1025C00029462046FFF7D2FF208940F007002081EE
:1025D000BDE8F08130B50C4600210189C9B24FF643
:1025E000FF7505EA0325154325432943018130BDC5
:1025F0002DE9F04105460E4617469846002443460D
:102600003A4631462846FFF7E5FF2C894FF6F87029
:10261000044044F007044FF68F70044044F0700407
:102620002C81BDE8F081F0B504460D4616461F46E4
:102630003B46324629462046FFF7CCFF208940F42E
:1026400080402081F0BD0185828270470A460021CA
:1026500001884FF68F731940114301807047F0B520
:102660000C4615461E460021002200230189028BDC
:10267000038C4FF6F877394021434FF6FC473A4038
:1026800040F201173A434FF6DD773B404FF6FF77B4
:1026900007EA06172F433B43018102830384F0BD01
:1026A0000A460021018B4FF68F73194011430183B5
:1026B00070470A460021018B48F6FF7319404FF618
:1026C000FF7303EA02231943018370470A4600217E
:1026D000818B4FF68F7319401143818370470A46EF
:1026E0000021818B48F6FF7319404FF6FF7303EA10
:1026F000022319438183704721B1028842F080028E
:10270000028004E002884FF67F731A40028070470F
:1027100021B1828842F00402828004E082884FF670
:10272000FB731A408280704721B1828842F0080210
:10273000828004E082884FF6F7731A4082807047E7
:1027400021B1828842F00102828004E082884FF643
:10275000FE731A40828070470A460021018B4FF6B3
:10276000F77319401143018370470A460021018B1A
:102770004FF2FF7319404FF6FF7303EA0223194328
:10278000018370470A460021818B4FF6F773194089
:102790001143818370470A460021818B4FF2FF73FA
:1027A00019404FF6FF7303EA0223194381837047F0
:1027B0000A460021018B4FF6FB7319401143018338
:1027C00070470A460021018B4FF6FF3319404FF640
:1027D000FF7303EA02231943018370470A4600216D
:1027E000818B4FF6FB7319401143818370470A4672
:1027F0000021818B4FF6FF3319404FF6FF7303EA38
:1028000002231943818370470A460021018B4FF64A
:102810007F7319401143018370470A460021018BE1
:10282000C1F30E014FF6FF7303EA0223194301833C
:1028300070470A460021818B4FF67F731940114380
:10284000818370470A460021818BC1F30E014FF648
:10285000FF7303EA02231943818370470A4600216C
:10286000018C4FF6FD7319401143018470470A46ED
:102870000021018C4FF6F773194011430184704712
:102880000A460021018C4FF6DF7319404FF6FF73A3
:1028900003EA02131943018470470A460021018CA0
:1028A0004FF67F7319404FF6FF7303EA0213194383
:1028B000018470470A460021018C4FF6FF531940EE
:1028C0004FF6FF7303EA02231943018470470A4657
:1028D0000021018C4FF2FF7319404FF6FF7303EA9A
:1028E00002231943018470470A460021018C4DF6EA
:1028F000FF7319404FF6FF7303EA02331943018453
:10290000704730B5002301248C40A3B2048C9C4353
:102910000484048C02FA01F5ADB22C43048430BD6A
:1029200030B5002304248C40A3B2048C9C4304845F
:10293000048C02FA01F5ADB22C43048430BD70B5AD
:102940000346002000241846183001258D40ACB203
:102950001D8CA5431D8409B1082909D100EB610034
:10296000056825F0700505600568154305600EE0F3
:102970000D1FC5F34E052844056825F4E0450560A4
:1029800005684FF6FF7606EA02263543056070BDFE
:1029900021B1028842F00202028004E002884FF670
:1029A000FD731A400280704721B1028842F0040290
:1029B000028004E002884FF6FB731A4002807047E1
:1029C00021B1828842F08002828004E082884FF642
:1029D0007F731A408280704702884FF6F7731A405F
:1029E000028002880A430280704782884FF68F7304
:1029F0001A40828082880A438280704702894FF69B
:102A0000F8731A40028102890A43028170470289E1
:102A10004FF67F731A40028102890A430281704790
:102A20008184704781857047818670470187704730
:102A300081877047A0F84010704702884FF6FF4327
:102A40001A40028002880A43028070470146888E3D
:102A500070470146088F70470146888F70470146CE
:102A6000B1F8400070470146888C70470146088DD8
:102A7000704702460020138A0B400BB1012000E092
:102A800000207047CA430282704730B502460020DA
:102A900000230024158A05EA0103958905EA01044B
:102AA00013B10CB1012000E0002030BDCA43028206
:102AB000704710B54FF4FA7000F036F800F054F893
:102AC00000F00FFA00F064FA00F0AEFA10BD052233
:102AD000D5210C2000F01EFB01E000F06BFAFCE7B2
:102AE000704700BFFEE700BFFEE700BFFEE700BF84
:102AF000FEE7704770477047704700EBC001C900A0
:102B00004FF0E0225161002191610521116100BF68
:102B10004FF0E021096901F480310029F8D0042147
:102B20004FF0E0221161704700B5034603E04FF417
:102B30007A70FFF7E2FF181EA3F101018BB2F6D104
:102B400000BD10B5044603E04FF47A70FFF7ECFFC8
:102B5000201EA4F101018CB2F6D110BD10B54FF4C6
:102B6000A060FDF777FC10BD10B5FDF78FFE4FF4A8
:102B70008030FDF7ABFEFDF7E8FE0446012C24D1C2
:102B80004FF4E0110004FDF709FF0020FDF723FFDB
:102B9000A002FDF729FF0020FDF72FFF0220FEF71E
:102BA0004BFA1020FEF75CFA0120FDF703FF00BF8F
:102BB0003920FDF7AEFE0028FAD00220FDF7FDFE19
:102BC00000BFFDF703FF0828FBD110BD00BF704711
:102BD00000BF9E4A128802F04002002AF9D0C2B219
:102BE0009A4B1B1D1A8070470FB410B5B4B0002467
:102BF00037A80090C92101A8009B369A00F0C4FBB9
:102C00000EE02046621CD4B201AA115C8F48FEF788
:102C10004BF900BF40218D48FEF7B4F90028F9D0E8
:102C2000C82C04DA01A800F0C3FCA042E9D80020B7
:102C3000009034B010BC5DF814FB10B586B00446AB
:102C4000012144F20400FDF78FFF4FF40070ADF84E
:102C5000140003208DF8160018208DF8170005A920
:102C60007B48FDF7C5FC4FF48060ADF814000420EC
:102C70008DF8170005A97648FDF7BAFC25208DF8D8
:102C8000000003208DF801008DF8020001208DF86E
:102C900003006846FDF7E3FB01940020ADF808004F
:102CA000ADF80A00ADF80C00ADF810000C20ADF83E
:102CB0000E0001A96548FDF7FEFF012240F22551F3
:102CC0006248FEF790F801216048FEF780F806B0F0
:102CD00010BD10B540F225515C48FEF769F9002897
:102CE00038D05A48FEF7E4F8C4B2214659A000F0A3
:102CF00065FB5948008800F4004058BB56480088DE
:102D000000F4804060B10A2C03D0002052490880B2
:102D100020E05148008840F400404F49088019E005
:102D20000D2C06D14C48008840F480404A49088068
:102D300010E049480088C0F30D0048490C5446484B
:102D40000088401C4449088008460088C72801DDE7
:102D50000020088010BD0FB410B5B4B0002437A80F
:102D60000090C92101A8009B369A00F00DFB0EE0EF
:102D70002046621CD4B201AA115C3948FEF794F8CF
:102D800000BF40213648FEF7FDF80028F9D0C82CD6
:102D900004DA01A800F00CFCA042E9D80020009061
:102DA00034B010BC5DF814FB10B586B004460121A8
:102DB0000820FDF7D9FE01218804FDF7E2FE4FF45B
:102DC0000060ADF8140004208DF8170005A925480F
:102DD000FDF70EFC4FF48060ADF8140003208DF871
:102DE000160018208DF8170005A91E48FDF700FCF5
:102DF00001940020ADF80800ADF80A00ADF80C0011
:102E0000ADF810000C20ADF80E0001A91448FDF734
:102E100052FF002240F225511148FDF7E4FF012145
:102E20000F48FDF7D4FF4FF4E060FDF713FB2720B8
:102E30008DF8000000208DF8020001208DF80300BD
:102E40006846FDF70CFB06B010BD70470038014026
:102E500000080140256300002C0000203400002001
:102E600000480040000C014000B58BB04448FEF71C
:102E7000E9FD44480090444801900020029002205F
:102E80000390002004908020059040000690800070
:102E90000790202008900002099000200A906946BF
:102EA0003748FEF771FE01213548FEF798FE0BB05A
:102EB00000BD08B501211C20FDF756FE0121084682
:102EC000FDF745FE01214802FDF74EFE3020ADF82A
:102ED000000000208DF8030069462C48FDF788FBB0
:102EE00008BD00B585B0FFF7E4FFFFF7BDFF002088
:102EF000009001208DF804008DF805004FF460204B
:102F000002900020039002208DF8100069461D48B1
:102F10004C38FEF796FB03230122042119484C3854
:102F2000FEF727FC03230222052116484C38FEF742
:102F300020FC012113484C38FEF7BAFB012111484F
:102F40004C38FEF7AAFB0F484C38FEF7C8FB00BF11
:102F50000C484C38FEF7C8FB0028F9D109484C381A
:102F6000FEF7CCFB00BF07484C38FEF7CCFB00282F
:102F7000F9D1012103484C38FEF7CFFB05B000BD65
:102F8000080002404C2401403000002000080140AD
:102F900008B501210420FDF7E7FD0320ADF800008E
:102FA00048208DF8030069460148FDF721FB08BD64
:102FB0000008014010B54FF47071EE48FEF724FE92
:102FC00001218807FFF798FA0121EA48FEF707FE7A
:102FD00000BF4FF40030FEF71DFE0128F9D100219B
:102FE0008007FFF789FA0021E248FEF7F8FD4FF469
:102FF0000030FEF723FE10BD70B500240FE0002561
:1030000009E01E20C4EB0411DB4A02EBC10121F8E8
:103010001500681CC5B2182DF3DB601C84B2102C9F
:10302000EDDBFFF7C7FF70BD00B593B001210420B1
:10303000FDF79AFD01210846FDF7A3FD0121084691
:10304000FDF785FD0120ADF8480018208DF84B00F4
:1030500003208DF84A0012A9C848FDF7C9FA0020DC
:10306000ADF83C00ADF83E005920ADF8400000201E
:10307000ADF842000FA94FF08040FEF7E1FE60205E
:10308000ADF82C000120ADF82E000020ADF8320084
:10309000ADF83400ADF838000BA94FF08040FEF7D2
:1030A0000CFF01218807FFF733FA0821C806FFF754
:1030B00053FB00214FF08040FFF71EFA012251021E
:1030C0004805FFF744FAAE480090AB480190102045
:1030D00002904FF4707003900020049080200590BF
:1030E0004000069080000790002008904FF4805028
:1030F000099000200A9069469E48FEF745FD002190
:103100009C48FEF76CFDFFF777FF6420FFF70CFD8E
:1031100013B000BD0346080440EA03201043704783
:1031200030B50246102A14DA002010E001FA00F34C
:1031300003F400030BB12D2300E01E23C2EB0214A5
:103140008D4D05EBC40424F81030431CD8B23C2844
:10315000ECDB30BD2DE9F04105460E46174698469A
:10316000102D18DA002414E0424639463046FFF7A5
:10317000D1FFA04000F4000008B12D2000E01E2087
:10318000C5EB05117C4A02EBC10121F81400601C5B
:10319000C4B23C2CE8DBBDE8F08110B50446C4F1B4
:1031A000FF04552C0BDA04EB4401CAB204EB4401D2
:1031B000C1F1FF01C8B20021FFF7ACFF10BDAA2C7E
:1031C0000EDAA4F15500C4B204EB4400C0F1FF00D4
:1031D000C2B204EB4400C1B20020FFF79BFFEDE751
:1031E000A4F1AA00C4B204EB4402C2F1FF02D1B2BE
:1031F00004EB4402D0B20022FFF78CFFDEE770B58B
:1032000005460E4600240AE029462046FFF788FFBF
:10321000FFF7D0FE3046FFF787FC601C84B2102C0D
:10322000F2DB70BD2DE9F0410646002515E00024D3
:103230000AE06119C8B2FFF7B0FF074639462046D9
:10324000FFF76EFF601C84B2102CF2DBFFF7B2FEBA
:103250003046FFF769FC681C85B2FF2DE7DDBDE84D
:10326000F0812DE9F041074600251AE000240FE027
:103270002602F11706EB117105EB2111C8B2FFF719
:103280008CFF804641462046FFF74AFF601C84B20F
:10329000102CEDDBFFF78EFE3846FFF745FC681C6F
:1032A00085B2B5F5A06FE1DBBDE8F0812DE9F04115
:1032B00006460F464FF0000821E000241BE00025E1
:1032C00006E0291988B23146FFF72AFFE81C85B2CB
:1032D000102DF6DBFFF76EFE3846FFF725FC0025C4
:1032E00006E0291988B20021FFF71AFFE81C85B211
:1032F000102DF6DB641C032CE1DB08F10108B8F1AA
:103300000A0FDADBBDE8F0812DE9F0470746002619
:103310002CE0002427E0002512E0A819FF2190FBF3
:10332000F1F201FB120000F0FF094846FFF735FFFC
:103330008046291988B24146FFF7F2FEE81C85B2A3
:10334000102DEADBFFF736FE3846FFF7EDFB0025D0
:1033500006E0291988B20021FFF7E2FEE81C85B2D9
:10336000102DF6DB641C032CD5DB761CFF2ED0DD84
:10337000BDE8F08758000240C40100200008014069
:1033800034000040704700007CB51D4616460C0016
:10339000009001D02044401E074B7B442A466946DA
:1033A0000190304600F0B5F905461CB10020694691
:1033B00000F0C2F928467CBDA50300000FB4044903
:1033C00010B503AA029800F0DBF910BC5DF814FBFD
:1033D0002800002070B50C460546012A05D0287843
:1033E000800600D5EA69002302E0012305E05B1CAA
:1033F000934202D2E05C0028F9D1A869E618C01A0D
:10340000A861286A18442862284600F0F4F804E00D
:10341000D5E9012114F8010B9047B442F8D32846AE
:1034200000F0FFF870BD00002DE9F05F894604460A
:103430004FF0000ADFF874B1FB44C0F820A020462A
:10344000E1688847002874D0252806D0D4E90121F6
:103450009047206A401C2062F1E700265F46204624
:10346000E16888472028054607DB312D05D2781909
:1034700010F8200C08B10643F1E7B00701D526F09B
:103480000406C4F81CA00027C4F818A02A2D09D0EF
:10349000284601F019FC38B304EB8708303DC8F822
:1034A000185019E059F8041B204604EB870291617B
:1034B000E1688847012F054618D1E069002820DA25
:1034C00026F020061DE0D8F8180000EB800005EB80
:1034D00040003038C8F818002046E16888470546A3
:1034E00001F0F2FB0028EED1012F0AD02E2D08D1D9
:1034F0002046E16888477F1C0546022F46F02006DB
:10350000C4DBA069002803DA404246F00106A0614E
:10351000F00701D026F010066C2D0BD0682D09D0D5
:103520004C2D39D06A2D35D0742D35D07A2D33D02D
:1035300016E038E0E1682F4620468847B842054645
:1035400009D16C2F26D04FF48060E16806432046F5
:103550008847054604E06C2F1AD04FF4807006436C
:103560000DB3A5F14100192802D8203546F40066B4
:103570004A462946204626604E46FCF7F1FD80B1BA
:1035800001280BD0F61D26F0070000F1080956E7C8
:103590004020E4E78020D8E70020D6E706F10409C0
:1035A0004DE7284652E7206ABDE8F09FFC1800006E
:1035B00010B5431C02E010F8011B71B18107FAD16C
:1035C0004FF0013202C88C1A8C4314EAC211F9D0B0
:1035D000C01A0A0603D0C01E10BDC01A10BD0A04CE
:1035E00001D0801E10BD0902FCD0401E10BD7047E6
:1035F00070477047704770B5044685690068C1061A
:1036000001D5302600E02026C00707D070BDD4E9E0
:10361000012130469047206A401C20626D1EF6D57D
:1036200070BD70B5044685690078C00707D170BDCC
:10363000D4E9012120209047206A401C20626D1EA1
:10364000F6D570BD09684A0501D540B27047C90575
:10365000FCD500B2704709684A0501D5C0B2704771
:10366000C905FCD580B270472DE9F041064600241B
:1036700010687529314616A510D0FFF7E3FF002822
:1036800002DA404213A507E031688A0701D512A586
:1036900002E0490704D511A5012401E0FFF7DBFF93
:1036A00000210A2206F1240709E0B0FBF2FCB0FB7E
:1036B000F2F302FB1C00303078541846491C0028F5
:1036C000F3D123462A463046BDE8F04100F0CDB99B
:1036D000000000002D0000002B0000002000000072
:1036E00011680268006A530501D508700AE0D30525
:1036F00001D5088006E0130603D5C217C1E9000210
:1037000000E008600120704701694A1C02610878E6
:10371000704700B58FB0CDE9013100210591054911
:103720007944CDE9031011466846FFF77DFE0FB0DE
:1037300000BD0000E5FFFFFF0A6802F8010B0A6008
:103740007047D1E900239A4202D2531C0B601070DB
:10375000704710B5436913B1AFF3008001E0FFF784
:1037600039FE012010BD127800F124010A700022F8
:103770004A700122EDE711684FF0FF32E9E70000DF
:10378000074B70B50D467B44FFF7C3FF0446284640
:1037900000F068FD10B14FF0FF3070BD204670BDE5
:1037A00047F4FFFF2DE9FF5F15468A460446DFF820
:1037B000AC80F8440027D8E900103E46CDE900105F
:1037C00010E03AF816106A4602A800F04FFD411CBE
:1037D00007D02178890603D5E269391891420DD8BE
:1037E0000744761C2078800602D5E069B84205DDE2
:1037F000AE42E6DB3AF816000028E2D1A069C01B11
:10380000A0612046FFF7F7FED8E90010CDE90010CF
:10381000002017E03AF818106A4602A800F026FDCA
:10382000B0F1FF3F81460BD000250DF1080B05E0FC
:10383000D4E901211BF8050090476D1C4D45F7D3D5
:1038400008F10100B0428046E4DB206A384420627F
:103850002046FFF7E6FEBDE8FF9F0000961500003A
:103860002DE9F0418046D21D22F007020025D2E961
:103870000002F52915A614D0011E72F1000106DA26
:103880000023D0EB030063EB020211A608E0D8F896
:1038900000108B0701D50FA602E0490701D50EA63F
:1038A00001251146002408F1240704E000F098F8EF
:1038B00030323A55641C50EA0102F7D12B463246A9
:1038C00021464046BDE8F04100F0CFB800000000BE
:1038D0002D0000002B0000002000000030B400216B
:1038E00000F1240408E002F00705D208303542EA6E
:1038F0004372DB086554491C52EA0305F3D104689E
:10390000002310A2250707D5A40600D421B1C4695D
:1039100001230DA2641EC46130BC00F0A6B810B52E
:10392000044621461068FFF796FE02462046BDE891
:1039300010400023D2E7D21D22F00701D1E9002375
:10394000CCE700000000000030000000F0B40D469D
:103950000188090502D5214C7C4402E01F4C7C44BF
:103960000E34002100F1240608E002F00F071209CE
:10397000E75D42EA03721B097754491C52EA0307C8
:10398000F3D102780023120704D5702D06D009B1B7
:10399000022311342246F0BC00F067B80123103432
:1039A000F8E770B504460D4621461068FFF753FE50
:1039B000024629462046BDE870400023C6E7D21DD6
:1039C00022F00703D3E90023C0E70368126843F03D
:1039D000200303600823C3610023B7E7F813000046
:1039E00030B5B0F10A024FEA900E71F100034EEAD1
:1039F000817EB0EB0E0061EB91014FEA101E4EEAA2
:103A0000017E10EB0E0041EB11114FEA102E4EEA31
:103A1000016E10EB0E0041EB11214FEA104E4EEA01
:103A2000014E10EB0E0041EB1141401841F1000135
:103A30004FEAD00040EA41704FEAD10110EB800517
:103A40004FEA810444EA907444EB01046D1944EB9D
:103A50000404521BA3414FF0000348BF0A3200D5B3
:103A600030BD401C41F1000130BD2DE9F0470D464D
:103A700099469246044600F124080168880604D558
:103A8000E06921F01001216000E00120A84201DD81
:103A9000471B00E00027A1697A1902EB0900081A08
:103AA000A0612078C00602D42046FFF7A4FD0026BE
:103AB00008E0D4E901211AF806009047206A401C6A
:103AC000761C20624E45F4DB2078C0060AD52046DD
:103AD000FFF791FD06E0D4E9012130209047206AEC
:103AE000401C2062381EA7F10107F4DC07E0D4E98E
:103AF000012118F805009047206A401C2062281E0A
:103B0000A5F10105F3DC2046FFF78BFD20780006C8
:103B100002D50220BDE8F0870120FBE770472DE9C0
:103B2000FF4F0C461E464FF0FF378BB0D2E9000125
:103B3000DDF860800A908A46C1F30A5505B93D4612
:103B4000002108464FF00000BAF1000F00F44000D9
:103B500005DA00EB80004FF4400101EA50004FEA23
:103B60009059B9F1010F00DDB9460A9850EA4A00B0
:103B70000ED044F61050A5F2FF3545432F14B8F18E
:103B8000000F1ED07542291E1EDDC9F100021CE087
:103B9000B8F1010F4FF0000001D0302103E0F243F3
:103BA00005E02154401CB042FBDB304600220021DE
:103BB00021540B99C1F80880C1E900200FB0BDE87D
:103BC000F08FBD1B6D1CDEE74A4600DA694206A88D
:103BD00000F0DEFB06AB93E8070003AB83E80700C9
:103BE00050460A9900F094FC8DE80700A0F50050BB
:103BF0001F3800900398002D0ADD42F21F014A464B
:103C00000844002303A90390684600F0FDFE09E084
:103C1000A0F500504A461F38002303A903906846C8
:103C200000F007FF8DE807000004000C03D04FF000
:103C3000FF30410800E01046B8F1000F03D0002229
:103C4000009215461EE0751E05D4FFF7C9FE3032FE
:103C500062556D1EF9D5B3460122084302D00022F9
:103C60007F1C04E02078302801D100227F1E002A2A
:103C7000099784D01DE0112D07DAFFF7B1FE30322D
:103C800062556D1C50EA0102F5D1084302D000983C
:103C9000C8B10EE00021681E05E0235C625C63543D
:103CA0002254401E491C8142F7DBAB46A81B401E34
:103CB0000990002004F80B000B98099AC0F80880BE
:103CC000C0E9002B7AE711264FF0000857E72DE9ED
:103CD000F04F88460446D21D22F0070191B0D1E989
:103CE0000001CDE90A0100F0DBFF02460B98C00F8E
:103CF00001D02D2007E02068810701D52B2002E0AC
:103D0000202101EAC000032A099001D0072A05DB1F
:103D100003464146204600F0FBFA0BE1207880067E
:103D200001D5E06900E00620B8F1650F814606D0B4
:103D3000B8F1660F18D0B8F1670F70D131E00020EC
:103D4000B9F1110F009001DB112301E009F101032A
:103D50000AAA01A90CA8FFF7E2FEDDE90C70002613
:103D600009F10105834647E001204B4600904FF0E2
:103D700000470AAA01A90CA8FFF7D1FEDDE90DB0A2
:103D80000C995D46002610B909F101000D18B9EB38
:103D9000050003D4C0F1FF3609F10105A5EB0900C8
:103DA0002BE0B9F1010F01DA4FF001090020B9F160
:103DB000110F0090484601DD112300E003460AAAD6
:103DC00001A90CA8FFF7ABFEDDE90C704D460026FB
:103DD0008346207800070AD4AB4500DA5D4601A887
:103DE000012D04DD411911F8011C302907D04F4580
:103DF00002DA17F1040F04DA012082460FE06D1E8B
:103E0000EEE7002F02DCED1B3E4403E0781CA842E5
:103E100000DD7D1CB81B00F1010A4FF0004720783F
:103E2000000703D4AA4501DB4FF0FF3A0021B7F1A8
:103E3000004F0DF143088DF8431024D002202B23AE
:103E4000002F01DA7F422D230A21021EA0F101007A
:103E500000DC5FB197FBF1FC97FBF1F201FB1C7CEE
:103E600017460CF1300C08F801CDEEE7A8F101007F
:103E700003702188090501D5452100E06521A0F1E5
:103E8000010800F8011C09980FA9A1EB0807FF1D04
:103E900000B10120411901EBEA70A1693844081A08
:103EA000401EA0612078C00602D42046FFF7A3FB85
:103EB000099828B1D4E901219047206A401C20626A
:103EC0002078C00622D52046FFF795FB1EE0002E85
:103ED00004DBB34502DD01A8805D00E03020D4E9B9
:103EE00001219047206A401C2062761CAAF1010043
:103EF0005FEA000A0AD100F007FAC0680168405C76
:103F0000D4E901219047206A401C2062281EA5F1B7
:103F10000105DCDC07E0D4E9012118F8010B90472A
:103F2000206A401C2062381EA7F10107F3DC2046FE
:103F3000FFF777FB032011B041E600002DE9F04FB9
:103F400004460D46D21D22F0070089B0D0E9009743
:103F50004846394600F0A4FE0246F80F01D02D2352
:103F600007E02068810701D52B2302E0202101EA28
:103F7000C0038DF820300BB1012000E00020032A9F
:103F8000824601D0072A04DB2946204600F0C0F90A
:103F90003FE12078800601D40D2500E0E569C7F3F4
:103FA0000A560D2D49DA00214FEA175B08464FF0FB
:103FB0000000002F00F4400007DA00EB80004FF40F
:103FC000400100EBD07001EA60008115012901DD9C
:103FD0004FF0FF3100224FEA850CBCF1180F06D3D9
:103FE0001346ACF118004FF08052C24003E04FF48A
:103FF000801323FA0CF30CF10C0CBCF1200F04D34A
:10400000ACF1200C09FA0CF001E007FA0CF00029E1
:104010004FF0004801DD18B90FE00ED140450CD338
:1040200019EB02095F4121B9404502D19F4329EABA
:104030000209BBEB175F00D0761C2088000502D573
:104040007B48784402E07A487844193808AA30233B
:1040500002F80A30037C0AF10101002E0AF1020A7B
:1040600053546A4602DC4FF0300101E04FF0310159
:104070004FF001088DF8001002D0A6F2FF3603E0E1
:1040800059EA470100D06B4E002D02DC2178090768
:1040900004D54FF002082E218DF80110C4460021EE
:1040A0000BE0C7F303433F01C35C491C6D1E02F8DC
:1040B0000830052908F1010801DA002DF1DC0021A2
:1040C0000CE000EB1973491C1B786D1E082902F8DF
:1040D00008304FEA091908F1010801DA002DF0DC77
:1040E00021688B0602D516E0A8F10108E04505DD40
:1040F00002EB080313F8013C302BF5D0B8F1000FA8
:1041000009DD02EB080313F8013C2E2B03D109074C
:1041100001D4A8F10108002D05DD3E2102F80810A8
:104120006D1E08F10108407C002E02F8080008F11D
:10413000010804DA2D20764202F8080002E02B2064
:1041400002F808000A214FF47A70864208F101084B
:104150000BDB96FBF0F3303302F8083096FBF0F3FC
:1041600008F1010800FB136601E0642E0CDB6420FB
:1041700096FBF0F3303302F8083096FBF0F308F1C9
:10418000010800FB136601E00A2E06DB96FBF1F046
:10419000303002F8080008F1010896FBF1F001FB4D
:1041A0001060303002F80800A16908F1010808EB3E
:1041B000050202EB0A00081AA0612078C00602D4AA
:1041C0002046FFF718FA216A08AE01EB0A002062C8
:1041D00004E0D4E9012116F8010B9047BAF1010A75
:1041E000F7D22078C00602D52046FFF704FA6E46C3
:1041F00009E016F8010B3E280FD0D4E901219047C1
:10420000206A401C2062B8F10108F2D22046FFF774
:1042100008FA09B00320BDE8F08F206A2844206224
:1042200003E0D4E90121302090476D1EEBD3F8E77D
:10423000490D000002FCFFFF10B5436913B1AFF355
:10424000008001E0FFF7AEFA012010BD128800F1F6
:10425000240182840022C2840122EDE711684FF01C
:10426000FF32E9E7007B00F08000704770B516462A
:104270000C46054600F040F8036893F80101012858
:1042800006D0FF2C0FD8185D68B101202C7070BDCE
:10429000D3F807013246214603F2071303442846A8
:1042A000BDE8704018474FF0FF3070BD754600F014
:1042B000EBF8AE4605006946534620F007008546F8
:1042C00018B020B5FBF7C4FFBDE820404FF0000652
:1042D0004FF000074FF000084FF0000B21F00701EE
:1042E000AC46ACE8C009ACE8C009ACE8C009ACE831
:1042F000C0098D467047000010B500F005F8001D9C
:1043000010BD00BF010A000000487047640900208A
:104310002DE9F0411F46044603260168072A01F4EF
:10432000006004DB08B116A505E016A503E008B19E
:1043300015A500E015A521F010002060A069C01EA1
:10434000A0610FB1401EA0612046FFF754F94FB1A4
:10435000D4E9012138469047206A401C2062C01CE5
:10436000206206E0206AFAE7D4E9012115F8010B82
:104370009047761EF8D22046FFF753F9BDE8F0814A
:104380004E414E006E616E00494E4600696E6600F9
:104390002DE9F047814616468AB0354878440DC865
:1043A0008DE80D0032487844801C03AC0DC884E8C9
:1043B0000D0041F69B300844372190FBF1F290FB51
:1043C000F1F5A5F1800501FB12041B3C02D5644206
:1043D000012000E00020DFF898A080460027FA4482
:1043E000AAF1BE0A0EE0E0070AD03246684607EBA3
:1043F000470101230AEB810100F01BFB8DE8070058
:1044000064107F1C002CEED1194F7F44AE3F19E0A1
:10441000E80715D007EB04100DF1180A90E80E001C
:104420008AE80E00C068F04201D19819089032461F
:10443000012306A903A800F0FCFA03AB83E80700F8
:104440006D10641C002DE3D14FF001033246694624
:10445000B8F1000F03A802D000F0D6FA01E000F096
:10446000E8FAC9E90001C9F808200AB0BDE8F087F8
:10447000800A000010B50446AFF300802046BDE876
:104480001040FBF7D0BE00000048704744090020F0
:104490004FF0013C50F8042B51F8043B9A4221D1D3
:1044A000A2EB0C03934313EACC1317D150F8042B5F
:1044B00051F8043B9A4215D1A2EB0C03934313EA43
:1044C000CC130BD150F8042B51F8043B9A4209D17C
:1044D000A2EB0C03934313EACC13DBD04FF00000A4
:1044E000704700BFD01A01BAB1FA81F101F018018A
:1044F00022FA01F0CB40C1F12001DBB2C0B2C01AF8
:104500002CFA01F3D11A914311EAC311E6D1704795
:104510005FEA400C08BF91F0000F4FEA8C234FEA8E
:10452000C12243EA51514FEA1C5018BF00F5F04038
:104530004FEA300018BF41F000415FEA6C5C00F0C8
:104540002980BCF1FF3F08BF40F080407047130C4A
:1045500006BF12044FF0100C4FF0000C130E04BFF6
:1045600012020CF1080C130F04BF12010CF1040C21
:10457000930F04BF92000CF1020CD30F04BF520042
:104580000CF1010C11464FF00002A0F11F00A0EB4E
:104590000C00704711F0004F08BF704731F0004128
:1045A0003FF4D5AF0B0C06BF09044FF0100C4FF0D1
:1045B000000C0B0E04BF09020CF1080C0B0F04BF1A
:1045C00009010CF1040C8B0F04BF89000CF1020CE3
:1045D000CB0F04BF49000CF1010CCCF12003A0EB80
:1045E0000C0022FA03F302FA0CF241EA030100F193
:1045F0000100704720F07F4C80EA030023F07F47E2
:10460000ACEB070303F57C5300F0004003F1FF031C
:104610002DE980494FEA154B09B44FEA144325EAC6
:104620000B4E24EA03480FF2042606EB1327490831
:104630003E785FEA320203FB0667C7F5000707FB17
:1046400006F64FEA54374FEAD64606F1020607FB54
:10465000066CCCF1005C4FEA1C472CEA074C07FBC8
:1046600006F40CFB06F504EB15464FEA961634BF2C
:1046700000204FF000404FEAD13706FB07FC4FEA1D
:104680001C4C0CFB0BF7D21B03FB0CF761EB070177
:104690000CFB0EF7B0EB074072EB17420CFB08F770
:1046A00034BFA2EB0742B2EB074261EB17414FEA7E
:1046B0000C444FEA910706FB07FC4FEA1C4C0CFB2D
:1046C0000BF7B0EBC74072EB573203FB0CF734BF6C
:1046D000A2EBC742B2EBC74261EB57310CFB0EF7BE
:1046E000B0EBC70072EB57720CFB08F734BFA2EBBC
:1046F000C702B2EBC70261EB5771039F4FEA8161BA
:1047000041EA921104EBCC044FEAD1374FEA8262BE
:1047100006FB07FC42EA90124FEA80604FEA1C4C0D
:104720000CFB0BF7D21B03FB0CF761EB07010CFB37
:104730000EF7B0EB074072EB17420CFB08F734BFE3
:10474000A2EB0742B2EB074261EB17414FEA8C55EF
:104750004FEA910704EB9C2406FB07FC4FEA1C4C34
:104760000CFB0BF7B0EBC74072EB573203FB0CF7B7
:1047700034BFA2EBC742B2EBC74261EB57310CFB2F
:104780000EF7B0EBC70072EB57720CFB08F734BFA3
:10479000A2EBC702B2EBC70261EB577115EB4C25D8
:1047A0004FEA816141EA92114FEA82624FEAD137C2
:1047B00042EA901206FB07FC44F100044FEA8060D5
:1047C0004FEA1C4C0CFB0BF7D21B03FB0CF761EB05
:1047D00007010CFB0EF7B0EB074072EB17420CFB26
:1047E00008F734BFA2EB0742B2EB074261EB174177
:1047F00015EB1C154FEA813141EA92414FEA8232B2
:1048000042EA90424FEA80304FEA0C7644F10004CD
:1048100048EA03434EEA0B484FF0000EB2EB080C97
:1048200071EB030724BF624639464EEB0E0E4FF084
:10483000000B0018524149414BEB0B0BB2EB080C3B
:1048400071EB03077BF1000B24BF624639464EEB48
:104850000E0E4FF0000B0018524149414BEB0B0B71
:10486000B2EB080C71EB03077BF1000B24BF62462F
:1048700039464EEB0E0E51EA020718BF46F001060C
:1048800016EB0E7655F1000254F1000103D5BDE898
:104890008901BDE80088BDE88901BDE80048B61976
:1048A000524141EB0101A3F10103704780807F7EFB
:1048B0007D7C7B7A79787776767574737271717096
:1048C0006F6E6E6D6C6C6B6A6A6968686766666548
:1048D0006464636362616160605F5F5E5E5D5D5CD6
:1048E0005C5B5B5A5A595958585757565655555547
:1048F0005454535352525251515050504F4F4F4EA7
:104900004E4D4D4D4C4C4C4B4B4B4A4A4A494949F4
:104910004848484747474746464645454544444436
:10492000444343434342424242414141002B9C465F
:1049300030D477002BD01CB54FEA370703B44FF0C3
:1049400010004FF01001BAF1000F06D0BCF1000FBB
:10495000DCBF40F0080040F008014FF000000FBC41
:10496000BDE810400BF1010BBBF1010F08BF5FEA7E
:10497000170722BF12F1010211F101014FF00041AE
:1049800043F1000300F0004043EA00007047F9D310
:104990005708D0E746EA064613F1400F4FEA16469D
:1049A0001FDD13F1200FDFBF16430A46002120331D
:1049B0005B42BED0C3F1200746EA064602FA07F77B
:1049C0004FEA164646EA0706C3F1200722FA03F229
:1049D00001FA07F721FA03F14FF0000342EA070258
:1049E000A7E746EA020646EA06464FEA164646EAC0
:1049F0000106BCBF46EA0646360C4FF000034FF0F6
:104A000000024FF0000194E72DE9804C9A4693464E
:104A100070B491E8380007C831EA400C48BF34EA66
:104A2000430C03D5FFF7E6FDFFF780FFF0BCBDE8C0
:104A3000008C2DE9804C9A46934670B491E838007A
:104A400007C810F0804F08BF13F0804F03D100F06B
:104A500005F8FFF76BFFF0BCBDE8008C20F07F4746
:104A600080EA030023F07F4C07EB0C03A3F57C5393
:104A700000F00040A3F1FE0392F0000F00F0B380BD
:104A800095F0000F00F077802DE901494FEA1140C1
:104A90004FEA144621EA004800FB06FC24EA0647D8
:104AA00008FB06F607FB08F800FB07F718EB0648BB
:104AB0004CEB164C4FEA124B18EB07484FEA1546E1
:104AC0004CEB174022EA0B4E0BFB06FC25EA06478F
:104AD0000EFB06F607FB0EFE0BFB07F71EEB064E62
:104AE0004CEB164C4FF000061EEB074E4CEB174BF1
:104AF00018EB0B0840F1000018EB0E0B58EB000808
:104B000040F100008F1A4FF000013CBFC943661B03
:104B100014BFB5EB040C00213CBFC943F61B4FEAA0
:104B200017444EEA8E0E27EA04454FEA1C4704FB61
:104B300007622CEA074C05FB07F70CFB05F604FBA4
:104B40000CFC16EB074642EB174216EB0C4642EB09
:104B50001C421BEB060658EB0202414146EA9E0648
:104B600001D5BDE80189B619524141EB0101A3F11C
:104B70000103BDE801894FEA14454FEA114724EAD1
:104B8000054621EA074C05FB07F406FB07F70CFB7B
:104B900006F105FB0CFC11EB074144EB17444FEA0F
:104BA000124711EB0C4144EB1C4422EA074C05FB75
:104BB00007F206FB07F70CFB06F605FB0CFC16EBF1
:104BC000074642EB174216EB0C4642EB1C456A18AF
:104BD00054F1000148BF7047B619524141EB010141
:104BE000A3F10103704795F0000F37D04FEA11424F
:104BF0004FEA144721EA024624EA074C02FB07F178
:104C000006FB07F70CFB06F402FB0CFC14EB074455
:104C100041EB17414FEA154714EB0C4441EB1C41A3
:104C200025EA074C02FB07F506FB07F70CFB06F627
:104C300002FB0CFC16EB074645EB174516EB0C4642
:104C400045EB1C42121951F1000148BF7047B619DB
:104C5000524141EB0101A3F1010370474FEA1445B2
:104C60004FEA114724EA054621EA074C05FB07F104
:104C700006FB07F70CFB06F24FF0000605FB0CFCE9
:104C800012EB074241EB174112EB0C4251EB1C4176
:104C900048BF7047921841EB0101A3F1010370472F
:104CA000490050EAC12018BF04204A0D18BF40F047
:104CB000010040F2FF72B2EB515F08BF40F002000A
:104CC000012808BF0520704730380A2801D201208A
:104CD000704700207047000010B500290AD00878FE
:104CE000002807D005487844FFF7D2FB002801D000
:104CF000002010BD0248784410BD00007201000081
:104D00006A01000010B500290AD00878002807D0F1
:104D100005487844FFF7BCFB002801D0002010BDF7
:104D20000248784410BD0000620100005A010000F2
:104D3000FEF7CDBFFFF702B9040000080000000035
:104D40000000000200010000100000000000000050
:104D500000000000303132333435363738394142C3
:104D600043444546403058003031323334353637CD
:104D700038396162636465664030780030313233BF
:104D8000343536373839616263646566787000306F
:104D90003132333435363738394142434445465849
:104DA0005000000002400000000000A000000000D1
:104DB00005400000000000C8000000000C4000009A
:104DC0000000409C00000000194000000020BCBE14
:104DD0000000000034400000BFC91B8E000000042A
:104DE000B5400000504BCFD06607E2CF0100000075
:104DF0006C4100003E8251AADFEEA73401000000A2
:104E0000D9420000DCB5A0E23A301F97FFFFFFFF58
:104E1000B4450000FD25A0C8E9A3C14FFFFFFFFF77
:104E2000FF3F00000000008000000000FF3F000086
:104E30000000008000000000844F000800000020F7
:104E40003400000028010008B84F0008340000209A
:104E5000740F0000440100081C0000004300000023
:104E6000F8FFFFFF0C0000000E0000000F00000024
:104E70002E0000001001000043000000F8FFFFFFBB
:104E8000004040404040404040404141414141405D
:104E90004040404040404040404040404040404012
:104EA00040050202020202020202020202020202A1
:104EB00002202020202020202020200202020202A6
:104EC00002029090909090901010101010101010FE
:104ED000101010101010101010101010020202020A
:104EE000020288888888888808080808080808084E
:104EF000080808080808080808080808020202024A
:104F00004000000000000000000000000000000061
:104F10000000000000000000000000000000000091
:104F20000000000000000000000000000000000081
:104F30000000000000000000000000000000000071
:104F40000000000000000000000000000000000061
:104F50000000000000000000000000000000000051
:104F60000000000000000000000000000000000041
:104F70000000000000000000000000000000000031
:104F80000000000000A24A04000000000000000031
:104F900001020304060708090000000001020304DF
:104FA00001020304060708090204060800000000C5
:084FB0000000000000000000F9
:04000005080000ED02
:00000001FF
