:020000040800F2
:10000000C80D002035020008ED1F0008EF1F000892
:10001000F31F0008F71F0008FB1F00080000000086
:10002000000000000000000000000000FF1F0008AA
:10003000012000080000000003200008052000083F
:100040004F0200084F0200084F0200084F0200084C
:100050004F0200084F0200084F0200084F0200083C
:100060004F0200084F0200084F0200084F0200082C
:100070004F0200084F0200084F0200084F0200081C
:100080004F0200084F0200084F0200084F0200080C
:100090004F0200084F0200084F0200084F020008FC
:1000A0004F0200084F0200084F0200084F020008EC
:1000B0004F0200084F0200084F0200084F020008DC
:1000C0004F0200084F0200084F0200084F020008CC
:1000D0004F020008DF2100084F02000857230008E4
:1000E0004F0200084F0200084F02000800F002F81B
:1000F00000F090F80AA090E8000C82448344AAF132
:100100000107DA4501D100F085F8AFF2090EBAE82F
:100110000F0013F0010F18BFFB1A43F0010318473B
:10012000B8420000D8420000103A24BF78C878C115
:10013000FAD8520724BF30C830C144BF04680C60ED
:10014000704700000023002400250026103A28BF35
:1001500078C1FBD8520728BF30C148BF0B60704739
:100160006E2902F08D85702902F0FF86662904F061
:10017000AF80652904F0AC80672904F0A98061296B
:1001800004F0A88003681B0A28BF41F08001692998
:1001900002F03A85642902F03785752902F034852A
:1001A0006F2902F08C86782902F0CB86E92902F0CB
:1001B0002786E42902F02486F52902F02186EF291A
:1001C00002F08986F82902F0CA860368DB0928BF95
:1001D00041F08001632902F09685732902F09B8526
:1001E000E32903F00383F32903F008830020704719
:1001F0001FB503F059FB04000020002104F052F861
:10020000401C60600020002104F036F8E0601FBD53
:1002100010B510BD03F01AFB1146FFF7E9FF01F01E
:10022000CFFE03F0F7FB03B4FFF7F2FF03BC01F0CE
:1002300053FF00000948804709480047FEE7FEE7F2
:10024000FEE7FEE7FEE7FEE7FEE7FEE7FEE7FEE786
:1002500004480549054A064B70470000530300084F
:10026000ED000008C8070020C80D0020C8090020C4
:10027000C80900200CB50020019000906C4800686F
:1002800040F480306A49086000BF6948006800F4A3
:10029000003000900198401C0190009818B9019816
:1002A000B0F5A06FF1D16248006800F4003010B1E1
:1002B0000120009001E0002000900098012843D127
:1002C0005C48006840F010005A4908600846006821
:1002D00020F0030008600846006840F00200086053
:1002E000534840685249486008464068486008469C
:1002F000406840F4806048600846406820F47C1004
:1003000048600846406840F4E810486008460068C5
:1003100040F08070086000BF4548006800F0007041
:100320000028F9D04248406820F003004049486066
:100330000846406840F00200486000BF3C48406802
:1003400000F00C000828F9D10CBD10B5FFF792FFA2
:1003500010BD10B53648006840F00100344908600F
:1003600008464068344908403149486008460068FA
:10037000324908402E4908600846006820F4802071
:1003800008600846406820F4FE0048604FF41F00F3
:100390008860FFF7DAFF4FF000602949086010BD60
:1003A00010B5002100200022214B5B6803F00C01F6
:1003B00021B1042906D0082928D107E0214B224C7D
:1003C000236027E01F4B204C236023E0184B5B6821
:1003D00003F47010164B5B6803F48032022303EBC6
:1003E000904022B9194B4343174C23600DE0104B4A
:1003F0005B6803F4003323B1144B4343124C236076
:1004000003E0104B4343104C236003E00D4B0E4CB4
:10041000236000BF00BF064B5B68C3F303130C4CA3
:10042000E15C094B1B68CB40074C236010BD00000A
:1004300000100240002002400000FFF8FFFFF6FE1F
:1004400008ED00E000127A000000002000093D00E5
:100450000400002031490143314A1160704770B5F2
:10046000002100230F22C47804B32D4C246804F427
:10047000E064C4F5E064210AC1F10403CA40447891
:1004800004FA03F18478144021430901254C0678CD
:10049000A155047804F01F050124AC4005786D11C6
:1004A000AD0005F1E025C5F8004109E0047804F04D
:1004B0001F050124AC401C4D0678761145F82640F6
:1004C00070BD1A4A0A400243154B1B1F1A60704741
:1004D00039B1134A121D12680243114B1B1D1A60D9
:1004E00006E00F4A121D126882430D4B1B1D1A6055
:1004F0007047042808D14FF0E021096941F0040158
:100500004FF0E022116107E04FF0E021096921F08E
:1005100004014FF0E0221161704700000000FA056D
:100520000CED00E000E400E080E100E080FFFF1F50
:1005300010B50446CC48844208D10121042000F0C3
:100540002DFB0021042000F029FB46E0C74884422F
:1005500008D10121082000F021FB0021082000F033
:100560001DFB3AE0C248844208D10121102000F06E
:1005700015FB0021102000F011FB2EE0BD48844245
:1005800008D10121202000F009FB0021202000F0EB
:1005900005FB22E0B848844208D10121402000F048
:1005A000FDFA0021402000F0F9FA16E0B348844239
:1005B00008D10121802000F0F1FA0021802000F014
:1005C000EDFA0AE0AE48844207D10121801500F01F
:1005D000E5FA0021A01500F0E1FA10BD10B50121E7
:1005E000084600F0DBFA0021012000F0D7FA10BD28
:1005F0002DE9F041024600250026002000230024BA
:10060000002791F803C00CF00F0591F803C00CF01F
:10061000100CBCF1000F03D091F802C04CEA0505A4
:1006200091F800C0BCF1000F31D0146800202BE01D
:100630004FF0010C0CFA00F3B1F800C00CEA03060D
:100640009E4220D183004FF00F0C0CFA03F7BC43FD
:1006500005FA03FC4CEA040491F803C0BCF1280F2E
:1006600006D14FF0010C0CFA00FCC2F814C00AE0ED
:1006700091F803C0BCF1480F05D14FF0010C0CFA02
:1006800000FCC2F810C0401C0828D1D31460B1F897
:1006900000C0BCF1FF0F34DD546800202EE000F1F3
:1006A000080C4FF0010808FA0CF3B1F800C00CEA8E
:1006B00003069E4221D183004FF00F0C0CFA03F782
:1006C000BC4305FA03FC4CEA040491F803C0BCF1F6
:1006D000280F05D100F1080C08FA0CF8C2F81480B4
:1006E00091F803C0BCF1480F07D100F1080C4FF09E
:1006F000010808FA0CF8C2F81080401C0828CED374
:100700005460BDE8F0814FF6FF71018002218170D5
:100710000421C17070470246002093680B400BB162
:10072000012000E0002070470146886880B27047D1
:1007300002460020D3680B400BB1012000E00020EE
:1007400070470146C86880B27047016170474161D7
:1007500070470AB1016100E041617047C1607047B4
:100760004FF480320A4382618161826182698269C9
:10077000704702460020434B18684FF680731840BC
:1007800040EA021008433F4B186070473E49C86179
:100790007047F0B50A46002300240021002500F030
:1007A0000046B6F1004F02D1364EF16901E0354EF8
:1007B0007168C0F3034583B200F44016B6F5401FDC
:1007C00008D121F070612F4E766826F070662D4FAB
:1007D0007E6012E000F48016B6F5801F06D1032675
:1007E00006FA05F4A14341F0706106E0460D3601BA
:1007F00003FA06F6B14341F0706122B1460D3601AD
:1008000003FA06F6314300F00046B6F1004F02D17C
:100810001C4EF16101E01B4E7160F0BD30B500224D
:100820008B071C0F0F2303FA04F2164B08338C10AE
:1008300053F824309343134C08348D1044F825307A
:1008400023468C1053F824308C07240F00FA04F44C
:1008500023430C4C08348D1044F8253030BD0A4930
:10086000DC3108607047000000080140000C0140C6
:10087000001001400014014000180140001C01401C
:10088000002001400000014000002042DF480068D5
:1008900040F00100DD49086008464068DC49084036
:1008A000DA49486008460068DA490840D7490860D4
:1008B0000846006820F4802008600846406820F45C
:1008C000FE0048604FF41F0088607047CF490968F8
:1008D00021F48031CD4A11601146096821F480214C
:1008E0001160B0F5803F03D0B0F5802F0ED106E047
:1008F000C649096841F48031C44A116007E0C34920
:10090000096841F4A021C14A116000E000BF00BFA6
:10091000704710B501460022002300204A11012A29
:1009200002D1BA4C236806E0022A02D1B74C236AEE
:1009300001E0B64C636A01F01F02012494401C40A0
:100940000CB1012000E0002010BD38B5002000905F
:100950000024002500BF3120FFF7DBFF054600988B
:10096000401C00900098B0F5A06F01D0002DF2D08F
:100970003120FFF7CEFF08B1012400E0002420461B
:1009800038BD01460020A14A106820F0F80040EA76
:10099000C10010607047A0490860704702460020FF
:1009A0009A4B586820F47C1042EA01031843974B95
:1009B0005860704798490866704701460020934A7E
:1009C000506820F003000843506070478F4840682B
:1009D00000F00C007047014600208C4A506820F05F
:1009E000F00008435060704701460020874A506875
:1009F00020F4E06008435060704701460020834ABD
:100A0000506820F4605040EAC1005060704729B13E
:100A10007E4A527A02437D4B5A7204E07B4A527AF4
:100A200082437A4B5A7270477B49D83108607047CD
:100A300001460020754A506820F440400843506049
:100A400070470021714A20321170704A82F82010DC
:100A5000012802D004280AD104E001216B4A203287
:100A6000117005E00521694A2032117000E000BFD5
:100A700000BF70476949086070476449096A0143CB
:100A8000624A11627047654944390860704730B561
:100A900000210022002400235C4D6D6805F00C014C
:100AA00021B1042905D0082923D105E05C4D05605A
:100AB00022E05B4D05601FE0544D6D6805F4701237
:100AC000524D6D6805F48034022505EB92421CB945
:100AD000544D554305600BE04C4D6D6805F40035F1
:100AE0001DB1504D5543056002E04D4D5543056025
:100AF00002E04B4D056000BF00BF444D6D6805F03E
:100B0000F0010909484D6B5C0568DD4045603F4DCB
:100B10006D6805F4E061090A434D6B5C4568DD4092
:100B200085603A4D6D6805F46051C90A3E4D6B5CB5
:100B30004568DD40C560354D6D6805F44041890B61
:100B40003A4D6B5CC568B5FBF3F5056130BD29B165
:100B50002E4A526902432D4B5A6104E02B4A5269D6
:100B600082432A4B5A61704729B1284A926902434D
:100B7000264B9A6104E0254A92698243234B9A618D
:100B8000704729B1214AD2690243204BDA6104E05F
:100B90001E4AD26982431D4BDA61704729B11B4A54
:100BA000D2680243194BDA6004E0184AD2688243E3
:100BB000164BDA60704729B1144A12690243134B8D
:100BC0001A6104E0114A12698243104B1A6170479E
:100BD00012494039086070470F49C86470470B4993
:100BE000C87170470948406A40F080700749486200
:100BF000704701460020054A92680A400AB1012068
:100C000000E00020704701498872704700100240E0
:100C10000000FFF8FFFFF6FE00004242800442425F
:100C200000127A0000093D0014000020240000207A
:100C300010B50446FB48844209D101218803FFF71F
:100C4000ADFF00214FF48040FFF7A8FF32E0F648E7
:100C5000844209D101214804FFF7ADFF00214FF480
:100C60000030FFF7A8FF25E0F048844209D10121B8
:100C70008804FFF7A0FF00214FF48020FFF79BFFBF
:100C800018E0EB48844209D10121C804FFF793FF23
:100C900000214FF40020FFF78EFF0BE0E54884426F
:100CA00008D101210805FFF786FF00214FF48010CD
:100CB000FFF781FF10BD2DE9F04786B005460E46CF
:100CC0000024A24600BFA1460027B08900B100BFA2
:100CD0002F462C8A4CF6FF700440F08804432C8287
:100CE000AC894EF6F3100440B0883189084371890D
:100CF00008430443AC81AC8A4FF6FF400440B089FE
:100D00000443AC8201A8FFF7C2FEC648874202D165
:100D1000DDF810A001E0DDF80CA0A88900F4004087
:100D200040B10AEBCA0000EB0A1031684900B0FB81
:100D3000F1F807E00AEBCA0000EB0A1031688900FD
:100D4000B0FBF1F86420B8FBF0F004012009642145
:100D500001FB1089A88900F4004040B1322000EB6B
:100D6000C900B0FBF1F000F00700044308E03220B6
:100D700000EB09106421B0FBF1F000F00F00044318
:100D80002C8106B0BDE8F0874FF4165101600021B8
:100D90008180C18001810C214181002181817047C6
:100DA00010B502460020108A4FF2FF0318400B884E
:100DB0004C8823438C882343CC88234318431082D8
:100DC00010BD0021018041808180C180704721B128
:100DD000828942F40052828104E082894DF6FF73D9
:100DE0001A4082817047F0B5034600240026002592
:100DF000002040F66A17B94200D100BF1846C1F37F
:100E0000421401F01F06012707FA06F5012C01D153
:100E10000C3004E0022C01D1103000E014301AB183
:100E200007682F43076002E00768AF430760F0BD23
:100E30001AB1838A0B43838202E0838A8B438382C5
:100E40007047028A4FF6F0731A400282028A0A4300
:100E50000282704782894FF2FF731A408281828931
:100E60000A438281704721B1828942F00202828165
:100E700004E082894FF6FD731A4082817047028A2E
:100E80004FF6DF731A400282028A0A4302827047D9
:100E900021B1028A42F48042028204E0028A4BF6C7
:100EA000FF731A4002827047C1F3080282807047C4
:100EB00001468888C0F308007047818941F001012C
:100EC00081817047028BD2B20283028B42EA0122F7
:100ED00002837047028B02F47F420283028B0A4333
:100EE0000283704721B1828A42F02002828204E0AC
:100EF000828A4FF6DF731A408282704721B1828A5C
:100F000042F01002828204E0828A4FF6EF731A40A8
:100F10008282704721B1828A42F00802828204E014
:100F2000828A4FF6F7731A408282704721B1828914
:100F300042F40042828103E08289C2F30E02828180
:100F4000704721B1828A42F40062828204E0828A80
:100F50004FF2FF731A4082827047828A4FF6FB730A
:100F60001A408282828A0A438282704721B1828A31
:100F700042F00202828204E0828A4FF6FD731A4038
:100F80008282704702460020B1F5007F00D100BF89
:100F900013880B400BB1012000E00020704701F4E2
:100FA0000072B2F5007F00D100BFCA4302807047D3
:100FB00070B50246002400230025002040F66A1682
:100FC000B14200D100BFC1F3421501F01F03012659
:100FD00006FA03F3012D02D19689334006E0022D73
:100FE00002D1168A334001E0968A33400C12012662
:100FF00006FA04F41688344013B10CB1012000E065
:10100000002070BD10B50022002340F66A14A142F2
:1010100000D100BF0A1201249440A3B2DC43048033
:1010200010BD00000038014000440040004800406E
:10103000004C00400050004001460020FE4A10686D
:1010400000F03800084310607047FB49096821F040
:101050000801F94A1160114609680143116070479F
:10106000F549096821F01001F34A11601146096839
:10107000014311607047F148EF494860F04848600B
:101080007047EE48EC494860ED4848607047EA48D0
:10109000006940F08000E84908617047E64800694F
:1010A00040F08000E449086170470420E249C968C3
:1010B00001F0010109B101200EE0DF49C96801F02A
:1010C000040109B1022007E0DB49C96801F0100101
:1010D00009B1032000E00420704700B50246042354
:1010E000FFF7E3FF034603E0FFF7DFFF0346521E6F
:1010F000012B01D1002AF7D102B90523184600BD02
:1011000030B5044604254FF43020FFF7E6FF0546CE
:10111000042D17D1C848006940F00200C649086193
:1011200008464461006940F0400008614FF43020F7
:10113000FFF7D3FF0546C048006941F6FD7108403E
:10114000BD490861284630BD10B504244FF4302055
:10115000FFF7C3FF0446042C16D1B748006940F0DE
:101160000400B54908610846006940F04000086184
:101170004FF43020FFF7B1FF0446AF48006941F655
:10118000FB710840AC490861204610BD00B502461D
:101190000423FFF78AFF034603E0FFF786FF0346B9
:1011A000521E012B01D1002AF7D102B9052318469E
:1011B00000BD10B504244FF43020FFF7E7FF0446CC
:1011C000042C16D19C48006940F004009A4908613B
:1011D0000846006940F0400008614FF43020FFF7F6
:1011E000D5FF04469448006941F6FB7108409249D6
:1011F0000861204610BD00208F49C96901F0020135
:1012000009B1012000E00020704730B5A525042475
:10121000FFF7F1FF00B100254FF43020FFF75DFF2D
:101220000446042C3AD18548834988608448886004
:101230000846006940F0200008610846006940F057
:10124000400008614FF43020FFF747FF0446042CAC
:101250001BD17948006941F6DF7108407649086181
:101260000846006940F01000086176480580E002F9
:10127000FFF733FF0446052C10D06F48006941F694
:10128000EF7108406C49086108E0052C06D06A48F7
:10129000006941F6EF71084067490861204630BD9A
:1012A00078B506460C46042500200090E802FFF7BA
:1012B00014FF0546042D24D15F48006940F0010069
:1012C0005D4908613480E802FFF707FF0546042DF9
:1012D00010D1B01C0090200C00990880E802FFF7A4
:1012E000FCFE05465448006941F6FE71084052492B
:1012F000086106E05048006941F6FE7108404E4919
:101300000861284678BD70B504460D460426F002F3
:10131000FFF7E3FE0646042E11D14748006940F06E
:101320000100454908612580F002FFF7D6FE064618
:101330004148006941F6FE7108403F490861304666
:1013400070BD70B505460E460424E002FFF7C5FEE9
:101350000446042C17D139483749886038488860DA
:101360000846006940F0100008612E80E002FFF797
:10137000B4FE0446052C06D02F48006941F6EF71F3
:1013800008402D490861204670BD2DE9F043044610
:101390004FF6FF763746B046B1460425E443E6B241
:1013A000C4F30727C4F307484FEA1469E802FFF7BC
:1013B00094FE0546042D49D120481F4988602048E5
:1013C00088600846006940F010000861FF2E06D0D2
:1013D0001C4808300680E802FFF77FFE0546042D12
:1013E00008D1FF2F06D017480A300780E802FFF720
:1013F00074FE0546042D0AD1B8F1FF0F07D011483D
:101400000C30A0F80080E802FFF767FE0546042DC7
:101410000AD1B9F1FF0F07D00A480E30A0F80090AA
:10142000E802FFF75AFE0546052D0FD00248006975
:1014300041F6EF71084007E00020024023016745B4
:10144000AB89EFCD00F8FF1F664908612846BDE86B
:10145000F08330B5054604244FF43020FFF73DFEFD
:101460000446042C41D160485E4988605F4888602A
:101470000846006940F0200008610846006940F015
:10148000400008614FF43020FFF727FE0446042C8B
:1014900022D15448006941F6DF7108405149086182
:1014A0000846006940F0100008611DB10020504955
:1014B000088002E0A5204E4908804FF43020FFF755
:1014C0000CFE0446052C10D04648006941F6EF7129
:1014D00008404449086108E0052C06D041480069ED
:1014E00041F6DF7108403F490861204630BDF0B544
:1014F00005460E46174604243B483A4988603B4857
:101500008860E002FFF7E9FD0446042C19D1354854
:10151000006940F010003349086147F0F80030439B
:1015200028433349891C0880E002FFF7D6FD0446B2
:10153000052C06D02B48006941F6EF710840294977
:1015400008612046F0BD2748C069800870472548DB
:10155000006A704700202349096801F0200109B1A1
:10156000012000E00020704729B11E4A12690243A1
:101570001C4B1A6104E01B4A12698243194B1A6121
:10158000704701460020012908D1164AD26902F0AD
:1015900001020AB1012008E0002006E0114AD268E9
:1015A0000A400AB1012000E0002070470D49C860E0
:1015B000704704200B49C96801F0010109B10120FD
:1015C0000EE00849C96801F0040109B1022007E0F2
:1015D0000449C96801F0100109B1032000E00420AA
:1015E000704700000020024023016745AB89EFCD22
:1015F00000F8FF1F10B50446FA48844208D10121C3
:101600004015FFF7CBFA00216015FFF7C7FA17E086
:10161000F548844208D101210015FFF7BFFA0021E7
:101620002015FFF7BBFA0BE0F048844208D10121F6
:10163000C803FFF7B3FA00214FF40040FFF7AEFAFA
:1016400010BD30B50246002000235068E84C204011
:101650000D790C6844EA0524204350609068E54CFD
:101660002040D1E902542C434D7944EA45042043FB
:101670009060D06A20F470000C7C641EE4B22343B6
:1016800040EA0350D06230BD002101600171417118
:101690008160C16001210174704721B1826842F00C
:1016A0000102826003E0826822F0010282607047DA
:1016B00021B1826842F48072826003E0826822F481
:1016C00080728260704710B50023CBB21AB14468B3
:1016D0001C43446002E044689C43446010BD816840
:1016E00041F0080181607047014600208A6802F0DD
:1016F00008020AB1012000E000207047816841F033
:10170000040181607047014600208A6802F00402EB
:101710000AB1012000E00020704721B1826842F444
:10172000A002826003E0826822F4A0028260704717
:10173000014600208A6802F480020AB1012000E01C
:101740000020704710B50A4600210023416821F4AB
:101750006041531E41EA4331416010BD21B14268EE
:1017600042F40062426003E0426822F40062426098
:101770007047F0B504460D4600200021092D11DD0B
:10178000E068A5F10A0606EB4607072606FA07F108
:101790008843A5F10A0606EB460603FA06F108435C
:1017A000E0600CE0206905EB4507072606FA07F123
:1017B000884305EB450603FA06F108432061072A32
:1017C0000FDA606B561E06EB86071F2606FA07F136
:1017D0008843561E06EB860605FA06F10843606349
:1017E00022E00D2A0FDA206BD61F06EB86071F2694
:1017F00006FA07F18843D61F06EB860605FA06F1BE
:101800000843206310E0E06AA2F10D0606EB8607AC
:101810001F2606FA07F18843A2F10D0606EB86069D
:1018200005FA06F10843E062F0BD21B1826842F496
:101830008012826003E0826822F480128260704726
:101840000146C86C80B2704766484C3000687047EB
:1018500021B1426842F48062426003E0426822F4AF
:1018600080624260704721B1426842F48052426017
:1018700003E0426822F48052426070470A46002129
:10188000816821F4E04111438160704721B1826891
:1018900042F40042826003E0826822F400428260E7
:1018A000704721B1826842F40212826003E08268CC
:1018B00022F4021282607047014600208A6802F416
:1018C00000120AB1012000E000207047F0B5044684
:1018D0001546002000220026092911DDE068A1F14B
:1018E0000A0707EB470C072707FA0CF29043A1F110
:1018F0000A0707EB470703FA07F21043E0600CE022
:10190000206901EB410C072707FA0CF2904301EB29
:10191000410703FA07F210432061A06BC0F30156A0
:10192000EF1C06F1010CA7EB0C0707EB870C1F2738
:1019300007FA0CF29043EF1C06F1010CA7EB0C0721
:1019400007EB870701FA07F21043A063F0BD10B55B
:101950000A4600210023816B21F44011531E41EA05
:101960000351816310BD08B5002300930090009BD4
:101970000B440093009B1A6008BD08B50246002086
:101980000090009201F12800009B184400900098FC
:10199000006880B208BD0A4600214168164B194014
:1019A0001143416070474162826270470A460021DC
:1019B000416821F01F0111434160704740B109495E
:1019C0000831096841F40001064A0832116007E055
:1019D00004490831096821F40001024A0832116003
:1019E000704700000024014000280140003C0140F5
:1019F000FFFEF0FFFDF7F1FFFFFD3FFF0246002075
:101A000013680B400BB1012000E000207047CA436F
:101A10000260704770B502460020002300240B12BC
:101A20005568CEB205EA060415681D4015B10CB123
:101A3000012000E0002070BD00220A12D3430360A1
:101A40007047000001684FF6FE72114001600021EE
:101A5000016041608160C1608D49884208D18C4934
:101A60000839496841F00F01894A083A51608AE013
:101A700087491431884208D185490839496841F0BD
:101A8000F001834A083A51607DE08149283188425B
:101A900008D17F490839496841F470617C4A083AA5
:101AA000516070E07A493C31884208D17849083960
:101AB000496841F47041764A083A516063E07449DC
:101AC0005031884208D172490839496841F470217F
:101AD0006F4A083A516056E06D496431884208D136
:101AE0006B490839496841F47001694A083A516004
:101AF00049E067497831884208D165490839496821
:101B000041F07061624A083A51603CE061498842A4
:101B100006D1011F096841F00F01021F116032E078
:101B20005C491431884208D15A49091F096841F0BB
:101B3000F001584A121F116025E0564928318842A9
:101B400008D15449091F096841F47061514A121FB4
:101B5000116018E04F493C31884208D14D49091FB6
:101B6000096841F470414B4A121F11600BE049496A
:101B70005031884207D14749091F096841F4702153
:101B8000444A121F1160704710B50022026847F6E0
:101B9000F0739A430C6A8B6823430C6923434C69A6
:101BA00023438C692343CC6923434C6A23438C6AC7
:101BB00023431A430260CB6843600B6883604B6821
:101BC000C36010BD0021016041608160C16001619E
:101BD00041618161C161016241628162704721B1ED
:101BE000026842F00102026004E002684FF6FE73F0
:101BF0001A40026070471AB103680B43036002E0A9
:101C000003688B4303607047416070470146486832
:101C100080B2704701460020002201F080531BB1C2
:101C20001C4B083B1A6802E0194B083B1A6802EA91
:101C300001030BB1012000E00020704700F080514B
:101C400019B11449091F086002E0114908394860B8
:101C5000704701460020002201F080531BB10D4B5C
:101C6000083B1A6802E00A4B083B1A6802EA0103C3
:101C70000BB1012000E00020704700F0805119B145
:101C80000449091F086002E00149083948607047AB
:101C9000080002400804024010B50446BE488442D1
:101CA00008D101218014FEF779FF0021A014FEF76E
:101CB00075FF16E0B948844208D101210014FEF7EF
:101CC0007AFF00212014FEF776FF0AE0B448844230
:101CD00007D10121C013FEF76EFF0021E013FEF7CC
:101CE0006AFF10BD10B50022028802F441520B8831
:101CF0004C8823438C882343CC8823430C8923437B
:101D00004C8923438C892343CC8923431A43028083
:101D1000838B4FF2FF74234083830B8A038210BDB1
:101D20002DE9F04F85B005460C464FF0000902271B
:101D30004FF000084FF0010B0026B246A88B4FF27F
:101D400040010840A88302202884B5F81C90A068B0
:101D5000022801D100BF38E0A08810B94FF0010B74
:101D600001E04FF0020B8D48854200D100E000BF3A
:101D70006846FEF78CFEDDF800A0E088B0F5007F35
:101D80000AD14FEA1A2000EB80004000A168B0FBA6
:101D9000F1F0401D86B20BE04FEA4B10BAFBF0F0B9
:101DA00000EB80004000A168B0FBF1F0401D86B25E
:101DB0000A20B6FBF0F606F00108A6EB0800C0F317
:101DC0004F074FF6FF7000EA0828022F01DBFF2FB4
:101DD00002DD02274FF00008E08840EA080038439F
:101DE0002884A088A1890843618808432188084382
:101DF00040F4006040EA0909A5F81C9005B0BDE870
:101E0000F08F0021018041808180C180018141816A
:101E10008181C181072101827047002101804180B9
:101E20008180C1800221816000218181704721B1C0
:101E3000028842F04002028004E002884FF6BF733D
:101E40001A400280704721B1828B42F48062828303
:101E500004E0828B4FF6FF331A408283704730B51F
:101E6000002400230C110125A540ABB21AB18588CE
:101E70001D43858002E085889D43858030BD1AB171
:101E800083880B43838002E083888B438380704781
:101E9000818170470146888970474FF6FF62914201
:101EA00004D0028842F48072028004E002884FF677
:101EB000FF631A400280704721B1828842F0040219
:101EC000828004E082884FF6FB731A40828070475C
:101ED00002884FF2FF731A40028002880A43028090
:101EE0007047018841F480510180704721B1028818
:101EF00042F40052028004E002884DF6FF731A405B
:101F00000280704702460020012901D0108B00E0BA
:101F1000908A70470146088A7047B1F5804F04D116
:101F2000028842F48042028004E002884BF6FF738C
:101F30001A40028070470246002013890B400BB103
:101F4000012000E000207047CA4302817047F0B5CD
:101F50000246002000240023002501F00F0701267F
:101F6000BE40B4B20B1101269E40B3B2968806EA79
:101F700003051689264016B10DB1012000E00020AE
:101F8000F0BD10B5002201F00F040123A3409AB266
:101F9000D343038110BD00000030014000380040F1
:101FA000003C004010B54FF4FA7000F043F800F028
:101FB00061F800F01CFA00F071FA00F0ABFA10BD05
:101FC000FFF7F0FF11E0FF220021084600F00BFBB5
:101FD0000446322100F07AFB7F221146104600F0C1
:101FE00002FB0446642100F071FBECE7704700BF80
:101FF000FEE700BFFEE700BFFEE700BFFEE7704759
:1020000070477047704700EBC001C9004FF0E022F5
:102010005161002191610521116100BF4FF0E02164
:10202000096901F480310029F8D004214FF0E02241
:102030001161704700B5034603E04FF47A70FFF773
:10204000E2FF181EA3F101018BB2F6D100BD10B55D
:10205000044603E04FF47A70FFF7ECFF201EA4F172
:1020600001018CB2F6D110BD10B54FF4A060FEF79F
:10207000F1F910BD10B5FEF709FC4FF48030FEF702
:1020800025FCFEF762FC0446012C24D14FF4E0113C
:102090000004FEF783FC0020FEF79DFCA002FEF783
:1020A000A3FC0020FEF7A9FC0220FEF7C5FF1020CC
:1020B000FEF7D6FF0120FEF77DFC00BF3920FEF7BA
:1020C00028FC0028FAD00220FEF777FC00BFFEF7BC
:1020D0007DFC0828FBD110BD00BF704700BF9E4AA1
:1020E000128802F04002002AF9D0C2B29A4B1B1D9E
:1020F0001A8070470FB410B5B4B0002437A8009010
:10210000C92101A8009B369A00F00EFC0EE0204683
:10211000621CD4B201AA115C8F48FEF7C5FE00BF55
:1021200040218D48FEF72EFF0028F9D0C82C04DA94
:1021300001A800F00DFDA042E9D80020009034B0C5
:1021400010BC5DF814FB10B586B00446012144F2C2
:102150000400FEF709FD4FF40070ADF814000320F1
:102160008DF8160018208DF8170005A97B48FEF79A
:102170003FFA4FF48060ADF8140004208DF817008A
:1021800005A97648FEF734FA25208DF800000320D3
:102190008DF801008DF8020001208DF803006846DB
:1021A000FEF75DF901940020ADF80800ADF80A00D3
:1021B000ADF80C00ADF810000C20ADF80E0001A930
:1021C0006548FEF778FD012240F225516248FEF78E
:1021D0000AFE01216048FEF7FAFD06B010BD10B5F9
:1021E00040F225515C48FEF7E3FE002838D05A48FB
:1021F000FEF75EFEC4B2214659A000F0AFFB59487D
:10220000008800F4004058BB5648008800F4804025
:1022100060B10A2C03D000205249088020E05148C8
:10222000008840F400404F49088019E00D2C06D189
:102230004C48008840F480404A49088010E04948F2
:102240000088C0F30D0048490C5446480088401CE3
:102250004449088008460088C72801DD002008801E
:1022600010BD0FB410B5B4B0002437A80090C92138
:1022700001A8009B369A00F057FB0EE02046621C36
:10228000D4B201AA115C3948FEF70EFE00BF40210E
:102290003648FEF777FE0028F9D0C82C04DA01A8EA
:1022A00000F056FCA042E9D80020009034B010BCE9
:1022B0005DF814FB10B586B0044601210820FEF736
:1022C00053FC01218804FEF75CFC4FF40060ADF87C
:1022D000140004208DF8170005A92548FEF788F999
:1022E0004FF48060ADF8140003208DF8160018201C
:1022F0008DF8170005A91E48FEF77AF90194002011
:10230000ADF80800ADF80A00ADF80C00ADF810000B
:102310000C20ADF80E0001A91448FEF7CCFC0022F9
:1023200040F225511148FEF75EFD01210F48FEF7EE
:102330004EFD4FF4E060FEF78DF827208DF8000089
:1023400000208DF8020001208DF803006846FEF79A
:1023500086F806B010BD7047003801400008014003
:10236000256300002C0000203400002000480040BD
:10237000000C014000B58BB04448FFF763FB4448B4
:102380000090444801900020029002200390002019
:102390000490802005904000069080000790202047
:1023A00008900002099000200A9069463748FFF71C
:1023B000EBFB01213548FFF712FC0BB000BD08B55F
:1023C00001211C20FEF7D0FB01210846FEF7BFFBD0
:1023D00001214802FEF7C8FB3020ADF800000020C4
:1023E0008DF8030069462C48FEF702F908BD00B5D8
:1023F00085B0FFF7E4FFFFF7BDFF0020009001204C
:102400008DF804008DF805004FF460200290002044
:10241000039002208DF8100069461D484C38FFF7E4
:1024200010F903230122042119484C38FFF7A1F9C0
:1024300003230222052116484C38FFF79AF901219F
:1024400013484C38FFF734F9012111484C38FFF795
:1024500024F90F484C38FFF742F900BF0C484C38BC
:10246000FFF742F90028F9D109484C38FFF746F93F
:1024700000BF07484C38FFF746F90028F9D1012181
:1024800003484C38FFF749F905B000BD0800024089
:102490004C240140300000200008014008B5012113
:1024A0000420FEF761FB0320ADF8000048208DF802
:1024B000030069460148FEF79BF808BD000801408B
:1024C00010B50021F748FFF78AFB4FF40070FFF7C3
:1024D000B5FB4FF4B461F348FFF796FB0121F148D7
:1024E000FFF77DFB10BD70B500240EE0002508E06D
:1024F000E02004EB4401EC4A02EBC1014855681CA2
:10250000C5B2182DF4DB601C84B23C2CEEDBFFF767
:10251000D7FF70BD00B591B001210420FEF724FB68
:1025200001210803FEF720FB01210846FEF70FFBFF
:102530008020ADF8400018208DF8430003208DF86E
:10254000420010A9D948FEF753F84FF44040ADF8C7
:102550002C004FF48270ADF82E000020ADF8300052
:10256000ADF832000120ADF834004002ADF836007D
:102570001020ADF838000020ADF83A000720ADF883
:102580003C000BA9CA48FFF7ADFB0121C848FFF783
:102590004EFC01220221C648FFF771FCC148FFF73B
:1025A00051FAC3480C300090BF48019010200290AF
:1025B0004FF4B46003900020049080200590002028
:1025C0000690079008904FF48050099000200A90E0
:1025D0006946B448FFF7D8FAFFF785FF6420FFF794
:1025E00029FD11B000BD0346080440EA0320104352
:1025F000704730B502463C2A13DA00200FE001FA9A
:1026000000F303F400030BB1F82300E0E02302EB36
:102610004204A54D05EBC4042354431CD8B218282A
:10262000EDDB30BD2DE9F04105460E4617469846D4
:102630003C2D17DA002413E0424639463046FFF7B6
:10264000D2FFA04000F4000008B1F82000E0E02034
:1026500005EB4501944A02EBC1010855601CC4B268
:10266000182CE9DBBDE8F08110B50446C4F1FF0485
:10267000552C0BDA04EB4401CAB204EB4401C1F15E
:10268000FF01C8B20021FFF7AEFF10BDAA2C0EDA81
:10269000A4F15500C4B204EB4400C0F1FF00C2B283
:1026A00004EB4400C1B20020FFF79DFFEDE7A4F169
:1026B000AA00C4B204EB4402C2F1FF02D1B204EB9F
:1026C0004402D0B20022FFF78EFFDEE770B5054668
:1026D0000E4600240AE029462046FFF78AFFFFF74E
:1026E000EFFE3046FFF7A6FC601C84B23C2CF2DB08
:1026F00070BD2DE9F0410646002515E000240AE0F2
:102700006119C8B2FFF7B0FF074639462046FFF708
:1027100070FF601C84B23C2CF2DBFFF7D1FE304628
:10272000FFF788FC681C85B2FF2DE7DDBDE8F0816E
:102730002DE9F041064600251BE0002410E02002B0
:102740003C2190FBF1F0284400F0FF084046FFF7E1
:102750008BFF074639462046FFF74BFF601C84B2CB
:102760003C2CECDBFFF7ACFE3046FFF763FC681C4B
:1027700085B2B5F5A06FE0DBBDE8F0812DE9F04151
:1027800006460F464FF0000821E000241BE000251C
:1027900006E0291988B23146FFF72BFFE81C85B205
:1027A0003C2DF6DBFFF78CFE3846FFF743FC002597
:1027B00006E0291988B20021FFF71BFFE81C85B24B
:1027C0003C2DF6DB641C032CE1DB08F10108B8F1B9
:1027D0000A0FDADBBDE8F0812DE9F0470746002655
:1027E0002CE0002427E0002512E0A819FF2190FB2F
:1027F000F1F201FB120000F0FF094846FFF734FF39
:102800008046291988B24146FFF7F3FEE81C85B2DD
:102810003C2DEADBFFF754FE3846FFF70BFC0025A2
:1028200006E0291988B20021FFF7E3FEE81C85B213
:102830003C2DF6DB641C032CD5DB761CFF2ED0DD93
:10284000BDE8F0872DE9F74F03468C46C3EB032B19
:102850000BEB4B0B4FF4004E0EEB4B004FEAE07BC3
:1028600000EB1B4B4FEA1B43B3F5FF7F0ADA002452
:10287000FF2B02DAFF21DAB231E0C3F5FF70C1B2FB
:10288000FF222CE0B3F57F7F14DA0021B3F53F7F00
:1028900003DCFF22981CC4B221E0C3F57F70C2B2F2
:1028A000FF241CE030000240C40100200008014069
:1028B0000030014040F2FA5083420DDA002240F22B
:1028C000FB40834203DA181DC1B2FF2407E0FF2159
:1028D000C3F1FA00C4B202E0FF21002214460298BC
:1028E000451C0CF10106CCF1FF0701FB06F007EBDC
:1028F000202068430020000200F0FF0802FB06F0E1
:1029000007EB202068430020814604FB06F007EB1C
:1029100020206843C0F3072A48EA090040EA0A0079
:10292000BDE8FE8F704700007CB51D4616460C00C2
:10293000009001D02044401E074B7B442A46694644
:102940000190304600F0B5F905461CB100206946FB
:1029500000F0C2F928467CBDA50300000FB404496D
:1029600010B503AA029800F0DBF910BC5DF814FB67
:102970002800002070B50C460546012A05D02878AD
:10298000800600D5EA69002302E0012305E05B1C14
:10299000934202D2E05C0028F9D1A869E618C01A77
:1029A000A861286A18442862284600F0F4F804E078
:1029B000D5E9012114F8010B9047B442F8D3284619
:1029C00000F0FFF870BD00002DE9F05F8946044675
:1029D0004FF0000ADFF874B1FB44C0F820A0204695
:1029E000E1688847002874D0252806D0D4E9012161
:1029F0009047206A401C2062F1E700265F4620468F
:102A0000E16888472028054607DB312D05D2781973
:102A100010F8200C08B10643F1E7B00701D526F005
:102A20000406C4F81CA00027C4F818A02A2D09D059
:102A3000284601F019FC38B304EB8708303DC8F88C
:102A4000185019E059F8041B204604EB87029161E5
:102A5000E1688847012F054618D1E069002820DA8F
:102A600026F020061DE0D8F8180000EB800005EBEA
:102A700040003038C8F818002046E168884705460D
:102A800001F0F2FB0028EED1012F0AD02E2D08D143
:102A90002046E16888477F1C0546022F46F0200645
:102AA000C4DBA069002803DA404246F00106A061B9
:102AB000F00701D026F010066C2D0BD0682D09D040
:102AC0004C2D39D06A2D35D0742D35D07A2D33D098
:102AD00016E038E0E1682F4620468847B8420546B0
:102AE00009D16C2F26D04FF48060E1680643204660
:102AF0008847054604E06C2F1AD04FF480700643D7
:102B00000DB3A5F14100192802D8203546F400661E
:102B10004A462946204626604E46FDF721FB80B1F5
:102B200001280BD0F61D26F0070000F1080956E732
:102B30004020E4E78020D8E70020D6E706F104092A
:102B40004DE7284652E7206ABDE8F09FFC180000D8
:102B500010B5431C02E010F8011B71B18107FAD1D6
:102B60004FF0013202C88C1A8C4314EAC211F9D01A
:102B7000C01A0A0603D0C01E10BDC01A10BD0A0438
:102B800001D0801E10BD0902FCD0401E10BD704750
:102B900070477047704770B5044685690068C10684
:102BA00001D5302600E02026C00707D070BDD4E94B
:102BB000012130469047206A401C20626D1EF6D5E8
:102BC00070BD70B5044685690078C00707D170BD37
:102BD000D4E9012120209047206A401C20626D1E0C
:102BE000F6D570BD09684A0501D540B27047C905E0
:102BF000FCD500B2704709684A0501D5C0B27047DC
:102C0000C905FCD580B270472DE9F0410646002485
:102C100010687529314616A510D0FFF7E3FF00288C
:102C200002DA404213A507E031688A0701D512A5F0
:102C300002E0490704D511A5012401E0FFF7DBFFFD
:102C400000210A2206F1240709E0B0FBF2FCB0FBE8
:102C5000F2F302FB1C00303078541846491C00285F
:102C6000F3D123462A463046BDE8F04100F0CDB905
:102C7000000000002D0000002B00000020000000DC
:102C800011680268006A530501D508700AE0D3058F
:102C900001D5088006E0130603D5C217C1E900027A
:102CA00000E008600120704701694A1C0261087851
:102CB000704700B58FB0CDE901310021059105497C
:102CC0007944CDE9031011466846FFF77DFE0FB049
:102CD00000BD0000E5FFFFFF0A6802F8010B0A6073
:102CE0007047D1E900239A4202D2531C0B60107046
:102CF000704710B5436913B1AFF3008001E0FFF7EF
:102D000039FE012010BD127800F124010A70002262
:102D10004A700122EDE711684FF0FF32E9E7000049
:102D2000074B70B50D467B44FFF7C3FF04462846AA
:102D300000F068FD10B14FF0FF3070BD204670BD4F
:102D4000B3F3FFFF2DE9FF5F15468A460446DFF81F
:102D5000AC80F8440027D8E900103E46CDE90010C9
:102D600010E03AF816106A4602A800F04FFD411C28
:102D700007D02178890603D5E269391891420DD828
:102D80000744761C2078800602D5E069B84205DD4C
:102D9000AE42E6DB3AF816000028E2D1A069C01B7B
:102DA000A0612046FFF7F7FED8E90010CDE900103A
:102DB000002017E03AF818106A4602A800F026FD35
:102DC000B0F1FF3F81460BD000250DF1080B05E067
:102DD000D4E901211BF8050090476D1C4D45F7D340
:102DE00008F10100B0428046E4DB206A38442062EA
:102DF0002046FFF7E6FEBDE8FF9F000096150000A5
:102E00002DE9F0418046D21D22F007020025D2E9CB
:102E10000002F52915A614D0011E72F1000106DA90
:102E20000023D0EB030063EB020211A608E0D8F800
:102E300000108B0701D50FA602E0490701D50EA6A9
:102E400001251146002408F1240704E000F098F859
:102E500030323A55641C50EA0102F7D12B46324613
:102E600021464046BDE8F04100F0CFB80000000028
:102E70002D0000002B0000002000000030B40021D5
:102E800000F1240408E002F00705D208303542EAD8
:102E90004372DB086554491C52EA0305F3D1046808
:102EA000002310A2250707D5A40600D421B1C469C8
:102EB00001230DA2641EC46130BC00F0A6B810B599
:102EC000044621461068FFF796FE02462046BDE8FC
:102ED00010400023D2E7D21D22F00701D1E90023E0
:102EE000CCE700000000000030000000F0B40D4608
:102EF0000188090502D5214C7C4402E01F4C7C442A
:102F00000E34002100F1240608E002F00F07120938
:102F1000E75D42EA03721B097754491C52EA030732
:102F2000F3D102780023120704D5702D06D009B121
:102F3000022311342246F0BC00F067B8012310349C
:102F4000F8E770B504460D4621461068FFF753FEBA
:102F5000024629462046BDE870400023C6E7D21D40
:102F600022F00703D3E90023C0E70368126843F0A7
:102F7000200303600823C3610023B7E7F8130000B0
:102F800030B5B0F10A024FEA900E71F100034EEA3B
:102F9000817EB0EB0E0061EB91014FEA101E4EEA0C
:102FA000017E10EB0E0041EB11114FEA102E4EEA9C
:102FB000016E10EB0E0041EB11214FEA104E4EEA6C
:102FC000014E10EB0E0041EB1141401841F10001A0
:102FD0004FEAD00040EA41704FEAD10110EB800582
:102FE0004FEA810444EA907444EB01046D1944EB08
:102FF0000404521BA3414FF0000348BF0A3200D51E
:1030000030BD401C41F1000130BD2DE9F0470D46B7
:1030100099469246044600F124080168880604D5C2
:10302000E06921F01001216000E00120A84201DDEB
:10303000471B00E00027A1697A1902EB0900081A72
:10304000A0612078C00602D42046FFF7A4FD002628
:1030500008E0D4E901211AF806009047206A401CD4
:10306000761C20624E45F4DB2078C0060AD5204647
:10307000FFF791FD06E0D4E9012130209047206A56
:10308000401C2062381EA7F10107F4DC07E0D4E9F8
:10309000012118F805009047206A401C2062281E74
:1030A000A5F10105F3DC2046FFF78BFD2078000633
:1030B00002D50220BDE8F0870120FBE770472DE92B
:1030C000FF4F0C461E464FF0FF378BB0D2E9000190
:1030D000DDF860800A908A46C1F30A5505B93D467D
:1030E000002108464FF00000BAF1000F00F4400044
:1030F00005DA00EB80004FF4400101EA50004FEA8E
:103100009059B9F1010F00DDB9460A9850EA4A001A
:103110000ED044F61050A5F2FF3545432F14B8F1F8
:10312000000F1ED07542291E1EDDC9F100021CE0F1
:10313000B8F1010F4FF0000001D0302103E0F2435D
:1031400005E02154401CB042FBDB30460022002148
:1031500021540B99C1F80880C1E900200FB0BDE8E7
:10316000F08FBD1B6D1CDEE74A4600DA694206A8F7
:1031700000F0DEFB06AB93E8070003AB83E8070033
:1031800050460A9900F094FC8DE80700A0F5005025
:103190001F3800900398002D0ADD42F21F014A46B5
:1031A0000844002303A90390684600F0FDFE09E0EF
:1031B000A0F500504A461F38002303A90390684633
:1031C00000F007FF8DE807000004000C03D04FF06B
:1031D000FF30410800E01046B8F1000F03D0002294
:1031E000009215461EE0751E05D4FFF7C9FE303269
:1031F00062556D1EF9D5B3460122084302D0002264
:103200007F1C04E02078302801D100227F1E002A94
:10321000099784D01DE0112D07DAFFF7B1FE303297
:1032200062556D1C50EA0102F5D1084302D00098A6
:10323000C8B10EE00021681E05E0235C625C6354A7
:103240002254401E491C8142F7DBAB46A81B401E9E
:103250000990002004F80B000B98099AC0F8088028
:10326000C0E9002B7AE711264FF0000857E72DE957
:10327000F04F88460446D21D22F0070191B0D1E9F3
:103280000001CDE90A0100F0DBFF02460B98C00FF8
:1032900001D02D2007E02068810701D52B2002E016
:1032A000202101EAC000032A099001D0072A05DB8A
:1032B00003464146204600F0FBFA0BE120788006E9
:1032C00001D5E06900E00620B8F1650F814606D01F
:1032D000B8F1660F18D0B8F1670F70D131E0002057
:1032E000B9F1110F009001DB112301E009F1010395
:1032F0000AAA01A90CA8FFF7E2FEDDE90C7000267E
:1033000009F10105834647E001204B4600904FF04C
:1033100000470AAA01A90CA8FFF7D1FEDDE90DB00C
:103320000C995D46002610B909F101000D18B9EBA2
:10333000050003D4C0F1FF3609F10105A5EB090032
:103340002BE0B9F1010F01DA4FF001090020B9F1CA
:10335000110F0090484601DD112300E003460AAA40
:1033600001A90CA8FFF7ABFEDDE90C704D46002665
:103370008346207800070AD4AB4500DA5D4601A8F1
:10338000012D04DD411911F8011C302907D04F45EA
:1033900002DA17F1040F04DA012082460FE06D1EF5
:1033A000EEE7002F02DCED1B3E4403E0781CA84250
:1033B00000DD7D1CB81B00F1010A4FF000472078AA
:1033C000000703D4AA4501DB4FF0FF3A0021B7F113
:1033D000004F0DF143088DF8431024D002202B2319
:1033E000002F01DA7F422D230A21021EA0F10100E5
:1033F00000DC5FB197FBF1FC97FBF1F201FB1C7C59
:1034000017460CF1300C08F801CDEEE7A8F10100E9
:1034100003702188090501D5452100E06521A0F14F
:10342000010800F8011C09980FA9A1EB0807FF1D6E
:1034300000B10120411901EBEA70A1693844081A72
:10344000401EA0612078C00602D42046FFF7A3FBEF
:10345000099828B1D4E901219047206A401C2062D4
:103460002078C00622D52046FFF795FB1EE0002EEF
:1034700004DBB34502DD01A8805D00E03020D4E923
:1034800001219047206A401C2062761CAAF10100AD
:103490005FEA000A0AD100F007FAC0680168405CE0
:1034A000D4E901219047206A401C2062281EA5F122
:1034B0000105DCDC07E0D4E9012118F8010B904795
:1034C000206A401C2062381EA7F10107F3DC204669
:1034D000FFF777FB032011B041E600002DE9F04F24
:1034E00004460D46D21D22F0070089B0D0E90097AE
:1034F0004846394600F0A4FE0246F80F01D02D23BD
:1035000007E02068810701D52B2302E0202101EA92
:10351000C0038DF820300BB1012000E00020032A09
:10352000824601D0072A04DB2946204600F0C0F974
:103530003FE12078800601D40D2500E0E569C7F35E
:103540000A560D2D49DA00214FEA175B08464FF065
:103550000000002F00F4400007DA00EB80004FF479
:10356000400100EBD07001EA60008115012901DD06
:103570004FF0FF3100224FEA850CBCF1180F06D343
:103580001346ACF118004FF08052C24003E04FF4F4
:10359000801323FA0CF30CF10C0CBCF1200F04D3B4
:1035A000ACF1200C09FA0CF001E007FA0CF000294C
:1035B0004FF0004801DD18B90FE00ED140450CD3A3
:1035C00019EB02095F4121B9404502D19F4329EA25
:1035D0000209BBEB175F00D0761C2088000502D5DE
:1035E0007B48784402E07A487844193808AA3023A6
:1035F00002F80A30037C0AF10101002E0AF1020AE6
:1036000053546A4602DC4FF0300101E04FF03101C3
:103610004FF001088DF8001002D0A6F2FF3603E04B
:1036200059EA470100D06B4E002D02DC21780907D2
:1036300004D54FF002082E218DF80110C446002158
:103640000BE0C7F303433F01C35C491C6D1E02F846
:103650000830052908F1010801DA002DF1DC00210C
:103660000CE000EB1973491C1B786D1E082902F849
:1036700008304FEA091908F1010801DA002DF0DCE1
:1036800021688B0602D516E0A8F10108E04505DDAA
:1036900002EB080313F8013C302BF5D0B8F1000F12
:1036A00009DD02EB080313F8013C2E2B03D10907B7
:1036B00001D4A8F10108002D05DD3E2102F8081013
:1036C0006D1E08F10108407C002E02F8080008F188
:1036D000010804DA2D20764202F8080002E02B20CF
:1036E00002F808000A214FF47A70864208F10108B6
:1036F0000BDB96FBF0F3303302F8083096FBF0F367
:1037000008F1010800FB136601E0642E0CDB642065
:1037100096FBF0F3303302F8083096FBF0F308F133
:10372000010800FB136601E00A2E06DB96FBF1F0B0
:10373000303002F8080008F1010896FBF1F001FBB7
:103740001060303002F80800A16908F1010808EBA8
:10375000050202EB0A00081AA0612078C00602D414
:103760002046FFF718FA216A08AE01EB0A00206232
:1037700004E0D4E9012116F8010B9047BAF1010ADF
:10378000F7D22078C00602D52046FFF704FA6E462D
:1037900009E016F8010B3E280FD0D4E9012190472B
:1037A000206A401C2062B8F10108F2D22046FFF7DF
:1037B00008FA09B00320BDE8F08F206A284420628F
:1037C00003E0D4E90121302090476D1EEBD3F8E7E8
:1037D000490D000002FCFFFF10B5436913B1AFF3C0
:1037E000008001E0FFF7AEFA012010BD128800F161
:1037F000240182840022C2840122EDE711684FF087
:10380000FF32E9E7007B00F08000704770B5164694
:103810000C46054600F040F8036893F801010128C2
:1038200006D0FF2C0FD8185D68B101202C7070BD38
:10383000D3F807013246214603F207130344284612
:10384000BDE8704018474FF0FF3070BD754600F07E
:10385000EBF8AE4605006946534620F00700854662
:1038600018B020B5FCF7F4FCBDE820404FF000068E
:103870004FF000074FF000084FF0000B21F0070158
:10388000AC46ACE8C009ACE8C009ACE8C009ACE89B
:10389000C0098D467047000010B500F005F8001D06
:1038A00010BD00BF010A00000048704784070020D7
:1038B0002DE9F0411F46044603260168072A01F45A
:1038C000006004DB08B116A505E016A503E008B109
:1038D00015A500E015A521F010002060A069C01E0C
:1038E000A0610FB1401EA0612046FFF754F94FB10F
:1038F000D4E9012138469047206A401C2062C01C50
:10390000206206E0206AFAE7D4E9012115F8010BEC
:103910009047761EF8D22046FFF753F9BDE8F081B4
:103920004E414E006E616E00494E4600696E660063
:103930002DE9F047814616468AB0354878440DC8CF
:103940008DE80D0032487844801C03AC0DC884E833
:103950000D0041F69B300844372190FBF1F290FBBB
:10396000F1F5A5F1800501FB12041B3C02D5644270
:10397000012000E00020DFF898A080460027FA44EC
:10398000AAF1BE0A0EE0E0070AD03246684607EB0D
:10399000470101230AEB810100F01BFB8DE80700C2
:1039A00064107F1C002CEED1194F7F44AE3F19E00C
:1039B000E80715D007EB04100DF1180A90E80E0087
:1039C0008AE80E00C068F04201D19819089032468A
:1039D000012306A903A800F0FCFA03AB83E8070063
:1039E0006D10641C002DE3D14FF00103324669468F
:1039F000B8F1000F03A802D000F0D6FA01E000F001
:103A0000E8FAC9E90001C9F808200AB0BDE8F08762
:103A1000800A000010B50446AFF300802046BDE8E0
:103A20001040FCF700BC000000487047640700200D
:103A30004FF0013C50F8042B51F8043B9A4221D13D
:103A4000A2EB0C03934313EACC1317D150F8042BC9
:103A500051F8043B9A4215D1A2EB0C03934313EAAD
:103A6000CC130BD150F8042B51F8043B9A4209D1E6
:103A7000A2EB0C03934313EACC13DBD04FF000000E
:103A8000704700BFD01A01BAB1FA81F101F01801F4
:103A900022FA01F0CB40C1F12001DBB2C0B2C01A62
:103AA0002CFA01F3D11A914311EAC311E6D1704700
:103AB0005FEA400C08BF91F0000F4FEA8C234FEAF9
:103AC000C12243EA51514FEA1C5018BF00F5F040A3
:103AD0004FEA300018BF41F000415FEA6C5C00F033
:103AE0002980BCF1FF3F08BF40F080407047130CB5
:103AF00006BF12044FF0100C4FF0000C130E04BF61
:103B000012020CF1080C130F04BF12010CF1040C8B
:103B1000930F04BF92000CF1020CD30F04BF5200AC
:103B20000CF1010C11464FF00002A0F11F00A0EBB8
:103B30000C00704711F0004F08BF704731F0004192
:103B40003FF4D5AF0B0C06BF09044FF0100C4FF03B
:103B5000000C0B0E04BF09020CF1080C0B0F04BF84
:103B600009010CF1040C8B0F04BF89000CF1020C4D
:103B7000CB0F04BF49000CF1010CCCF12003A0EBEA
:103B80000C0022FA03F302FA0CF241EA030100F1FD
:103B90000100704720F07F4C80EA030023F07F474C
:103BA000ACEB070303F57C5300F0004003F1FF0387
:103BB0002DE980494FEA154B09B44FEA144325EA31
:103BC0000B4E24EA03480FF2042606EB132749089C
:103BD0003E785FEA320203FB0667C7F5000707FB82
:103BE00006F64FEA54374FEAD64606F1020607FBBF
:103BF000066CCCF1005C4FEA1C472CEA074C07FB33
:103C000006F40CFB06F504EB15464FEA961634BF96
:103C100000204FF000404FEAD13706FB07FC4FEA87
:103C20001C4C0CFB0BF7D21B03FB0CF761EB0701E1
:103C30000CFB0EF7B0EB074072EB17420CFB08F7DA
:103C400034BFA2EB0742B2EB074261EB17414FEAE8
:103C50000C444FEA910706FB07FC4FEA1C4C0CFB97
:103C60000BF7B0EBC74072EB573203FB0CF734BFD6
:103C7000A2EBC742B2EBC74261EB57310CFB0EF728
:103C8000B0EBC70072EB57720CFB08F734BFA2EB26
:103C9000C702B2EBC70261EB5771039F4FEA816124
:103CA00041EA921104EBCC044FEAD1374FEA826229
:103CB00006FB07FC42EA90124FEA80604FEA1C4C78
:103CC0000CFB0BF7D21B03FB0CF761EB07010CFBA2
:103CD0000EF7B0EB074072EB17420CFB08F734BF4E
:103CE000A2EB0742B2EB074261EB17414FEA8C555A
:103CF0004FEA910704EB9C2406FB07FC4FEA1C4C9F
:103D00000CFB0BF7B0EBC74072EB573203FB0CF721
:103D100034BFA2EBC742B2EBC74261EB57310CFB99
:103D20000EF7B0EBC70072EB57720CFB08F734BF0D
:103D3000A2EBC702B2EBC70261EB577115EB4C2542
:103D40004FEA816141EA92114FEA82624FEAD1372C
:103D500042EA901206FB07FC44F100044FEA80603F
:103D60004FEA1C4C0CFB0BF7D21B03FB0CF761EB6F
:103D700007010CFB0EF7B0EB074072EB17420CFB90
:103D800008F734BFA2EB0742B2EB074261EB1741E1
:103D900015EB1C154FEA813141EA92414FEA82321C
:103DA00042EA90424FEA80304FEA0C7644F1000438
:103DB00048EA03434EEA0B484FF0000EB2EB080C02
:103DC00071EB030724BF624639464EEB0E0E4FF0EF
:103DD000000B0018524149414BEB0B0BB2EB080CA6
:103DE00071EB03077BF1000B24BF624639464EEBB3
:103DF0000E0E4FF0000B0018524149414BEB0B0BDC
:103E0000B2EB080C71EB03077BF1000B24BF624699
:103E100039464EEB0E0E51EA020718BF46F0010676
:103E200016EB0E7655F1000254F1000103D5BDE802
:103E30008901BDE80088BDE88901BDE80048B619E0
:103E4000524141EB0101A3F10103704780807F7E65
:103E50007D7C7B7A79787776767574737271717000
:103E60006F6E6E6D6C6C6B6A6A69686867666665B2
:103E70006464636362616160605F5F5E5E5D5D5C40
:103E80005C5B5B5A5A5959585857575656555555B1
:103E90005454535352525251515050504F4F4F4E11
:103EA0004E4D4D4D4C4C4C4B4B4B4A4A4A4949495F
:103EB00048484847474747464646454545444444A1
:103EC000444343434342424242414141002B9C46CA
:103ED00030D477002BD01CB54FEA370703B44FF02E
:103EE00010004FF01001BAF1000F06D0BCF1000F26
:103EF000DCBF40F0080040F008014FF000000FBCAC
:103F0000BDE810400BF1010BBBF1010F08BF5FEAE8
:103F1000170722BF12F1010211F101014FF0004118
:103F200043F1000300F0004043EA00007047F9D37A
:103F30005708D0E746EA064613F1400F4FEA164607
:103F40001FDD13F1200FDFBF16430A460021203387
:103F50005B42BED0C3F1200746EA064602FA07F7E5
:103F60004FEA164646EA0706C3F1200722FA03F293
:103F700001FA07F721FA03F14FF0000342EA0702C2
:103F8000A7E746EA020646EA06464FEA164646EA2A
:103F90000106BCBF46EA0646360C4FF000034FF060
:103FA00000024FF0000194E72DE9804C9A469346B9
:103FB00070B491E8380007C831EA400C48BF34EAD1
:103FC000430C03D5FFF7E6FDFFF780FFF0BCBDE82B
:103FD000008C2DE9804C9A46934670B491E83800E5
:103FE00007C810F0804F08BF13F0804F03D100F0D6
:103FF00005F8FFF76BFFF0BCBDE8008C20F07F47B1
:1040000080EA030023F07F4C07EB0C03A3F57C53FD
:1040100000F00040A3F1FE0392F0000F00F0B38027
:1040200095F0000F00F077802DE901494FEA11402B
:104030004FEA144621EA004800FB06FC24EA064742
:1040400008FB06F607FB08F800FB07F718EB064825
:104050004CEB164C4FEA124B18EB07484FEA15464B
:104060004CEB174022EA0B4E0BFB06FC25EA0647F9
:104070000EFB06F607FB0EFE0BFB07F71EEB064ECC
:104080004CEB164C4FF000061EEB074E4CEB174B5B
:1040900018EB0B0840F1000018EB0E0B58EB000872
:1040A00040F100008F1A4FF000013CBFC943661B6E
:1040B00014BFB5EB040C00213CBFC943F61B4FEA0B
:1040C00017444EEA8E0E27EA04454FEA1C4704FBCC
:1040D00007622CEA074C05FB07F70CFB05F604FB0F
:1040E0000CFC16EB074642EB174216EB0C4642EB74
:1040F0001C421BEB060658EB0202414146EA9E06B3
:1041000001D5BDE80189B619524141EB0101A3F186
:104110000103BDE801894FEA14454FEA114724EA3B
:10412000054621EA074C05FB07F406FB07F70CFBE5
:1041300006F105FB0CFC11EB074144EB17444FEA79
:10414000124711EB0C4144EB1C4422EA074C05FBDF
:1041500007F206FB07F70CFB06F605FB0CFC16EB5B
:10416000074642EB174216EB0C4642EB1C456A1819
:1041700054F1000148BF7047B619524141EB0101AB
:10418000A3F10103704795F0000F37D04FEA1142B9
:104190004FEA144721EA024624EA074C02FB07F1E2
:1041A00006FB07F70CFB06F402FB0CFC14EB0744C0
:1041B00041EB17414FEA154714EB0C4441EB1C410E
:1041C00025EA074C02FB07F506FB07F70CFB06F692
:1041D00002FB0CFC16EB074645EB174516EB0C46AD
:1041E00045EB1C42121951F1000148BF7047B61946
:1041F000524141EB0101A3F1010370474FEA14451D
:104200004FEA114724EA054621EA074C05FB07F16E
:1042100006FB07F70CFB06F24FF0000605FB0CFC53
:1042200012EB074241EB174112EB0C4251EB1C41E0
:1042300048BF7047921841EB0101A3F10103704799
:10424000490050EAC12018BF04204A0D18BF40F0B1
:10425000010040F2FF72B2EB515F08BF40F0020074
:10426000012808BF0520704730380A2801D20120F4
:10427000704700207047000010B500290AD0087868
:10428000002807D005487844FFF7D2FB002801D06A
:10429000002010BD0248784410BD000072010000EB
:1042A0006A01000010B500290AD00878002807D05C
:1042B00005487844FFF7BCFB002801D0002010BD62
:1042C0000248784410BD0000620100005A0100005D
:1042D000FEF7CDBFFFF702B90400000800000000A0
:1042E00000000002000100001000000000000000BB
:1042F000000000003031323334353637383941422E
:104300004344454640305800303132333435363737
:104310003839616263646566403078003031323329
:1043200034353637383961626364656678700030D9
:1043300031323334353637383941424344454658B3
:104340005000000002400000000000A0000000003B
:1043500005400000000000C8000000000C40000004
:104360000000409C00000000194000000020BCBE7E
:104370000000000034400000BFC91B8E0000000494
:10438000B5400000504BCFD06607E2CF01000000DF
:104390006C4100003E8251AADFEEA734010000000C
:1043A000D9420000DCB5A0E23A301F97FFFFFFFFC3
:1043B000B4450000FD25A0C8E9A3C14FFFFFFFFFE2
:1043C000FF3F00000000008000000000FF3F0000F1
:1043D00000000080000000002445000800000020CC
:1043E000340000002801000858450008340000206F
:1043F000940D0000440100081C0000004300000070
:10440000F8FFFFFF0C0000000E0000000F0000008E
:104410002E0000001001000043000000F8FFFFFF25
:1044200000404040404040404040414141414140C7
:10443000404040404040404040404040404040407C
:10444000400502020202020202020202020202020B
:104450000220202020202020202020020202020210
:104460000202909090909090101010101010101068
:104470001010101010101010101010100202020274
:1044800002028888888888880808080808080808B8
:1044900008080808080808080808080802020202B4
:1044A00040000000000000000000000000000000CC
:1044B00000000000000000000000000000000000FC
:1044C00000000000000000000000000000000000EC
:1044D00000000000000000000000000000000000DC
:1044E00000000000000000000000000000000000CC
:1044F00000000000000000000000000000000000BC
:1045000000000000000000000000000000000000AB
:10451000000000000000000000000000000000009B
:104520000000000000A24A0400000000000000009B
:104530000102030406070809000000000102030449
:10454000010203040607080902040608000000002F
:08455000000000000000000063
:04000005080000ED02
:00000001FF
